{
	"ERC20/token_flat.sol": {
		"Paulyntoken": {
			"abi": [
				{
					"inputs": [],
					"stateMutability": "nonpayable",
					"type": "constructor"
				},
				{
					"anonymous": false,
					"inputs": [
						{
							"indexed": true,
							"internalType": "address",
							"name": "owner",
							"type": "address"
						},
						{
							"indexed": true,
							"internalType": "address",
							"name": "spender",
							"type": "address"
						},
						{
							"indexed": false,
							"internalType": "uint256",
							"name": "value",
							"type": "uint256"
						}
					],
					"name": "Approval",
					"type": "event"
				},
				{
					"anonymous": false,
					"inputs": [
						{
							"indexed": true,
							"internalType": "address",
							"name": "from",
							"type": "address"
						},
						{
							"indexed": true,
							"internalType": "address",
							"name": "to",
							"type": "address"
						},
						{
							"indexed": false,
							"internalType": "uint256",
							"name": "value",
							"type": "uint256"
						}
					],
					"name": "Transfer",
					"type": "event"
				},
				{
					"inputs": [
						{
							"internalType": "address",
							"name": "owner",
							"type": "address"
						},
						{
							"internalType": "address",
							"name": "spender",
							"type": "address"
						}
					],
					"name": "allowance",
					"outputs": [
						{
							"internalType": "uint256",
							"name": "",
							"type": "uint256"
						}
					],
					"stateMutability": "view",
					"type": "function"
				},
				{
					"inputs": [
						{
							"internalType": "address",
							"name": "spender",
							"type": "address"
						},
						{
							"internalType": "uint256",
							"name": "amount",
							"type": "uint256"
						}
					],
					"name": "approve",
					"outputs": [
						{
							"internalType": "bool",
							"name": "",
							"type": "bool"
						}
					],
					"stateMutability": "nonpayable",
					"type": "function"
				},
				{
					"inputs": [
						{
							"internalType": "address",
							"name": "account",
							"type": "address"
						}
					],
					"name": "balanceOf",
					"outputs": [
						{
							"internalType": "uint256",
							"name": "",
							"type": "uint256"
						}
					],
					"stateMutability": "view",
					"type": "function"
				},
				{
					"inputs": [
						{
							"internalType": "address",
							"name": "receiver",
							"type": "address"
						}
					],
					"name": "buyToken",
					"outputs": [],
					"stateMutability": "payable",
					"type": "function"
				},
				{
					"inputs": [],
					"name": "decimals",
					"outputs": [
						{
							"internalType": "uint8",
							"name": "",
							"type": "uint8"
						}
					],
					"stateMutability": "view",
					"type": "function"
				},
				{
					"inputs": [
						{
							"internalType": "address",
							"name": "spender",
							"type": "address"
						},
						{
							"internalType": "uint256",
							"name": "subtractedValue",
							"type": "uint256"
						}
					],
					"name": "decreaseAllowance",
					"outputs": [
						{
							"internalType": "bool",
							"name": "",
							"type": "bool"
						}
					],
					"stateMutability": "nonpayable",
					"type": "function"
				},
				{
					"inputs": [
						{
							"internalType": "address",
							"name": "spender",
							"type": "address"
						},
						{
							"internalType": "uint256",
							"name": "addedValue",
							"type": "uint256"
						}
					],
					"name": "increaseAllowance",
					"outputs": [
						{
							"internalType": "bool",
							"name": "",
							"type": "bool"
						}
					],
					"stateMutability": "nonpayable",
					"type": "function"
				},
				{
					"inputs": [],
					"name": "name",
					"outputs": [
						{
							"internalType": "string",
							"name": "",
							"type": "string"
						}
					],
					"stateMutability": "view",
					"type": "function"
				},
				{
					"inputs": [],
					"name": "symbol",
					"outputs": [
						{
							"internalType": "string",
							"name": "",
							"type": "string"
						}
					],
					"stateMutability": "view",
					"type": "function"
				},
				{
					"inputs": [],
					"name": "totalSupply",
					"outputs": [
						{
							"internalType": "uint256",
							"name": "",
							"type": "uint256"
						}
					],
					"stateMutability": "view",
					"type": "function"
				},
				{
					"inputs": [
						{
							"internalType": "address",
							"name": "to",
							"type": "address"
						},
						{
							"internalType": "uint256",
							"name": "amount",
							"type": "uint256"
						}
					],
					"name": "transfer",
					"outputs": [
						{
							"internalType": "bool",
							"name": "",
							"type": "bool"
						}
					],
					"stateMutability": "nonpayable",
					"type": "function"
				},
				{
					"inputs": [
						{
							"internalType": "address",
							"name": "from",
							"type": "address"
						},
						{
							"internalType": "address",
							"name": "to",
							"type": "address"
						},
						{
							"internalType": "uint256",
							"name": "amount",
							"type": "uint256"
						}
					],
					"name": "transferFrom",
					"outputs": [
						{
							"internalType": "bool",
							"name": "",
							"type": "bool"
						}
					],
					"stateMutability": "nonpayable",
					"type": "function"
				}
			],
			"devdoc": {
				"kind": "dev",
				"methods": {
					"allowance(address,address)": {
						"details": "See {IERC20-allowance}."
					},
					"approve(address,uint256)": {
						"details": "See {IERC20-approve}. NOTE: If `amount` is the maximum `uint256`, the allowance is not updated on `transferFrom`. This is semantically equivalent to an infinite approval. Requirements: - `spender` cannot be the zero address."
					},
					"balanceOf(address)": {
						"details": "See {IERC20-balanceOf}."
					},
					"decimals()": {
						"details": "Returns the number of decimals used to get its user representation. For example, if `decimals` equals `2`, a balance of `505` tokens should be displayed to a user as `5.05` (`505 / 10 ** 2`). Tokens usually opt for a value of 18, imitating the relationship between Ether and Wei. This is the value {ERC20} uses, unless this function is overridden; NOTE: This information is only used for _display_ purposes: it in no way affects any of the arithmetic of the contract, including {IERC20-balanceOf} and {IERC20-transfer}."
					},
					"decreaseAllowance(address,uint256)": {
						"details": "Atomically decreases the allowance granted to `spender` by the caller. This is an alternative to {approve} that can be used as a mitigation for problems described in {IERC20-approve}. Emits an {Approval} event indicating the updated allowance. Requirements: - `spender` cannot be the zero address. - `spender` must have allowance for the caller of at least `subtractedValue`."
					},
					"increaseAllowance(address,uint256)": {
						"details": "Atomically increases the allowance granted to `spender` by the caller. This is an alternative to {approve} that can be used as a mitigation for problems described in {IERC20-approve}. Emits an {Approval} event indicating the updated allowance. Requirements: - `spender` cannot be the zero address."
					},
					"name()": {
						"details": "Returns the name of the token."
					},
					"symbol()": {
						"details": "Returns the symbol of the token, usually a shorter version of the name."
					},
					"totalSupply()": {
						"details": "See {IERC20-totalSupply}."
					},
					"transfer(address,uint256)": {
						"details": "See {IERC20-transfer}. Requirements: - `to` cannot be the zero address. - the caller must have a balance of at least `amount`."
					},
					"transferFrom(address,address,uint256)": {
						"details": "See {IERC20-transferFrom}. Emits an {Approval} event indicating the updated allowance. This is not required by the EIP. See the note at the beginning of {ERC20}. NOTE: Does not update the allowance if the current allowance is the maximum `uint256`. Requirements: - `from` and `to` cannot be the zero address. - `from` must have a balance of at least `amount`. - the caller must have allowance for ``from``'s tokens of at least `amount`."
					}
				},
				"version": 1
			},
			"evm": {
				"assembly": "    /* \"ERC20/token_flat.sol\":17008:17563  contract Paulyntoken is ERC20 {... */\n  mstore(0x40, 0x80)\n    /* \"ERC20/token_flat.sol\":17086:17242  constructor() ERC20 (\"Paulyntoken\", \"PNT\") {... */\n  callvalue\n  dup1\n  iszero\n  tag_1\n  jumpi\n  0x00\n  dup1\n  revert\ntag_1:\n  pop\n    /* \"ERC20/token_flat.sol\":6303:6416  constructor(string memory name_, string memory symbol_) {... */\n  mload(0x40)\n  dup1\n  0x40\n  add\n  0x40\n  mstore\n  dup1\n  0x0b\n  dup2\n  mstore\n  0x20\n  add\n  0x5061756c796e746f6b656e000000000000000000000000000000000000000000\n  dup2\n  mstore\n  pop\n  mload(0x40)\n  dup1\n  0x40\n  add\n  0x40\n  mstore\n  dup1\n  0x03\n  dup2\n  mstore\n  0x20\n  add\n  0x504e540000000000000000000000000000000000000000000000000000000000\n  dup2\n  mstore\n  pop\n    /* \"ERC20/token_flat.sol\":6377:6382  name_ */\n  dup2\n    /* \"ERC20/token_flat.sol\":6369:6374  _name */\n  0x03\n    /* \"ERC20/token_flat.sol\":6369:6382  _name = name_ */\n  swap1\n  dup1\n  mload\n  swap1\n  0x20\n  add\n  swap1\n  tag_5\n  swap3\n  swap2\n  swap1\n  tag_6\n  jump\t// in\ntag_5:\n  pop\n    /* \"ERC20/token_flat.sol\":6402:6409  symbol_ */\n  dup1\n    /* \"ERC20/token_flat.sol\":6392:6399  _symbol */\n  0x04\n    /* \"ERC20/token_flat.sol\":6392:6409  _symbol = symbol_ */\n  swap1\n  dup1\n  mload\n  swap1\n  0x20\n  add\n  swap1\n  tag_7\n  swap3\n  swap2\n  swap1\n  tag_6\n  jump\t// in\ntag_7:\n  pop\n    /* \"ERC20/token_flat.sol\":6303:6416  constructor(string memory name_, string memory symbol_) {... */\n  pop\n  pop\n    /* \"ERC20/token_flat.sol\":17146:17150  1000 */\n  0x03e8\n    /* \"ERC20/token_flat.sol\":17139:17143  rate */\n  0x05\n    /* \"ERC20/token_flat.sol\":17139:17150  rate = 1000 */\n  dup2\n  swap1\n  sstore\n  pop\n    /* \"ERC20/token_flat.sol\":17174:17192  1000000 * 10 ** 18 */\n  0xd3c21bcecceda1000000\n    /* \"ERC20/token_flat.sol\":17160:17171  FixedSupply */\n  0x06\n    /* \"ERC20/token_flat.sol\":17160:17192  FixedSupply = 1000000 * 10 ** 18 */\n  dup2\n  swap1\n  sstore\n  pop\n    /* \"ERC20/token_flat.sol\":17202:17235  _mint(msg.sender, 5000 *10 ** 18) */\n  tag_9\n    /* \"ERC20/token_flat.sol\":17208:17218  msg.sender */\n  caller\n    /* \"ERC20/token_flat.sol\":17220:17234  5000 *10 ** 18 */\n  0x010f0cf064dd59200000\n    /* \"ERC20/token_flat.sol\":17202:17207  _mint */\n  shl(0x20, tag_10)\n    /* \"ERC20/token_flat.sol\":17202:17235  _mint(msg.sender, 5000 *10 ** 18) */\n  0x20\n  shr\n  jump\t// in\ntag_9:\n    /* \"ERC20/token_flat.sol\":17008:17563  contract Paulyntoken is ERC20 {... */\n  jump(tag_11)\n    /* \"ERC20/token_flat.sol\":12740:13129  function _mint(address account, uint256 amount) internal virtual {... */\ntag_10:\n    /* \"ERC20/token_flat.sol\":12842:12843  0 */\n  0x00\n    /* \"ERC20/token_flat.sol\":12823:12844  account != address(0) */\n  0xffffffffffffffffffffffffffffffffffffffff\n  and\n    /* \"ERC20/token_flat.sol\":12823:12830  account */\n  dup3\n    /* \"ERC20/token_flat.sol\":12823:12844  account != address(0) */\n  0xffffffffffffffffffffffffffffffffffffffff\n  and\n  sub\n    /* \"ERC20/token_flat.sol\":12815:12880  require(account != address(0), \"ERC20: mint to the zero address\") */\n  tag_13\n  jumpi\n  mload(0x40)\n  0x08c379a000000000000000000000000000000000000000000000000000000000\n  dup2\n  mstore\n  0x04\n  add\n  tag_14\n  swap1\n  tag_15\n  jump\t// in\ntag_14:\n  mload(0x40)\n  dup1\n  swap2\n  sub\n  swap1\n  revert\ntag_13:\n    /* \"ERC20/token_flat.sol\":12891:12940  _beforeTokenTransfer(address(0), account, amount) */\n  tag_16\n    /* \"ERC20/token_flat.sol\":12920:12921  0 */\n  0x00\n    /* \"ERC20/token_flat.sol\":12924:12931  account */\n  dup4\n    /* \"ERC20/token_flat.sol\":12933:12939  amount */\n  dup4\n    /* \"ERC20/token_flat.sol\":12891:12911  _beforeTokenTransfer */\n  shl(0x20, tag_17)\n    /* \"ERC20/token_flat.sol\":12891:12940  _beforeTokenTransfer(address(0), account, amount) */\n  0x20\n  shr\n  jump\t// in\ntag_16:\n    /* \"ERC20/token_flat.sol\":12967:12973  amount */\n  dup1\n    /* \"ERC20/token_flat.sol\":12951:12963  _totalSupply */\n  0x02\n  0x00\n    /* \"ERC20/token_flat.sol\":12951:12973  _totalSupply += amount */\n  dup3\n  dup3\n  sload\n  tag_18\n  swap2\n  swap1\n  tag_19\n  jump\t// in\ntag_18:\n  swap3\n  pop\n  pop\n  dup2\n  swap1\n  sstore\n  pop\n    /* \"ERC20/token_flat.sol\":13005:13011  amount */\n  dup1\n    /* \"ERC20/token_flat.sol\":12983:12992  _balances */\n  0x00\n    /* \"ERC20/token_flat.sol\":12983:13001  _balances[account] */\n  dup1\n    /* \"ERC20/token_flat.sol\":12993:13000  account */\n  dup5\n    /* \"ERC20/token_flat.sol\":12983:13001  _balances[account] */\n  0xffffffffffffffffffffffffffffffffffffffff\n  and\n  0xffffffffffffffffffffffffffffffffffffffff\n  and\n  dup2\n  mstore\n  0x20\n  add\n  swap1\n  dup2\n  mstore\n  0x20\n  add\n  0x00\n  keccak256\n  0x00\n    /* \"ERC20/token_flat.sol\":12983:13011  _balances[account] += amount */\n  dup3\n  dup3\n  sload\n  tag_20\n  swap2\n  swap1\n  tag_19\n  jump\t// in\ntag_20:\n  swap3\n  pop\n  pop\n  dup2\n  swap1\n  sstore\n  pop\n    /* \"ERC20/token_flat.sol\":13047:13054  account */\n  dup2\n    /* \"ERC20/token_flat.sol\":13026:13063  Transfer(address(0), account, amount) */\n  0xffffffffffffffffffffffffffffffffffffffff\n  and\n    /* \"ERC20/token_flat.sol\":13043:13044  0 */\n  0x00\n    /* \"ERC20/token_flat.sol\":13026:13063  Transfer(address(0), account, amount) */\n  0xffffffffffffffffffffffffffffffffffffffff\n  and\n  0xddf252ad1be2c89b69c2b068fc378daa952ba7f163c4a11628f55a4df523b3ef\n    /* \"ERC20/token_flat.sol\":13056:13062  amount */\n  dup4\n    /* \"ERC20/token_flat.sol\":13026:13063  Transfer(address(0), account, amount) */\n  mload(0x40)\n  tag_21\n  swap2\n  swap1\n  tag_22\n  jump\t// in\ntag_21:\n  mload(0x40)\n  dup1\n  swap2\n  sub\n  swap1\n  log3\n    /* \"ERC20/token_flat.sol\":13074:13122  _afterTokenTransfer(address(0), account, amount) */\n  tag_23\n    /* \"ERC20/token_flat.sol\":13102:13103  0 */\n  0x00\n    /* \"ERC20/token_flat.sol\":13106:13113  account */\n  dup4\n    /* \"ERC20/token_flat.sol\":13115:13121  amount */\n  dup4\n    /* \"ERC20/token_flat.sol\":13074:13093  _afterTokenTransfer */\n  shl(0x20, tag_24)\n    /* \"ERC20/token_flat.sol\":13074:13122  _afterTokenTransfer(address(0), account, amount) */\n  0x20\n  shr\n  jump\t// in\ntag_23:\n    /* \"ERC20/token_flat.sol\":12740:13129  function _mint(address account, uint256 amount) internal virtual {... */\n  pop\n  pop\n  jump\t// out\n    /* \"ERC20/token_flat.sol\":16120:16241  function _beforeTokenTransfer(... */\ntag_17:\n  pop\n  pop\n  pop\n  jump\t// out\n    /* \"ERC20/token_flat.sol\":16829:16949  function _afterTokenTransfer(... */\ntag_24:\n  pop\n  pop\n  pop\n  jump\t// out\n    /* \"ERC20/token_flat.sol\":17008:17563  contract Paulyntoken is ERC20 {... */\ntag_6:\n  dup3\n  dup1\n  sload\n  tag_27\n  swap1\n  tag_28\n  jump\t// in\ntag_27:\n  swap1\n  0x00\n  mstore\n  keccak256(0x00, 0x20)\n  swap1\n  0x1f\n  add\n  0x20\n  swap1\n  div\n  dup2\n  add\n  swap3\n  dup3\n  tag_30\n  jumpi\n  0x00\n  dup6\n  sstore\n  jump(tag_29)\ntag_30:\n  dup3\n  0x1f\n  lt\n  tag_31\n  jumpi\n  dup1\n  mload\n  not(0xff)\n  and\n  dup4\n  dup1\n  add\n  or\n  dup6\n  sstore\n  jump(tag_29)\ntag_31:\n  dup3\n  dup1\n  add\n  0x01\n  add\n  dup6\n  sstore\n  dup3\n  iszero\n  tag_29\n  jumpi\n  swap2\n  dup3\n  add\ntag_32:\n  dup3\n  dup2\n  gt\n  iszero\n  tag_33\n  jumpi\n  dup3\n  mload\n  dup3\n  sstore\n  swap2\n  0x20\n  add\n  swap2\n  swap1\n  0x01\n  add\n  swap1\n  jump(tag_32)\ntag_33:\ntag_29:\n  pop\n  swap1\n  pop\n  tag_34\n  swap2\n  swap1\n  tag_35\n  jump\t// in\ntag_34:\n  pop\n  swap1\n  jump\t// out\ntag_35:\ntag_36:\n  dup1\n  dup3\n  gt\n  iszero\n  tag_37\n  jumpi\n  0x00\n  dup2\n  0x00\n  swap1\n  sstore\n  pop\n  0x01\n  add\n  jump(tag_36)\ntag_37:\n  pop\n  swap1\n  jump\t// out\n    /* \"#utility.yul\":7:176   */\ntag_38:\n    /* \"#utility.yul\":91:102   */\n  0x00\n    /* \"#utility.yul\":125:131   */\n  dup3\n    /* \"#utility.yul\":120:123   */\n  dup3\n    /* \"#utility.yul\":113:132   */\n  mstore\n    /* \"#utility.yul\":165:169   */\n  0x20\n    /* \"#utility.yul\":160:163   */\n  dup3\n    /* \"#utility.yul\":156:170   */\n  add\n    /* \"#utility.yul\":141:170   */\n  swap1\n  pop\n    /* \"#utility.yul\":7:176   */\n  swap3\n  swap2\n  pop\n  pop\n  jump\t// out\n    /* \"#utility.yul\":182:363   */\ntag_39:\n    /* \"#utility.yul\":322:355   */\n  0x45524332303a206d696e7420746f20746865207a65726f206164647265737300\n    /* \"#utility.yul\":318:319   */\n  0x00\n    /* \"#utility.yul\":310:316   */\n  dup3\n    /* \"#utility.yul\":306:320   */\n  add\n    /* \"#utility.yul\":299:356   */\n  mstore\n    /* \"#utility.yul\":182:363   */\n  pop\n  jump\t// out\n    /* \"#utility.yul\":369:735   */\ntag_40:\n    /* \"#utility.yul\":511:514   */\n  0x00\n    /* \"#utility.yul\":532:599   */\n  tag_49\n    /* \"#utility.yul\":596:598   */\n  0x1f\n    /* \"#utility.yul\":591:594   */\n  dup4\n    /* \"#utility.yul\":532:599   */\n  tag_38\n  jump\t// in\ntag_49:\n    /* \"#utility.yul\":525:599   */\n  swap2\n  pop\n    /* \"#utility.yul\":608:701   */\n  tag_50\n    /* \"#utility.yul\":697:700   */\n  dup3\n    /* \"#utility.yul\":608:701   */\n  tag_39\n  jump\t// in\ntag_50:\n    /* \"#utility.yul\":726:728   */\n  0x20\n    /* \"#utility.yul\":721:724   */\n  dup3\n    /* \"#utility.yul\":717:729   */\n  add\n    /* \"#utility.yul\":710:729   */\n  swap1\n  pop\n    /* \"#utility.yul\":369:735   */\n  swap2\n  swap1\n  pop\n  jump\t// out\n    /* \"#utility.yul\":741:1160   */\ntag_15:\n    /* \"#utility.yul\":907:911   */\n  0x00\n    /* \"#utility.yul\":945:947   */\n  0x20\n    /* \"#utility.yul\":934:943   */\n  dup3\n    /* \"#utility.yul\":930:948   */\n  add\n    /* \"#utility.yul\":922:948   */\n  swap1\n  pop\n    /* \"#utility.yul\":994:1003   */\n  dup2\n    /* \"#utility.yul\":988:992   */\n  dup2\n    /* \"#utility.yul\":984:1004   */\n  sub\n    /* \"#utility.yul\":980:981   */\n  0x00\n    /* \"#utility.yul\":969:978   */\n  dup4\n    /* \"#utility.yul\":965:982   */\n  add\n    /* \"#utility.yul\":958:1005   */\n  mstore\n    /* \"#utility.yul\":1022:1153   */\n  tag_52\n    /* \"#utility.yul\":1148:1152   */\n  dup2\n    /* \"#utility.yul\":1022:1153   */\n  tag_40\n  jump\t// in\ntag_52:\n    /* \"#utility.yul\":1014:1153   */\n  swap1\n  pop\n    /* \"#utility.yul\":741:1160   */\n  swap2\n  swap1\n  pop\n  jump\t// out\n    /* \"#utility.yul\":1166:1243   */\ntag_41:\n    /* \"#utility.yul\":1203:1210   */\n  0x00\n    /* \"#utility.yul\":1232:1237   */\n  dup2\n    /* \"#utility.yul\":1221:1237   */\n  swap1\n  pop\n    /* \"#utility.yul\":1166:1243   */\n  swap2\n  swap1\n  pop\n  jump\t// out\n    /* \"#utility.yul\":1249:1429   */\ntag_42:\n    /* \"#utility.yul\":1297:1374   */\n  0x4e487b7100000000000000000000000000000000000000000000000000000000\n    /* \"#utility.yul\":1294:1295   */\n  0x00\n    /* \"#utility.yul\":1287:1375   */\n  mstore\n    /* \"#utility.yul\":1394:1398   */\n  0x11\n    /* \"#utility.yul\":1391:1392   */\n  0x04\n    /* \"#utility.yul\":1384:1399   */\n  mstore\n    /* \"#utility.yul\":1418:1422   */\n  0x24\n    /* \"#utility.yul\":1415:1416   */\n  0x00\n    /* \"#utility.yul\":1408:1423   */\n  revert\n    /* \"#utility.yul\":1435:1740   */\ntag_19:\n    /* \"#utility.yul\":1475:1478   */\n  0x00\n    /* \"#utility.yul\":1494:1514   */\n  tag_56\n    /* \"#utility.yul\":1512:1513   */\n  dup3\n    /* \"#utility.yul\":1494:1514   */\n  tag_41\n  jump\t// in\ntag_56:\n    /* \"#utility.yul\":1489:1514   */\n  swap2\n  pop\n    /* \"#utility.yul\":1528:1548   */\n  tag_57\n    /* \"#utility.yul\":1546:1547   */\n  dup4\n    /* \"#utility.yul\":1528:1548   */\n  tag_41\n  jump\t// in\ntag_57:\n    /* \"#utility.yul\":1523:1548   */\n  swap3\n  pop\n    /* \"#utility.yul\":1682:1683   */\n  dup3\n    /* \"#utility.yul\":1614:1680   */\n  0xffffffffffffffffffffffffffffffffffffffffffffffffffffffffffffffff\n    /* \"#utility.yul\":1610:1684   */\n  sub\n    /* \"#utility.yul\":1607:1608   */\n  dup3\n    /* \"#utility.yul\":1604:1685   */\n  gt\n    /* \"#utility.yul\":1601:1708   */\n  iszero\n  tag_58\n  jumpi\n    /* \"#utility.yul\":1688:1706   */\n  tag_59\n  tag_42\n  jump\t// in\ntag_59:\n    /* \"#utility.yul\":1601:1708   */\ntag_58:\n    /* \"#utility.yul\":1732:1733   */\n  dup3\n    /* \"#utility.yul\":1729:1730   */\n  dup3\n    /* \"#utility.yul\":1725:1734   */\n  add\n    /* \"#utility.yul\":1718:1734   */\n  swap1\n  pop\n    /* \"#utility.yul\":1435:1740   */\n  swap3\n  swap2\n  pop\n  pop\n  jump\t// out\n    /* \"#utility.yul\":1746:1864   */\ntag_43:\n    /* \"#utility.yul\":1833:1857   */\n  tag_61\n    /* \"#utility.yul\":1851:1856   */\n  dup2\n    /* \"#utility.yul\":1833:1857   */\n  tag_41\n  jump\t// in\ntag_61:\n    /* \"#utility.yul\":1828:1831   */\n  dup3\n    /* \"#utility.yul\":1821:1858   */\n  mstore\n    /* \"#utility.yul\":1746:1864   */\n  pop\n  pop\n  jump\t// out\n    /* \"#utility.yul\":1870:2092   */\ntag_22:\n    /* \"#utility.yul\":1963:1967   */\n  0x00\n    /* \"#utility.yul\":2001:2003   */\n  0x20\n    /* \"#utility.yul\":1990:1999   */\n  dup3\n    /* \"#utility.yul\":1986:2004   */\n  add\n    /* \"#utility.yul\":1978:2004   */\n  swap1\n  pop\n    /* \"#utility.yul\":2014:2085   */\n  tag_63\n    /* \"#utility.yul\":2082:2083   */\n  0x00\n    /* \"#utility.yul\":2071:2080   */\n  dup4\n    /* \"#utility.yul\":2067:2084   */\n  add\n    /* \"#utility.yul\":2058:2064   */\n  dup5\n    /* \"#utility.yul\":2014:2085   */\n  tag_43\n  jump\t// in\ntag_63:\n    /* \"#utility.yul\":1870:2092   */\n  swap3\n  swap2\n  pop\n  pop\n  jump\t// out\n    /* \"#utility.yul\":2098:2278   */\ntag_44:\n    /* \"#utility.yul\":2146:2223   */\n  0x4e487b7100000000000000000000000000000000000000000000000000000000\n    /* \"#utility.yul\":2143:2144   */\n  0x00\n    /* \"#utility.yul\":2136:2224   */\n  mstore\n    /* \"#utility.yul\":2243:2247   */\n  0x22\n    /* \"#utility.yul\":2240:2241   */\n  0x04\n    /* \"#utility.yul\":2233:2248   */\n  mstore\n    /* \"#utility.yul\":2267:2271   */\n  0x24\n    /* \"#utility.yul\":2264:2265   */\n  0x00\n    /* \"#utility.yul\":2257:2272   */\n  revert\n    /* \"#utility.yul\":2284:2604   */\ntag_28:\n    /* \"#utility.yul\":2328:2334   */\n  0x00\n    /* \"#utility.yul\":2365:2366   */\n  0x02\n    /* \"#utility.yul\":2359:2363   */\n  dup3\n    /* \"#utility.yul\":2355:2367   */\n  div\n    /* \"#utility.yul\":2345:2367   */\n  swap1\n  pop\n    /* \"#utility.yul\":2412:2413   */\n  0x01\n    /* \"#utility.yul\":2406:2410   */\n  dup3\n    /* \"#utility.yul\":2402:2414   */\n  and\n    /* \"#utility.yul\":2433:2451   */\n  dup1\n    /* \"#utility.yul\":2423:2504   */\n  tag_66\n  jumpi\n    /* \"#utility.yul\":2489:2493   */\n  0x7f\n    /* \"#utility.yul\":2481:2487   */\n  dup3\n    /* \"#utility.yul\":2477:2494   */\n  and\n    /* \"#utility.yul\":2467:2494   */\n  swap2\n  pop\n    /* \"#utility.yul\":2423:2504   */\ntag_66:\n    /* \"#utility.yul\":2551:2553   */\n  0x20\n    /* \"#utility.yul\":2543:2549   */\n  dup3\n    /* \"#utility.yul\":2540:2554   */\n  lt\n    /* \"#utility.yul\":2520:2538   */\n  dup2\n    /* \"#utility.yul\":2517:2555   */\n  sub\n    /* \"#utility.yul\":2514:2598   */\n  tag_67\n  jumpi\n    /* \"#utility.yul\":2570:2588   */\n  tag_68\n  tag_44\n  jump\t// in\ntag_68:\n    /* \"#utility.yul\":2514:2598   */\ntag_67:\n    /* \"#utility.yul\":2335:2604   */\n  pop\n    /* \"#utility.yul\":2284:2604   */\n  swap2\n  swap1\n  pop\n  jump\t// out\n    /* \"ERC20/token_flat.sol\":17008:17563  contract Paulyntoken is ERC20 {... */\ntag_11:\n  dataSize(sub_0)\n  dup1\n  dataOffset(sub_0)\n  0x00\n  codecopy\n  0x00\n  return\nstop\n\nsub_0: assembly {\n        /* \"ERC20/token_flat.sol\":17008:17563  contract Paulyntoken is ERC20 {... */\n      mstore(0x40, 0x80)\n      jumpi(tag_1, lt(calldatasize, 0x04))\n      shr(0xe0, calldataload(0x00))\n      dup1\n      0x70a08231\n      gt\n      tag_14\n      jumpi\n      dup1\n      0x70a08231\n      eq\n      tag_8\n      jumpi\n      dup1\n      0x7e72fb52\n      eq\n      tag_9\n      jumpi\n      dup1\n      0x95d89b41\n      eq\n      tag_10\n      jumpi\n      dup1\n      0xa457c2d7\n      eq\n      tag_11\n      jumpi\n      dup1\n      0xa9059cbb\n      eq\n      tag_12\n      jumpi\n      dup1\n      0xdd62ed3e\n      eq\n      tag_13\n      jumpi\n      jump(tag_1)\n    tag_14:\n      dup1\n      0x06fdde03\n      eq\n      tag_2\n      jumpi\n      dup1\n      0x095ea7b3\n      eq\n      tag_3\n      jumpi\n      dup1\n      0x18160ddd\n      eq\n      tag_4\n      jumpi\n      dup1\n      0x23b872dd\n      eq\n      tag_5\n      jumpi\n      dup1\n      0x313ce567\n      eq\n      tag_6\n      jumpi\n      dup1\n      0x39509351\n      eq\n      tag_7\n      jumpi\n    tag_1:\n      0x00\n      dup1\n      revert\n        /* \"ERC20/token_flat.sol\":6481:6579  function name() public view virtual override returns (string memory) {... */\n    tag_2:\n      callvalue\n      dup1\n      iszero\n      tag_15\n      jumpi\n      0x00\n      dup1\n      revert\n    tag_15:\n      pop\n      tag_16\n      tag_17\n      jump\t// in\n    tag_16:\n      mload(0x40)\n      tag_18\n      swap2\n      swap1\n      tag_19\n      jump\t// in\n    tag_18:\n      mload(0x40)\n      dup1\n      swap2\n      sub\n      swap1\n      return\n        /* \"ERC20/token_flat.sol\":8758:8955  function approve(address spender, uint256 amount) public virtual override returns (bool) {... */\n    tag_3:\n      callvalue\n      dup1\n      iszero\n      tag_20\n      jumpi\n      0x00\n      dup1\n      revert\n    tag_20:\n      pop\n      tag_21\n      0x04\n      dup1\n      calldatasize\n      sub\n      dup2\n      add\n      swap1\n      tag_22\n      swap2\n      swap1\n      tag_23\n      jump\t// in\n    tag_22:\n      tag_24\n      jump\t// in\n    tag_21:\n      mload(0x40)\n      tag_25\n      swap2\n      swap1\n      tag_26\n      jump\t// in\n    tag_25:\n      mload(0x40)\n      dup1\n      swap2\n      sub\n      swap1\n      return\n        /* \"ERC20/token_flat.sol\":7569:7675  function totalSupply() public view virtual override returns (uint256) {... */\n    tag_4:\n      callvalue\n      dup1\n      iszero\n      tag_27\n      jumpi\n      0x00\n      dup1\n      revert\n    tag_27:\n      pop\n      tag_28\n      tag_29\n      jump\t// in\n    tag_28:\n      mload(0x40)\n      tag_30\n      swap2\n      swap1\n      tag_31\n      jump\t// in\n    tag_30:\n      mload(0x40)\n      dup1\n      swap2\n      sub\n      swap1\n      return\n        /* \"ERC20/token_flat.sol\":9517:9803  function transferFrom(... */\n    tag_5:\n      callvalue\n      dup1\n      iszero\n      tag_32\n      jumpi\n      0x00\n      dup1\n      revert\n    tag_32:\n      pop\n      tag_33\n      0x04\n      dup1\n      calldatasize\n      sub\n      dup2\n      add\n      swap1\n      tag_34\n      swap2\n      swap1\n      tag_35\n      jump\t// in\n    tag_34:\n      tag_36\n      jump\t// in\n    tag_33:\n      mload(0x40)\n      tag_37\n      swap2\n      swap1\n      tag_26\n      jump\t// in\n    tag_37:\n      mload(0x40)\n      dup1\n      swap2\n      sub\n      swap1\n      return\n        /* \"ERC20/token_flat.sol\":7418:7509  function decimals() public view virtual override returns (uint8) {... */\n    tag_6:\n      callvalue\n      dup1\n      iszero\n      tag_38\n      jumpi\n      0x00\n      dup1\n      revert\n    tag_38:\n      pop\n      tag_39\n      tag_40\n      jump\t// in\n    tag_39:\n      mload(0x40)\n      tag_41\n      swap2\n      swap1\n      tag_42\n      jump\t// in\n    tag_41:\n      mload(0x40)\n      dup1\n      swap2\n      sub\n      swap1\n      return\n        /* \"ERC20/token_flat.sol\":10198:10434  function increaseAllowance(address spender, uint256 addedValue) public virtual returns (bool) {... */\n    tag_7:\n      callvalue\n      dup1\n      iszero\n      tag_43\n      jumpi\n      0x00\n      dup1\n      revert\n    tag_43:\n      pop\n      tag_44\n      0x04\n      dup1\n      calldatasize\n      sub\n      dup2\n      add\n      swap1\n      tag_45\n      swap2\n      swap1\n      tag_23\n      jump\t// in\n    tag_45:\n      tag_46\n      jump\t// in\n    tag_44:\n      mload(0x40)\n      tag_47\n      swap2\n      swap1\n      tag_26\n      jump\t// in\n    tag_47:\n      mload(0x40)\n      dup1\n      swap2\n      sub\n      swap1\n      return\n        /* \"ERC20/token_flat.sol\":7733:7858  function balanceOf(address account) public view virtual override returns (uint256) {... */\n    tag_8:\n      callvalue\n      dup1\n      iszero\n      tag_48\n      jumpi\n      0x00\n      dup1\n      revert\n    tag_48:\n      pop\n      tag_49\n      0x04\n      dup1\n      calldatasize\n      sub\n      dup2\n      add\n      swap1\n      tag_50\n      swap2\n      swap1\n      tag_51\n      jump\t// in\n    tag_50:\n      tag_52\n      jump\t// in\n    tag_49:\n      mload(0x40)\n      tag_53\n      swap2\n      swap1\n      tag_31\n      jump\t// in\n    tag_53:\n      mload(0x40)\n      dup1\n      swap2\n      sub\n      swap1\n      return\n        /* \"ERC20/token_flat.sol\":17248:17561  function buyToken(address receiver) public payable {... */\n    tag_9:\n      tag_54\n      0x04\n      dup1\n      calldatasize\n      sub\n      dup2\n      add\n      swap1\n      tag_55\n      swap2\n      swap1\n      tag_51\n      jump\t// in\n    tag_55:\n      tag_56\n      jump\t// in\n    tag_54:\n      stop\n        /* \"ERC20/token_flat.sol\":6692:6794  function symbol() public view virtual override returns (string memory) {... */\n    tag_10:\n      callvalue\n      dup1\n      iszero\n      tag_57\n      jumpi\n      0x00\n      dup1\n      revert\n    tag_57:\n      pop\n      tag_58\n      tag_59\n      jump\t// in\n    tag_58:\n      mload(0x40)\n      tag_60\n      swap2\n      swap1\n      tag_19\n      jump\t// in\n    tag_60:\n      mload(0x40)\n      dup1\n      swap2\n      sub\n      swap1\n      return\n        /* \"ERC20/token_flat.sol\":10921:11350  function decreaseAllowance(address spender, uint256 subtractedValue) public virtual returns (bool) {... */\n    tag_11:\n      callvalue\n      dup1\n      iszero\n      tag_61\n      jumpi\n      0x00\n      dup1\n      revert\n    tag_61:\n      pop\n      tag_62\n      0x04\n      dup1\n      calldatasize\n      sub\n      dup2\n      add\n      swap1\n      tag_63\n      swap2\n      swap1\n      tag_23\n      jump\t// in\n    tag_63:\n      tag_64\n      jump\t// in\n    tag_62:\n      mload(0x40)\n      tag_65\n      swap2\n      swap1\n      tag_26\n      jump\t// in\n    tag_65:\n      mload(0x40)\n      dup1\n      swap2\n      sub\n      swap1\n      return\n        /* \"ERC20/token_flat.sol\":8054:8243  function transfer(address to, uint256 amount) public virtual override returns (bool) {... */\n    tag_12:\n      callvalue\n      dup1\n      iszero\n      tag_66\n      jumpi\n      0x00\n      dup1\n      revert\n    tag_66:\n      pop\n      tag_67\n      0x04\n      dup1\n      calldatasize\n      sub\n      dup2\n      add\n      swap1\n      tag_68\n      swap2\n      swap1\n      tag_23\n      jump\t// in\n    tag_68:\n      tag_69\n      jump\t// in\n    tag_67:\n      mload(0x40)\n      tag_70\n      swap2\n      swap1\n      tag_26\n      jump\t// in\n    tag_70:\n      mload(0x40)\n      dup1\n      swap2\n      sub\n      swap1\n      return\n        /* \"ERC20/token_flat.sol\":8301:8450  function allowance(address owner, address spender) public view virtual override returns (uint256) {... */\n    tag_13:\n      callvalue\n      dup1\n      iszero\n      tag_71\n      jumpi\n      0x00\n      dup1\n      revert\n    tag_71:\n      pop\n      tag_72\n      0x04\n      dup1\n      calldatasize\n      sub\n      dup2\n      add\n      swap1\n      tag_73\n      swap2\n      swap1\n      tag_74\n      jump\t// in\n    tag_73:\n      tag_75\n      jump\t// in\n    tag_72:\n      mload(0x40)\n      tag_76\n      swap2\n      swap1\n      tag_31\n      jump\t// in\n    tag_76:\n      mload(0x40)\n      dup1\n      swap2\n      sub\n      swap1\n      return\n        /* \"ERC20/token_flat.sol\":6481:6579  function name() public view virtual override returns (string memory) {... */\n    tag_17:\n        /* \"ERC20/token_flat.sol\":6535:6548  string memory */\n      0x60\n        /* \"ERC20/token_flat.sol\":6567:6572  _name */\n      0x03\n        /* \"ERC20/token_flat.sol\":6560:6572  return _name */\n      dup1\n      sload\n      tag_78\n      swap1\n      tag_79\n      jump\t// in\n    tag_78:\n      dup1\n      0x1f\n      add\n      0x20\n      dup1\n      swap2\n      div\n      mul\n      0x20\n      add\n      mload(0x40)\n      swap1\n      dup2\n      add\n      0x40\n      mstore\n      dup1\n      swap3\n      swap2\n      swap1\n      dup2\n      dup2\n      mstore\n      0x20\n      add\n      dup3\n      dup1\n      sload\n      tag_80\n      swap1\n      tag_79\n      jump\t// in\n    tag_80:\n      dup1\n      iszero\n      tag_81\n      jumpi\n      dup1\n      0x1f\n      lt\n      tag_82\n      jumpi\n      0x0100\n      dup1\n      dup4\n      sload\n      div\n      mul\n      dup4\n      mstore\n      swap2\n      0x20\n      add\n      swap2\n      jump(tag_81)\n    tag_82:\n      dup3\n      add\n      swap2\n      swap1\n      0x00\n      mstore\n      keccak256(0x00, 0x20)\n      swap1\n    tag_83:\n      dup2\n      sload\n      dup2\n      mstore\n      swap1\n      0x01\n      add\n      swap1\n      0x20\n      add\n      dup1\n      dup4\n      gt\n      tag_83\n      jumpi\n      dup3\n      swap1\n      sub\n      0x1f\n      and\n      dup3\n      add\n      swap2\n    tag_81:\n      pop\n      pop\n      pop\n      pop\n      pop\n      swap1\n      pop\n        /* \"ERC20/token_flat.sol\":6481:6579  function name() public view virtual override returns (string memory) {... */\n      swap1\n      jump\t// out\n        /* \"ERC20/token_flat.sol\":8758:8955  function approve(address spender, uint256 amount) public virtual override returns (bool) {... */\n    tag_24:\n        /* \"ERC20/token_flat.sol\":8841:8845  bool */\n      0x00\n        /* \"ERC20/token_flat.sol\":8857:8870  address owner */\n      dup1\n        /* \"ERC20/token_flat.sol\":8873:8885  _msgSender() */\n      tag_85\n        /* \"ERC20/token_flat.sol\":8873:8883  _msgSender */\n      tag_86\n        /* \"ERC20/token_flat.sol\":8873:8885  _msgSender() */\n      jump\t// in\n    tag_85:\n        /* \"ERC20/token_flat.sol\":8857:8885  address owner = _msgSender() */\n      swap1\n      pop\n        /* \"ERC20/token_flat.sol\":8895:8927  _approve(owner, spender, amount) */\n      tag_87\n        /* \"ERC20/token_flat.sol\":8904:8909  owner */\n      dup2\n        /* \"ERC20/token_flat.sol\":8911:8918  spender */\n      dup6\n        /* \"ERC20/token_flat.sol\":8920:8926  amount */\n      dup6\n        /* \"ERC20/token_flat.sol\":8895:8903  _approve */\n      tag_88\n        /* \"ERC20/token_flat.sol\":8895:8927  _approve(owner, spender, amount) */\n      jump\t// in\n    tag_87:\n        /* \"ERC20/token_flat.sol\":8944:8948  true */\n      0x01\n        /* \"ERC20/token_flat.sol\":8937:8948  return true */\n      swap2\n      pop\n      pop\n        /* \"ERC20/token_flat.sol\":8758:8955  function approve(address spender, uint256 amount) public virtual override returns (bool) {... */\n      swap3\n      swap2\n      pop\n      pop\n      jump\t// out\n        /* \"ERC20/token_flat.sol\":7569:7675  function totalSupply() public view virtual override returns (uint256) {... */\n    tag_29:\n        /* \"ERC20/token_flat.sol\":7630:7637  uint256 */\n      0x00\n        /* \"ERC20/token_flat.sol\":7656:7668  _totalSupply */\n      sload(0x02)\n        /* \"ERC20/token_flat.sol\":7649:7668  return _totalSupply */\n      swap1\n      pop\n        /* \"ERC20/token_flat.sol\":7569:7675  function totalSupply() public view virtual override returns (uint256) {... */\n      swap1\n      jump\t// out\n        /* \"ERC20/token_flat.sol\":9517:9803  function transferFrom(... */\n    tag_36:\n        /* \"ERC20/token_flat.sol\":9644:9648  bool */\n      0x00\n        /* \"ERC20/token_flat.sol\":9660:9675  address spender */\n      dup1\n        /* \"ERC20/token_flat.sol\":9678:9690  _msgSender() */\n      tag_91\n        /* \"ERC20/token_flat.sol\":9678:9688  _msgSender */\n      tag_86\n        /* \"ERC20/token_flat.sol\":9678:9690  _msgSender() */\n      jump\t// in\n    tag_91:\n        /* \"ERC20/token_flat.sol\":9660:9690  address spender = _msgSender() */\n      swap1\n      pop\n        /* \"ERC20/token_flat.sol\":9700:9738  _spendAllowance(from, spender, amount) */\n      tag_92\n        /* \"ERC20/token_flat.sol\":9716:9720  from */\n      dup6\n        /* \"ERC20/token_flat.sol\":9722:9729  spender */\n      dup3\n        /* \"ERC20/token_flat.sol\":9731:9737  amount */\n      dup6\n        /* \"ERC20/token_flat.sol\":9700:9715  _spendAllowance */\n      tag_93\n        /* \"ERC20/token_flat.sol\":9700:9738  _spendAllowance(from, spender, amount) */\n      jump\t// in\n    tag_92:\n        /* \"ERC20/token_flat.sol\":9748:9775  _transfer(from, to, amount) */\n      tag_94\n        /* \"ERC20/token_flat.sol\":9758:9762  from */\n      dup6\n        /* \"ERC20/token_flat.sol\":9764:9766  to */\n      dup6\n        /* \"ERC20/token_flat.sol\":9768:9774  amount */\n      dup6\n        /* \"ERC20/token_flat.sol\":9748:9757  _transfer */\n      tag_95\n        /* \"ERC20/token_flat.sol\":9748:9775  _transfer(from, to, amount) */\n      jump\t// in\n    tag_94:\n        /* \"ERC20/token_flat.sol\":9792:9796  true */\n      0x01\n        /* \"ERC20/token_flat.sol\":9785:9796  return true */\n      swap2\n      pop\n      pop\n        /* \"ERC20/token_flat.sol\":9517:9803  function transferFrom(... */\n      swap4\n      swap3\n      pop\n      pop\n      pop\n      jump\t// out\n        /* \"ERC20/token_flat.sol\":7418:7509  function decimals() public view virtual override returns (uint8) {... */\n    tag_40:\n        /* \"ERC20/token_flat.sol\":7476:7481  uint8 */\n      0x00\n        /* \"ERC20/token_flat.sol\":7500:7502  18 */\n      0x12\n        /* \"ERC20/token_flat.sol\":7493:7502  return 18 */\n      swap1\n      pop\n        /* \"ERC20/token_flat.sol\":7418:7509  function decimals() public view virtual override returns (uint8) {... */\n      swap1\n      jump\t// out\n        /* \"ERC20/token_flat.sol\":10198:10434  function increaseAllowance(address spender, uint256 addedValue) public virtual returns (bool) {... */\n    tag_46:\n        /* \"ERC20/token_flat.sol\":10286:10290  bool */\n      0x00\n        /* \"ERC20/token_flat.sol\":10302:10315  address owner */\n      dup1\n        /* \"ERC20/token_flat.sol\":10318:10330  _msgSender() */\n      tag_98\n        /* \"ERC20/token_flat.sol\":10318:10328  _msgSender */\n      tag_86\n        /* \"ERC20/token_flat.sol\":10318:10330  _msgSender() */\n      jump\t// in\n    tag_98:\n        /* \"ERC20/token_flat.sol\":10302:10330  address owner = _msgSender() */\n      swap1\n      pop\n        /* \"ERC20/token_flat.sol\":10340:10406  _approve(owner, spender, _allowances[owner][spender] + addedValue) */\n      tag_99\n        /* \"ERC20/token_flat.sol\":10349:10354  owner */\n      dup2\n        /* \"ERC20/token_flat.sol\":10356:10363  spender */\n      dup6\n        /* \"ERC20/token_flat.sol\":10395:10405  addedValue */\n      dup6\n        /* \"ERC20/token_flat.sol\":10365:10376  _allowances */\n      0x01\n        /* \"ERC20/token_flat.sol\":10365:10383  _allowances[owner] */\n      0x00\n        /* \"ERC20/token_flat.sol\":10377:10382  owner */\n      dup7\n        /* \"ERC20/token_flat.sol\":10365:10383  _allowances[owner] */\n      0xffffffffffffffffffffffffffffffffffffffff\n      and\n      0xffffffffffffffffffffffffffffffffffffffff\n      and\n      dup2\n      mstore\n      0x20\n      add\n      swap1\n      dup2\n      mstore\n      0x20\n      add\n      0x00\n      keccak256\n        /* \"ERC20/token_flat.sol\":10365:10392  _allowances[owner][spender] */\n      0x00\n        /* \"ERC20/token_flat.sol\":10384:10391  spender */\n      dup10\n        /* \"ERC20/token_flat.sol\":10365:10392  _allowances[owner][spender] */\n      0xffffffffffffffffffffffffffffffffffffffff\n      and\n      0xffffffffffffffffffffffffffffffffffffffff\n      and\n      dup2\n      mstore\n      0x20\n      add\n      swap1\n      dup2\n      mstore\n      0x20\n      add\n      0x00\n      keccak256\n      sload\n        /* \"ERC20/token_flat.sol\":10365:10405  _allowances[owner][spender] + addedValue */\n      tag_100\n      swap2\n      swap1\n      tag_101\n      jump\t// in\n    tag_100:\n        /* \"ERC20/token_flat.sol\":10340:10348  _approve */\n      tag_88\n        /* \"ERC20/token_flat.sol\":10340:10406  _approve(owner, spender, _allowances[owner][spender] + addedValue) */\n      jump\t// in\n    tag_99:\n        /* \"ERC20/token_flat.sol\":10423:10427  true */\n      0x01\n        /* \"ERC20/token_flat.sol\":10416:10427  return true */\n      swap2\n      pop\n      pop\n        /* \"ERC20/token_flat.sol\":10198:10434  function increaseAllowance(address spender, uint256 addedValue) public virtual returns (bool) {... */\n      swap3\n      swap2\n      pop\n      pop\n      jump\t// out\n        /* \"ERC20/token_flat.sol\":7733:7858  function balanceOf(address account) public view virtual override returns (uint256) {... */\n    tag_52:\n        /* \"ERC20/token_flat.sol\":7807:7814  uint256 */\n      0x00\n        /* \"ERC20/token_flat.sol\":7833:7842  _balances */\n      dup1\n        /* \"ERC20/token_flat.sol\":7833:7851  _balances[account] */\n      0x00\n        /* \"ERC20/token_flat.sol\":7843:7850  account */\n      dup4\n        /* \"ERC20/token_flat.sol\":7833:7851  _balances[account] */\n      0xffffffffffffffffffffffffffffffffffffffff\n      and\n      0xffffffffffffffffffffffffffffffffffffffff\n      and\n      dup2\n      mstore\n      0x20\n      add\n      swap1\n      dup2\n      mstore\n      0x20\n      add\n      0x00\n      keccak256\n      sload\n        /* \"ERC20/token_flat.sol\":7826:7851  return _balances[account] */\n      swap1\n      pop\n        /* \"ERC20/token_flat.sol\":7733:7858  function balanceOf(address account) public view virtual override returns (uint256) {... */\n      swap2\n      swap1\n      pop\n      jump\t// out\n        /* \"ERC20/token_flat.sol\":17248:17561  function buyToken(address receiver) public payable {... */\n    tag_56:\n        /* \"ERC20/token_flat.sol\":17330:17331  0 */\n      0x00\n        /* \"ERC20/token_flat.sol\":17318:17327  msg.value */\n      callvalue\n        /* \"ERC20/token_flat.sol\":17318:17331  msg.value > 0 */\n      gt\n        /* \"ERC20/token_flat.sol\":17309:17376  require (msg.value > 0, \"You need more money for this transaction\") */\n      tag_104\n      jumpi\n      mload(0x40)\n      0x08c379a000000000000000000000000000000000000000000000000000000000\n      dup2\n      mstore\n      0x04\n      add\n      tag_105\n      swap1\n      tag_106\n      jump\t// in\n    tag_105:\n      mload(0x40)\n      dup1\n      swap2\n      sub\n      swap1\n      revert\n    tag_104:\n        /* \"ERC20/token_flat.sol\":17386:17402  uint amountToBuy */\n      0x00\n        /* \"ERC20/token_flat.sol\":17417:17421  rate */\n      sload(0x05)\n        /* \"ERC20/token_flat.sol\":17405:17414  msg.value */\n      callvalue\n        /* \"ERC20/token_flat.sol\":17405:17421  msg.value * rate */\n      tag_107\n      swap2\n      swap1\n      tag_108\n      jump\t// in\n    tag_107:\n        /* \"ERC20/token_flat.sol\":17386:17421  uint amountToBuy = msg.value * rate */\n      swap1\n      pop\n        /* \"ERC20/token_flat.sol\":17472:17483  amountToBuy */\n      dup1\n        /* \"ERC20/token_flat.sol\":17456:17469  totalSupply() */\n      tag_109\n        /* \"ERC20/token_flat.sol\":17456:17467  totalSupply */\n      tag_29\n        /* \"ERC20/token_flat.sol\":17456:17469  totalSupply() */\n      jump\t// in\n    tag_109:\n        /* \"ERC20/token_flat.sol\":17456:17483  totalSupply() + amountToBuy */\n      tag_110\n      swap2\n      swap1\n      tag_101\n      jump\t// in\n    tag_110:\n        /* \"ERC20/token_flat.sol\":17440:17451  FixedSupply */\n      sload(0x06)\n        /* \"ERC20/token_flat.sol\":17440:17484  FixedSupply >= (totalSupply() + amountToBuy) */\n      lt\n      iszero\n        /* \"ERC20/token_flat.sol\":17431:17516  require (FixedSupply >= (totalSupply() + amountToBuy), \"Cannot Exceed Fixed Supply\" ) */\n      tag_111\n      jumpi\n      mload(0x40)\n      0x08c379a000000000000000000000000000000000000000000000000000000000\n      dup2\n      mstore\n      0x04\n      add\n      tag_112\n      swap1\n      tag_113\n      jump\t// in\n    tag_112:\n      mload(0x40)\n      dup1\n      swap2\n      sub\n      swap1\n      revert\n    tag_111:\n        /* \"ERC20/token_flat.sol\":17526:17554  _mint(receiver, amountToBuy) */\n      tag_114\n        /* \"ERC20/token_flat.sol\":17532:17540  receiver */\n      dup3\n        /* \"ERC20/token_flat.sol\":17542:17553  amountToBuy */\n      dup3\n        /* \"ERC20/token_flat.sol\":17526:17531  _mint */\n      tag_115\n        /* \"ERC20/token_flat.sol\":17526:17554  _mint(receiver, amountToBuy) */\n      jump\t// in\n    tag_114:\n        /* \"ERC20/token_flat.sol\":17299:17561  {... */\n      pop\n        /* \"ERC20/token_flat.sol\":17248:17561  function buyToken(address receiver) public payable {... */\n      pop\n      jump\t// out\n        /* \"ERC20/token_flat.sol\":6692:6794  function symbol() public view virtual override returns (string memory) {... */\n    tag_59:\n        /* \"ERC20/token_flat.sol\":6748:6761  string memory */\n      0x60\n        /* \"ERC20/token_flat.sol\":6780:6787  _symbol */\n      0x04\n        /* \"ERC20/token_flat.sol\":6773:6787  return _symbol */\n      dup1\n      sload\n      tag_117\n      swap1\n      tag_79\n      jump\t// in\n    tag_117:\n      dup1\n      0x1f\n      add\n      0x20\n      dup1\n      swap2\n      div\n      mul\n      0x20\n      add\n      mload(0x40)\n      swap1\n      dup2\n      add\n      0x40\n      mstore\n      dup1\n      swap3\n      swap2\n      swap1\n      dup2\n      dup2\n      mstore\n      0x20\n      add\n      dup3\n      dup1\n      sload\n      tag_118\n      swap1\n      tag_79\n      jump\t// in\n    tag_118:\n      dup1\n      iszero\n      tag_119\n      jumpi\n      dup1\n      0x1f\n      lt\n      tag_120\n      jumpi\n      0x0100\n      dup1\n      dup4\n      sload\n      div\n      mul\n      dup4\n      mstore\n      swap2\n      0x20\n      add\n      swap2\n      jump(tag_119)\n    tag_120:\n      dup3\n      add\n      swap2\n      swap1\n      0x00\n      mstore\n      keccak256(0x00, 0x20)\n      swap1\n    tag_121:\n      dup2\n      sload\n      dup2\n      mstore\n      swap1\n      0x01\n      add\n      swap1\n      0x20\n      add\n      dup1\n      dup4\n      gt\n      tag_121\n      jumpi\n      dup3\n      swap1\n      sub\n      0x1f\n      and\n      dup3\n      add\n      swap2\n    tag_119:\n      pop\n      pop\n      pop\n      pop\n      pop\n      swap1\n      pop\n        /* \"ERC20/token_flat.sol\":6692:6794  function symbol() public view virtual override returns (string memory) {... */\n      swap1\n      jump\t// out\n        /* \"ERC20/token_flat.sol\":10921:11350  function decreaseAllowance(address spender, uint256 subtractedValue) public virtual returns (bool) {... */\n    tag_64:\n        /* \"ERC20/token_flat.sol\":11014:11018  bool */\n      0x00\n        /* \"ERC20/token_flat.sol\":11030:11043  address owner */\n      dup1\n        /* \"ERC20/token_flat.sol\":11046:11058  _msgSender() */\n      tag_123\n        /* \"ERC20/token_flat.sol\":11046:11056  _msgSender */\n      tag_86\n        /* \"ERC20/token_flat.sol\":11046:11058  _msgSender() */\n      jump\t// in\n    tag_123:\n        /* \"ERC20/token_flat.sol\":11030:11058  address owner = _msgSender() */\n      swap1\n      pop\n        /* \"ERC20/token_flat.sol\":11068:11092  uint256 currentAllowance */\n      0x00\n        /* \"ERC20/token_flat.sol\":11095:11106  _allowances */\n      0x01\n        /* \"ERC20/token_flat.sol\":11095:11113  _allowances[owner] */\n      0x00\n        /* \"ERC20/token_flat.sol\":11107:11112  owner */\n      dup4\n        /* \"ERC20/token_flat.sol\":11095:11113  _allowances[owner] */\n      0xffffffffffffffffffffffffffffffffffffffff\n      and\n      0xffffffffffffffffffffffffffffffffffffffff\n      and\n      dup2\n      mstore\n      0x20\n      add\n      swap1\n      dup2\n      mstore\n      0x20\n      add\n      0x00\n      keccak256\n        /* \"ERC20/token_flat.sol\":11095:11122  _allowances[owner][spender] */\n      0x00\n        /* \"ERC20/token_flat.sol\":11114:11121  spender */\n      dup7\n        /* \"ERC20/token_flat.sol\":11095:11122  _allowances[owner][spender] */\n      0xffffffffffffffffffffffffffffffffffffffff\n      and\n      0xffffffffffffffffffffffffffffffffffffffff\n      and\n      dup2\n      mstore\n      0x20\n      add\n      swap1\n      dup2\n      mstore\n      0x20\n      add\n      0x00\n      keccak256\n      sload\n        /* \"ERC20/token_flat.sol\":11068:11122  uint256 currentAllowance = _allowances[owner][spender] */\n      swap1\n      pop\n        /* \"ERC20/token_flat.sol\":11160:11175  subtractedValue */\n      dup4\n        /* \"ERC20/token_flat.sol\":11140:11156  currentAllowance */\n      dup2\n        /* \"ERC20/token_flat.sol\":11140:11175  currentAllowance >= subtractedValue */\n      lt\n      iszero\n        /* \"ERC20/token_flat.sol\":11132:11217  require(currentAllowance >= subtractedValue, \"ERC20: decreased allowance below zero\") */\n      tag_124\n      jumpi\n      mload(0x40)\n      0x08c379a000000000000000000000000000000000000000000000000000000000\n      dup2\n      mstore\n      0x04\n      add\n      tag_125\n      swap1\n      tag_126\n      jump\t// in\n    tag_125:\n      mload(0x40)\n      dup1\n      swap2\n      sub\n      swap1\n      revert\n    tag_124:\n        /* \"ERC20/token_flat.sol\":11251:11311  _approve(owner, spender, currentAllowance - subtractedValue) */\n      tag_127\n        /* \"ERC20/token_flat.sol\":11260:11265  owner */\n      dup3\n        /* \"ERC20/token_flat.sol\":11267:11274  spender */\n      dup7\n        /* \"ERC20/token_flat.sol\":11295:11310  subtractedValue */\n      dup7\n        /* \"ERC20/token_flat.sol\":11276:11292  currentAllowance */\n      dup5\n        /* \"ERC20/token_flat.sol\":11276:11310  currentAllowance - subtractedValue */\n      sub\n        /* \"ERC20/token_flat.sol\":11251:11259  _approve */\n      tag_88\n        /* \"ERC20/token_flat.sol\":11251:11311  _approve(owner, spender, currentAllowance - subtractedValue) */\n      jump\t// in\n    tag_127:\n        /* \"ERC20/token_flat.sol\":11339:11343  true */\n      0x01\n        /* \"ERC20/token_flat.sol\":11332:11343  return true */\n      swap3\n      pop\n      pop\n      pop\n        /* \"ERC20/token_flat.sol\":10921:11350  function decreaseAllowance(address spender, uint256 subtractedValue) public virtual returns (bool) {... */\n      swap3\n      swap2\n      pop\n      pop\n      jump\t// out\n        /* \"ERC20/token_flat.sol\":8054:8243  function transfer(address to, uint256 amount) public virtual override returns (bool) {... */\n    tag_69:\n        /* \"ERC20/token_flat.sol\":8133:8137  bool */\n      0x00\n        /* \"ERC20/token_flat.sol\":8149:8162  address owner */\n      dup1\n        /* \"ERC20/token_flat.sol\":8165:8177  _msgSender() */\n      tag_129\n        /* \"ERC20/token_flat.sol\":8165:8175  _msgSender */\n      tag_86\n        /* \"ERC20/token_flat.sol\":8165:8177  _msgSender() */\n      jump\t// in\n    tag_129:\n        /* \"ERC20/token_flat.sol\":8149:8177  address owner = _msgSender() */\n      swap1\n      pop\n        /* \"ERC20/token_flat.sol\":8187:8215  _transfer(owner, to, amount) */\n      tag_130\n        /* \"ERC20/token_flat.sol\":8197:8202  owner */\n      dup2\n        /* \"ERC20/token_flat.sol\":8204:8206  to */\n      dup6\n        /* \"ERC20/token_flat.sol\":8208:8214  amount */\n      dup6\n        /* \"ERC20/token_flat.sol\":8187:8196  _transfer */\n      tag_95\n        /* \"ERC20/token_flat.sol\":8187:8215  _transfer(owner, to, amount) */\n      jump\t// in\n    tag_130:\n        /* \"ERC20/token_flat.sol\":8232:8236  true */\n      0x01\n        /* \"ERC20/token_flat.sol\":8225:8236  return true */\n      swap2\n      pop\n      pop\n        /* \"ERC20/token_flat.sol\":8054:8243  function transfer(address to, uint256 amount) public virtual override returns (bool) {... */\n      swap3\n      swap2\n      pop\n      pop\n      jump\t// out\n        /* \"ERC20/token_flat.sol\":8301:8450  function allowance(address owner, address spender) public view virtual override returns (uint256) {... */\n    tag_75:\n        /* \"ERC20/token_flat.sol\":8390:8397  uint256 */\n      0x00\n        /* \"ERC20/token_flat.sol\":8416:8427  _allowances */\n      0x01\n        /* \"ERC20/token_flat.sol\":8416:8434  _allowances[owner] */\n      0x00\n        /* \"ERC20/token_flat.sol\":8428:8433  owner */\n      dup5\n        /* \"ERC20/token_flat.sol\":8416:8434  _allowances[owner] */\n      0xffffffffffffffffffffffffffffffffffffffff\n      and\n      0xffffffffffffffffffffffffffffffffffffffff\n      and\n      dup2\n      mstore\n      0x20\n      add\n      swap1\n      dup2\n      mstore\n      0x20\n      add\n      0x00\n      keccak256\n        /* \"ERC20/token_flat.sol\":8416:8443  _allowances[owner][spender] */\n      0x00\n        /* \"ERC20/token_flat.sol\":8435:8442  spender */\n      dup4\n        /* \"ERC20/token_flat.sol\":8416:8443  _allowances[owner][spender] */\n      0xffffffffffffffffffffffffffffffffffffffff\n      and\n      0xffffffffffffffffffffffffffffffffffffffff\n      and\n      dup2\n      mstore\n      0x20\n      add\n      swap1\n      dup2\n      mstore\n      0x20\n      add\n      0x00\n      keccak256\n      sload\n        /* \"ERC20/token_flat.sol\":8409:8443  return _allowances[owner][spender] */\n      swap1\n      pop\n        /* \"ERC20/token_flat.sol\":8301:8450  function allowance(address owner, address spender) public view virtual override returns (uint256) {... */\n      swap3\n      swap2\n      pop\n      pop\n      jump\t// out\n        /* \"ERC20/token_flat.sol\":693:789  function _msgSender() internal view virtual returns (address) {... */\n    tag_86:\n        /* \"ERC20/token_flat.sol\":746:753  address */\n      0x00\n        /* \"ERC20/token_flat.sol\":772:782  msg.sender */\n      caller\n        /* \"ERC20/token_flat.sol\":765:782  return msg.sender */\n      swap1\n      pop\n        /* \"ERC20/token_flat.sol\":693:789  function _msgSender() internal view virtual returns (address) {... */\n      swap1\n      jump\t// out\n        /* \"ERC20/token_flat.sol\":14448:14818  function _approve(... */\n    tag_88:\n        /* \"ERC20/token_flat.sol\":14596:14597  0 */\n      0x00\n        /* \"ERC20/token_flat.sol\":14579:14598  owner != address(0) */\n      0xffffffffffffffffffffffffffffffffffffffff\n      and\n        /* \"ERC20/token_flat.sol\":14579:14584  owner */\n      dup4\n        /* \"ERC20/token_flat.sol\":14579:14598  owner != address(0) */\n      0xffffffffffffffffffffffffffffffffffffffff\n      and\n      sub\n        /* \"ERC20/token_flat.sol\":14571:14639  require(owner != address(0), \"ERC20: approve from the zero address\") */\n      tag_134\n      jumpi\n      mload(0x40)\n      0x08c379a000000000000000000000000000000000000000000000000000000000\n      dup2\n      mstore\n      0x04\n      add\n      tag_135\n      swap1\n      tag_136\n      jump\t// in\n    tag_135:\n      mload(0x40)\n      dup1\n      swap2\n      sub\n      swap1\n      revert\n    tag_134:\n        /* \"ERC20/token_flat.sol\":14676:14677  0 */\n      0x00\n        /* \"ERC20/token_flat.sol\":14657:14678  spender != address(0) */\n      0xffffffffffffffffffffffffffffffffffffffff\n      and\n        /* \"ERC20/token_flat.sol\":14657:14664  spender */\n      dup3\n        /* \"ERC20/token_flat.sol\":14657:14678  spender != address(0) */\n      0xffffffffffffffffffffffffffffffffffffffff\n      and\n      sub\n        /* \"ERC20/token_flat.sol\":14649:14717  require(spender != address(0), \"ERC20: approve to the zero address\") */\n      tag_137\n      jumpi\n      mload(0x40)\n      0x08c379a000000000000000000000000000000000000000000000000000000000\n      dup2\n      mstore\n      0x04\n      add\n      tag_138\n      swap1\n      tag_139\n      jump\t// in\n    tag_138:\n      mload(0x40)\n      dup1\n      swap2\n      sub\n      swap1\n      revert\n    tag_137:\n        /* \"ERC20/token_flat.sol\":14758:14764  amount */\n      dup1\n        /* \"ERC20/token_flat.sol\":14728:14739  _allowances */\n      0x01\n        /* \"ERC20/token_flat.sol\":14728:14746  _allowances[owner] */\n      0x00\n        /* \"ERC20/token_flat.sol\":14740:14745  owner */\n      dup6\n        /* \"ERC20/token_flat.sol\":14728:14746  _allowances[owner] */\n      0xffffffffffffffffffffffffffffffffffffffff\n      and\n      0xffffffffffffffffffffffffffffffffffffffff\n      and\n      dup2\n      mstore\n      0x20\n      add\n      swap1\n      dup2\n      mstore\n      0x20\n      add\n      0x00\n      keccak256\n        /* \"ERC20/token_flat.sol\":14728:14755  _allowances[owner][spender] */\n      0x00\n        /* \"ERC20/token_flat.sol\":14747:14754  spender */\n      dup5\n        /* \"ERC20/token_flat.sol\":14728:14755  _allowances[owner][spender] */\n      0xffffffffffffffffffffffffffffffffffffffff\n      and\n      0xffffffffffffffffffffffffffffffffffffffff\n      and\n      dup2\n      mstore\n      0x20\n      add\n      swap1\n      dup2\n      mstore\n      0x20\n      add\n      0x00\n      keccak256\n        /* \"ERC20/token_flat.sol\":14728:14764  _allowances[owner][spender] = amount */\n      dup2\n      swap1\n      sstore\n      pop\n        /* \"ERC20/token_flat.sol\":14795:14802  spender */\n      dup2\n        /* \"ERC20/token_flat.sol\":14779:14811  Approval(owner, spender, amount) */\n      0xffffffffffffffffffffffffffffffffffffffff\n      and\n        /* \"ERC20/token_flat.sol\":14788:14793  owner */\n      dup4\n        /* \"ERC20/token_flat.sol\":14779:14811  Approval(owner, spender, amount) */\n      0xffffffffffffffffffffffffffffffffffffffff\n      and\n      0x8c5be1e5ebec7d5bd14f71427d1e84f3dd0314c0f7b2291e5b200ac8c7c3b925\n        /* \"ERC20/token_flat.sol\":14804:14810  amount */\n      dup4\n        /* \"ERC20/token_flat.sol\":14779:14811  Approval(owner, spender, amount) */\n      mload(0x40)\n      tag_140\n      swap2\n      swap1\n      tag_31\n      jump\t// in\n    tag_140:\n      mload(0x40)\n      dup1\n      swap2\n      sub\n      swap1\n      log3\n        /* \"ERC20/token_flat.sol\":14448:14818  function _approve(... */\n      pop\n      pop\n      pop\n      jump\t// out\n        /* \"ERC20/token_flat.sol\":15095:15536  function _spendAllowance(... */\n    tag_93:\n        /* \"ERC20/token_flat.sol\":15225:15249  uint256 currentAllowance */\n      0x00\n        /* \"ERC20/token_flat.sol\":15252:15277  allowance(owner, spender) */\n      tag_142\n        /* \"ERC20/token_flat.sol\":15262:15267  owner */\n      dup5\n        /* \"ERC20/token_flat.sol\":15269:15276  spender */\n      dup5\n        /* \"ERC20/token_flat.sol\":15252:15261  allowance */\n      tag_75\n        /* \"ERC20/token_flat.sol\":15252:15277  allowance(owner, spender) */\n      jump\t// in\n    tag_142:\n        /* \"ERC20/token_flat.sol\":15225:15277  uint256 currentAllowance = allowance(owner, spender) */\n      swap1\n      pop\n        /* \"ERC20/token_flat.sol\":15311:15328  type(uint256).max */\n      0xffffffffffffffffffffffffffffffffffffffffffffffffffffffffffffffff\n        /* \"ERC20/token_flat.sol\":15291:15307  currentAllowance */\n      dup2\n        /* \"ERC20/token_flat.sol\":15291:15328  currentAllowance != type(uint256).max */\n      eq\n        /* \"ERC20/token_flat.sol\":15287:15530  if (currentAllowance != type(uint256).max) {... */\n      tag_143\n      jumpi\n        /* \"ERC20/token_flat.sol\":15372:15378  amount */\n      dup2\n        /* \"ERC20/token_flat.sol\":15352:15368  currentAllowance */\n      dup2\n        /* \"ERC20/token_flat.sol\":15352:15378  currentAllowance >= amount */\n      lt\n      iszero\n        /* \"ERC20/token_flat.sol\":15344:15412  require(currentAllowance >= amount, \"ERC20: insufficient allowance\") */\n      tag_144\n      jumpi\n      mload(0x40)\n      0x08c379a000000000000000000000000000000000000000000000000000000000\n      dup2\n      mstore\n      0x04\n      add\n      tag_145\n      swap1\n      tag_146\n      jump\t// in\n    tag_145:\n      mload(0x40)\n      dup1\n      swap2\n      sub\n      swap1\n      revert\n    tag_144:\n        /* \"ERC20/token_flat.sol\":15454:15505  _approve(owner, spender, currentAllowance - amount) */\n      tag_147\n        /* \"ERC20/token_flat.sol\":15463:15468  owner */\n      dup5\n        /* \"ERC20/token_flat.sol\":15470:15477  spender */\n      dup5\n        /* \"ERC20/token_flat.sol\":15498:15504  amount */\n      dup5\n        /* \"ERC20/token_flat.sol\":15479:15495  currentAllowance */\n      dup5\n        /* \"ERC20/token_flat.sol\":15479:15504  currentAllowance - amount */\n      sub\n        /* \"ERC20/token_flat.sol\":15454:15462  _approve */\n      tag_88\n        /* \"ERC20/token_flat.sol\":15454:15505  _approve(owner, spender, currentAllowance - amount) */\n      jump\t// in\n    tag_147:\n        /* \"ERC20/token_flat.sol\":15287:15530  if (currentAllowance != type(uint256).max) {... */\n    tag_143:\n        /* \"ERC20/token_flat.sol\":15215:15536  {... */\n      pop\n        /* \"ERC20/token_flat.sol\":15095:15536  function _spendAllowance(... */\n      pop\n      pop\n      pop\n      jump\t// out\n        /* \"ERC20/token_flat.sol\":11813:12464  function _transfer(... */\n    tag_95:\n        /* \"ERC20/token_flat.sol\":11955:11956  0 */\n      0x00\n        /* \"ERC20/token_flat.sol\":11939:11957  from != address(0) */\n      0xffffffffffffffffffffffffffffffffffffffff\n      and\n        /* \"ERC20/token_flat.sol\":11939:11943  from */\n      dup4\n        /* \"ERC20/token_flat.sol\":11939:11957  from != address(0) */\n      0xffffffffffffffffffffffffffffffffffffffff\n      and\n      sub\n        /* \"ERC20/token_flat.sol\":11931:11999  require(from != address(0), \"ERC20: transfer from the zero address\") */\n      tag_149\n      jumpi\n      mload(0x40)\n      0x08c379a000000000000000000000000000000000000000000000000000000000\n      dup2\n      mstore\n      0x04\n      add\n      tag_150\n      swap1\n      tag_151\n      jump\t// in\n    tag_150:\n      mload(0x40)\n      dup1\n      swap2\n      sub\n      swap1\n      revert\n    tag_149:\n        /* \"ERC20/token_flat.sol\":12031:12032  0 */\n      0x00\n        /* \"ERC20/token_flat.sol\":12017:12033  to != address(0) */\n      0xffffffffffffffffffffffffffffffffffffffff\n      and\n        /* \"ERC20/token_flat.sol\":12017:12019  to */\n      dup3\n        /* \"ERC20/token_flat.sol\":12017:12033  to != address(0) */\n      0xffffffffffffffffffffffffffffffffffffffff\n      and\n      sub\n        /* \"ERC20/token_flat.sol\":12009:12073  require(to != address(0), \"ERC20: transfer to the zero address\") */\n      tag_152\n      jumpi\n      mload(0x40)\n      0x08c379a000000000000000000000000000000000000000000000000000000000\n      dup2\n      mstore\n      0x04\n      add\n      tag_153\n      swap1\n      tag_154\n      jump\t// in\n    tag_153:\n      mload(0x40)\n      dup1\n      swap2\n      sub\n      swap1\n      revert\n    tag_152:\n        /* \"ERC20/token_flat.sol\":12084:12122  _beforeTokenTransfer(from, to, amount) */\n      tag_155\n        /* \"ERC20/token_flat.sol\":12105:12109  from */\n      dup4\n        /* \"ERC20/token_flat.sol\":12111:12113  to */\n      dup4\n        /* \"ERC20/token_flat.sol\":12115:12121  amount */\n      dup4\n        /* \"ERC20/token_flat.sol\":12084:12104  _beforeTokenTransfer */\n      tag_156\n        /* \"ERC20/token_flat.sol\":12084:12122  _beforeTokenTransfer(from, to, amount) */\n      jump\t// in\n    tag_155:\n        /* \"ERC20/token_flat.sol\":12133:12152  uint256 fromBalance */\n      0x00\n        /* \"ERC20/token_flat.sol\":12155:12164  _balances */\n      dup1\n        /* \"ERC20/token_flat.sol\":12155:12170  _balances[from] */\n      0x00\n        /* \"ERC20/token_flat.sol\":12165:12169  from */\n      dup6\n        /* \"ERC20/token_flat.sol\":12155:12170  _balances[from] */\n      0xffffffffffffffffffffffffffffffffffffffff\n      and\n      0xffffffffffffffffffffffffffffffffffffffff\n      and\n      dup2\n      mstore\n      0x20\n      add\n      swap1\n      dup2\n      mstore\n      0x20\n      add\n      0x00\n      keccak256\n      sload\n        /* \"ERC20/token_flat.sol\":12133:12170  uint256 fromBalance = _balances[from] */\n      swap1\n      pop\n        /* \"ERC20/token_flat.sol\":12203:12209  amount */\n      dup2\n        /* \"ERC20/token_flat.sol\":12188:12199  fromBalance */\n      dup2\n        /* \"ERC20/token_flat.sol\":12188:12209  fromBalance >= amount */\n      lt\n      iszero\n        /* \"ERC20/token_flat.sol\":12180:12252  require(fromBalance >= amount, \"ERC20: transfer amount exceeds balance\") */\n      tag_157\n      jumpi\n      mload(0x40)\n      0x08c379a000000000000000000000000000000000000000000000000000000000\n      dup2\n      mstore\n      0x04\n      add\n      tag_158\n      swap1\n      tag_159\n      jump\t// in\n    tag_158:\n      mload(0x40)\n      dup1\n      swap2\n      sub\n      swap1\n      revert\n    tag_157:\n        /* \"ERC20/token_flat.sol\":12318:12324  amount */\n      dup2\n        /* \"ERC20/token_flat.sol\":12304:12315  fromBalance */\n      dup2\n        /* \"ERC20/token_flat.sol\":12304:12324  fromBalance - amount */\n      sub\n        /* \"ERC20/token_flat.sol\":12286:12295  _balances */\n      0x00\n        /* \"ERC20/token_flat.sol\":12286:12301  _balances[from] */\n      dup1\n        /* \"ERC20/token_flat.sol\":12296:12300  from */\n      dup7\n        /* \"ERC20/token_flat.sol\":12286:12301  _balances[from] */\n      0xffffffffffffffffffffffffffffffffffffffff\n      and\n      0xffffffffffffffffffffffffffffffffffffffff\n      and\n      dup2\n      mstore\n      0x20\n      add\n      swap1\n      dup2\n      mstore\n      0x20\n      add\n      0x00\n      keccak256\n        /* \"ERC20/token_flat.sol\":12286:12324  _balances[from] = fromBalance - amount */\n      dup2\n      swap1\n      sstore\n      pop\n        /* \"ERC20/token_flat.sol\":12361:12367  amount */\n      dup2\n        /* \"ERC20/token_flat.sol\":12344:12353  _balances */\n      0x00\n        /* \"ERC20/token_flat.sol\":12344:12357  _balances[to] */\n      dup1\n        /* \"ERC20/token_flat.sol\":12354:12356  to */\n      dup6\n        /* \"ERC20/token_flat.sol\":12344:12357  _balances[to] */\n      0xffffffffffffffffffffffffffffffffffffffff\n      and\n      0xffffffffffffffffffffffffffffffffffffffff\n      and\n      dup2\n      mstore\n      0x20\n      add\n      swap1\n      dup2\n      mstore\n      0x20\n      add\n      0x00\n      keccak256\n      0x00\n        /* \"ERC20/token_flat.sol\":12344:12367  _balances[to] += amount */\n      dup3\n      dup3\n      sload\n      tag_160\n      swap2\n      swap1\n      tag_101\n      jump\t// in\n    tag_160:\n      swap3\n      pop\n      pop\n      dup2\n      swap1\n      sstore\n      pop\n        /* \"ERC20/token_flat.sol\":12398:12400  to */\n      dup3\n        /* \"ERC20/token_flat.sol\":12383:12409  Transfer(from, to, amount) */\n      0xffffffffffffffffffffffffffffffffffffffff\n      and\n        /* \"ERC20/token_flat.sol\":12392:12396  from */\n      dup5\n        /* \"ERC20/token_flat.sol\":12383:12409  Transfer(from, to, amount) */\n      0xffffffffffffffffffffffffffffffffffffffff\n      and\n      0xddf252ad1be2c89b69c2b068fc378daa952ba7f163c4a11628f55a4df523b3ef\n        /* \"ERC20/token_flat.sol\":12402:12408  amount */\n      dup5\n        /* \"ERC20/token_flat.sol\":12383:12409  Transfer(from, to, amount) */\n      mload(0x40)\n      tag_161\n      swap2\n      swap1\n      tag_31\n      jump\t// in\n    tag_161:\n      mload(0x40)\n      dup1\n      swap2\n      sub\n      swap1\n      log3\n        /* \"ERC20/token_flat.sol\":12420:12457  _afterTokenTransfer(from, to, amount) */\n      tag_162\n        /* \"ERC20/token_flat.sol\":12440:12444  from */\n      dup5\n        /* \"ERC20/token_flat.sol\":12446:12448  to */\n      dup5\n        /* \"ERC20/token_flat.sol\":12450:12456  amount */\n      dup5\n        /* \"ERC20/token_flat.sol\":12420:12439  _afterTokenTransfer */\n      tag_163\n        /* \"ERC20/token_flat.sol\":12420:12457  _afterTokenTransfer(from, to, amount) */\n      jump\t// in\n    tag_162:\n        /* \"ERC20/token_flat.sol\":11921:12464  {... */\n      pop\n        /* \"ERC20/token_flat.sol\":11813:12464  function _transfer(... */\n      pop\n      pop\n      pop\n      jump\t// out\n        /* \"ERC20/token_flat.sol\":12740:13129  function _mint(address account, uint256 amount) internal virtual {... */\n    tag_115:\n        /* \"ERC20/token_flat.sol\":12842:12843  0 */\n      0x00\n        /* \"ERC20/token_flat.sol\":12823:12844  account != address(0) */\n      0xffffffffffffffffffffffffffffffffffffffff\n      and\n        /* \"ERC20/token_flat.sol\":12823:12830  account */\n      dup3\n        /* \"ERC20/token_flat.sol\":12823:12844  account != address(0) */\n      0xffffffffffffffffffffffffffffffffffffffff\n      and\n      sub\n        /* \"ERC20/token_flat.sol\":12815:12880  require(account != address(0), \"ERC20: mint to the zero address\") */\n      tag_165\n      jumpi\n      mload(0x40)\n      0x08c379a000000000000000000000000000000000000000000000000000000000\n      dup2\n      mstore\n      0x04\n      add\n      tag_166\n      swap1\n      tag_167\n      jump\t// in\n    tag_166:\n      mload(0x40)\n      dup1\n      swap2\n      sub\n      swap1\n      revert\n    tag_165:\n        /* \"ERC20/token_flat.sol\":12891:12940  _beforeTokenTransfer(address(0), account, amount) */\n      tag_168\n        /* \"ERC20/token_flat.sol\":12920:12921  0 */\n      0x00\n        /* \"ERC20/token_flat.sol\":12924:12931  account */\n      dup4\n        /* \"ERC20/token_flat.sol\":12933:12939  amount */\n      dup4\n        /* \"ERC20/token_flat.sol\":12891:12911  _beforeTokenTransfer */\n      tag_156\n        /* \"ERC20/token_flat.sol\":12891:12940  _beforeTokenTransfer(address(0), account, amount) */\n      jump\t// in\n    tag_168:\n        /* \"ERC20/token_flat.sol\":12967:12973  amount */\n      dup1\n        /* \"ERC20/token_flat.sol\":12951:12963  _totalSupply */\n      0x02\n      0x00\n        /* \"ERC20/token_flat.sol\":12951:12973  _totalSupply += amount */\n      dup3\n      dup3\n      sload\n      tag_169\n      swap2\n      swap1\n      tag_101\n      jump\t// in\n    tag_169:\n      swap3\n      pop\n      pop\n      dup2\n      swap1\n      sstore\n      pop\n        /* \"ERC20/token_flat.sol\":13005:13011  amount */\n      dup1\n        /* \"ERC20/token_flat.sol\":12983:12992  _balances */\n      0x00\n        /* \"ERC20/token_flat.sol\":12983:13001  _balances[account] */\n      dup1\n        /* \"ERC20/token_flat.sol\":12993:13000  account */\n      dup5\n        /* \"ERC20/token_flat.sol\":12983:13001  _balances[account] */\n      0xffffffffffffffffffffffffffffffffffffffff\n      and\n      0xffffffffffffffffffffffffffffffffffffffff\n      and\n      dup2\n      mstore\n      0x20\n      add\n      swap1\n      dup2\n      mstore\n      0x20\n      add\n      0x00\n      keccak256\n      0x00\n        /* \"ERC20/token_flat.sol\":12983:13011  _balances[account] += amount */\n      dup3\n      dup3\n      sload\n      tag_170\n      swap2\n      swap1\n      tag_101\n      jump\t// in\n    tag_170:\n      swap3\n      pop\n      pop\n      dup2\n      swap1\n      sstore\n      pop\n        /* \"ERC20/token_flat.sol\":13047:13054  account */\n      dup2\n        /* \"ERC20/token_flat.sol\":13026:13063  Transfer(address(0), account, amount) */\n      0xffffffffffffffffffffffffffffffffffffffff\n      and\n        /* \"ERC20/token_flat.sol\":13043:13044  0 */\n      0x00\n        /* \"ERC20/token_flat.sol\":13026:13063  Transfer(address(0), account, amount) */\n      0xffffffffffffffffffffffffffffffffffffffff\n      and\n      0xddf252ad1be2c89b69c2b068fc378daa952ba7f163c4a11628f55a4df523b3ef\n        /* \"ERC20/token_flat.sol\":13056:13062  amount */\n      dup4\n        /* \"ERC20/token_flat.sol\":13026:13063  Transfer(address(0), account, amount) */\n      mload(0x40)\n      tag_171\n      swap2\n      swap1\n      tag_31\n      jump\t// in\n    tag_171:\n      mload(0x40)\n      dup1\n      swap2\n      sub\n      swap1\n      log3\n        /* \"ERC20/token_flat.sol\":13074:13122  _afterTokenTransfer(address(0), account, amount) */\n      tag_172\n        /* \"ERC20/token_flat.sol\":13102:13103  0 */\n      0x00\n        /* \"ERC20/token_flat.sol\":13106:13113  account */\n      dup4\n        /* \"ERC20/token_flat.sol\":13115:13121  amount */\n      dup4\n        /* \"ERC20/token_flat.sol\":13074:13093  _afterTokenTransfer */\n      tag_163\n        /* \"ERC20/token_flat.sol\":13074:13122  _afterTokenTransfer(address(0), account, amount) */\n      jump\t// in\n    tag_172:\n        /* \"ERC20/token_flat.sol\":12740:13129  function _mint(address account, uint256 amount) internal virtual {... */\n      pop\n      pop\n      jump\t// out\n        /* \"ERC20/token_flat.sol\":16120:16241  function _beforeTokenTransfer(... */\n    tag_156:\n      pop\n      pop\n      pop\n      jump\t// out\n        /* \"ERC20/token_flat.sol\":16829:16949  function _afterTokenTransfer(... */\n    tag_163:\n      pop\n      pop\n      pop\n      jump\t// out\n        /* \"#utility.yul\":7:106   */\n    tag_175:\n        /* \"#utility.yul\":59:65   */\n      0x00\n        /* \"#utility.yul\":93:98   */\n      dup2\n        /* \"#utility.yul\":87:99   */\n      mload\n        /* \"#utility.yul\":77:99   */\n      swap1\n      pop\n        /* \"#utility.yul\":7:106   */\n      swap2\n      swap1\n      pop\n      jump\t// out\n        /* \"#utility.yul\":112:281   */\n    tag_176:\n        /* \"#utility.yul\":196:207   */\n      0x00\n        /* \"#utility.yul\":230:236   */\n      dup3\n        /* \"#utility.yul\":225:228   */\n      dup3\n        /* \"#utility.yul\":218:237   */\n      mstore\n        /* \"#utility.yul\":270:274   */\n      0x20\n        /* \"#utility.yul\":265:268   */\n      dup3\n        /* \"#utility.yul\":261:275   */\n      add\n        /* \"#utility.yul\":246:275   */\n      swap1\n      pop\n        /* \"#utility.yul\":112:281   */\n      swap3\n      swap2\n      pop\n      pop\n      jump\t// out\n        /* \"#utility.yul\":287:594   */\n    tag_177:\n        /* \"#utility.yul\":355:356   */\n      0x00\n        /* \"#utility.yul\":365:478   */\n    tag_221:\n        /* \"#utility.yul\":379:385   */\n      dup4\n        /* \"#utility.yul\":376:377   */\n      dup2\n        /* \"#utility.yul\":373:386   */\n      lt\n        /* \"#utility.yul\":365:478   */\n      iszero\n      tag_223\n      jumpi\n        /* \"#utility.yul\":464:465   */\n      dup1\n        /* \"#utility.yul\":459:462   */\n      dup3\n        /* \"#utility.yul\":455:466   */\n      add\n        /* \"#utility.yul\":449:467   */\n      mload\n        /* \"#utility.yul\":445:446   */\n      dup2\n        /* \"#utility.yul\":440:443   */\n      dup5\n        /* \"#utility.yul\":436:447   */\n      add\n        /* \"#utility.yul\":429:468   */\n      mstore\n        /* \"#utility.yul\":401:403   */\n      0x20\n        /* \"#utility.yul\":398:399   */\n      dup2\n        /* \"#utility.yul\":394:404   */\n      add\n        /* \"#utility.yul\":389:404   */\n      swap1\n      pop\n        /* \"#utility.yul\":365:478   */\n      jump(tag_221)\n    tag_223:\n        /* \"#utility.yul\":496:502   */\n      dup4\n        /* \"#utility.yul\":493:494   */\n      dup2\n        /* \"#utility.yul\":490:503   */\n      gt\n        /* \"#utility.yul\":487:588   */\n      iszero\n      tag_224\n      jumpi\n        /* \"#utility.yul\":576:577   */\n      0x00\n        /* \"#utility.yul\":567:573   */\n      dup5\n        /* \"#utility.yul\":562:565   */\n      dup5\n        /* \"#utility.yul\":558:574   */\n      add\n        /* \"#utility.yul\":551:578   */\n      mstore\n        /* \"#utility.yul\":487:588   */\n    tag_224:\n        /* \"#utility.yul\":336:594   */\n      pop\n        /* \"#utility.yul\":287:594   */\n      pop\n      pop\n      pop\n      jump\t// out\n        /* \"#utility.yul\":600:702   */\n    tag_178:\n        /* \"#utility.yul\":641:647   */\n      0x00\n        /* \"#utility.yul\":692:694   */\n      0x1f\n        /* \"#utility.yul\":688:695   */\n      not\n        /* \"#utility.yul\":683:685   */\n      0x1f\n        /* \"#utility.yul\":676:681   */\n      dup4\n        /* \"#utility.yul\":672:686   */\n      add\n        /* \"#utility.yul\":668:696   */\n      and\n        /* \"#utility.yul\":658:696   */\n      swap1\n      pop\n        /* \"#utility.yul\":600:702   */\n      swap2\n      swap1\n      pop\n      jump\t// out\n        /* \"#utility.yul\":708:1072   */\n    tag_179:\n        /* \"#utility.yul\":796:799   */\n      0x00\n        /* \"#utility.yul\":824:863   */\n      tag_227\n        /* \"#utility.yul\":857:862   */\n      dup3\n        /* \"#utility.yul\":824:863   */\n      tag_175\n      jump\t// in\n    tag_227:\n        /* \"#utility.yul\":879:950   */\n      tag_228\n        /* \"#utility.yul\":943:949   */\n      dup2\n        /* \"#utility.yul\":938:941   */\n      dup6\n        /* \"#utility.yul\":879:950   */\n      tag_176\n      jump\t// in\n    tag_228:\n        /* \"#utility.yul\":872:950   */\n      swap4\n      pop\n        /* \"#utility.yul\":959:1011   */\n      tag_229\n        /* \"#utility.yul\":1004:1010   */\n      dup2\n        /* \"#utility.yul\":999:1002   */\n      dup6\n        /* \"#utility.yul\":992:996   */\n      0x20\n        /* \"#utility.yul\":985:990   */\n      dup7\n        /* \"#utility.yul\":981:997   */\n      add\n        /* \"#utility.yul\":959:1011   */\n      tag_177\n      jump\t// in\n    tag_229:\n        /* \"#utility.yul\":1036:1065   */\n      tag_230\n        /* \"#utility.yul\":1058:1064   */\n      dup2\n        /* \"#utility.yul\":1036:1065   */\n      tag_178\n      jump\t// in\n    tag_230:\n        /* \"#utility.yul\":1031:1034   */\n      dup5\n        /* \"#utility.yul\":1027:1066   */\n      add\n        /* \"#utility.yul\":1020:1066   */\n      swap2\n      pop\n        /* \"#utility.yul\":800:1072   */\n      pop\n        /* \"#utility.yul\":708:1072   */\n      swap3\n      swap2\n      pop\n      pop\n      jump\t// out\n        /* \"#utility.yul\":1078:1391   */\n    tag_19:\n        /* \"#utility.yul\":1191:1195   */\n      0x00\n        /* \"#utility.yul\":1229:1231   */\n      0x20\n        /* \"#utility.yul\":1218:1227   */\n      dup3\n        /* \"#utility.yul\":1214:1232   */\n      add\n        /* \"#utility.yul\":1206:1232   */\n      swap1\n      pop\n        /* \"#utility.yul\":1278:1287   */\n      dup2\n        /* \"#utility.yul\":1272:1276   */\n      dup2\n        /* \"#utility.yul\":1268:1288   */\n      sub\n        /* \"#utility.yul\":1264:1265   */\n      0x00\n        /* \"#utility.yul\":1253:1262   */\n      dup4\n        /* \"#utility.yul\":1249:1266   */\n      add\n        /* \"#utility.yul\":1242:1289   */\n      mstore\n        /* \"#utility.yul\":1306:1384   */\n      tag_232\n        /* \"#utility.yul\":1379:1383   */\n      dup2\n        /* \"#utility.yul\":1370:1376   */\n      dup5\n        /* \"#utility.yul\":1306:1384   */\n      tag_179\n      jump\t// in\n    tag_232:\n        /* \"#utility.yul\":1298:1384   */\n      swap1\n      pop\n        /* \"#utility.yul\":1078:1391   */\n      swap3\n      swap2\n      pop\n      pop\n      jump\t// out\n        /* \"#utility.yul\":1478:1595   */\n    tag_181:\n        /* \"#utility.yul\":1587:1588   */\n      0x00\n        /* \"#utility.yul\":1584:1585   */\n      dup1\n        /* \"#utility.yul\":1577:1589   */\n      revert\n        /* \"#utility.yul\":1724:1850   */\n    tag_183:\n        /* \"#utility.yul\":1761:1768   */\n      0x00\n        /* \"#utility.yul\":1801:1843   */\n      0xffffffffffffffffffffffffffffffffffffffff\n        /* \"#utility.yul\":1794:1799   */\n      dup3\n        /* \"#utility.yul\":1790:1844   */\n      and\n        /* \"#utility.yul\":1779:1844   */\n      swap1\n      pop\n        /* \"#utility.yul\":1724:1850   */\n      swap2\n      swap1\n      pop\n      jump\t// out\n        /* \"#utility.yul\":1856:1952   */\n    tag_184:\n        /* \"#utility.yul\":1893:1900   */\n      0x00\n        /* \"#utility.yul\":1922:1946   */\n      tag_238\n        /* \"#utility.yul\":1940:1945   */\n      dup3\n        /* \"#utility.yul\":1922:1946   */\n      tag_183\n      jump\t// in\n    tag_238:\n        /* \"#utility.yul\":1911:1946   */\n      swap1\n      pop\n        /* \"#utility.yul\":1856:1952   */\n      swap2\n      swap1\n      pop\n      jump\t// out\n        /* \"#utility.yul\":1958:2080   */\n    tag_185:\n        /* \"#utility.yul\":2031:2055   */\n      tag_240\n        /* \"#utility.yul\":2049:2054   */\n      dup2\n        /* \"#utility.yul\":2031:2055   */\n      tag_184\n      jump\t// in\n    tag_240:\n        /* \"#utility.yul\":2024:2029   */\n      dup2\n        /* \"#utility.yul\":2021:2056   */\n      eq\n        /* \"#utility.yul\":2011:2074   */\n      tag_241\n      jumpi\n        /* \"#utility.yul\":2070:2071   */\n      0x00\n        /* \"#utility.yul\":2067:2068   */\n      dup1\n        /* \"#utility.yul\":2060:2072   */\n      revert\n        /* \"#utility.yul\":2011:2074   */\n    tag_241:\n        /* \"#utility.yul\":1958:2080   */\n      pop\n      jump\t// out\n        /* \"#utility.yul\":2086:2225   */\n    tag_186:\n        /* \"#utility.yul\":2132:2137   */\n      0x00\n        /* \"#utility.yul\":2170:2176   */\n      dup2\n        /* \"#utility.yul\":2157:2177   */\n      calldataload\n        /* \"#utility.yul\":2148:2177   */\n      swap1\n      pop\n        /* \"#utility.yul\":2186:2219   */\n      tag_243\n        /* \"#utility.yul\":2213:2218   */\n      dup2\n        /* \"#utility.yul\":2186:2219   */\n      tag_185\n      jump\t// in\n    tag_243:\n        /* \"#utility.yul\":2086:2225   */\n      swap3\n      swap2\n      pop\n      pop\n      jump\t// out\n        /* \"#utility.yul\":2231:2308   */\n    tag_187:\n        /* \"#utility.yul\":2268:2275   */\n      0x00\n        /* \"#utility.yul\":2297:2302   */\n      dup2\n        /* \"#utility.yul\":2286:2302   */\n      swap1\n      pop\n        /* \"#utility.yul\":2231:2308   */\n      swap2\n      swap1\n      pop\n      jump\t// out\n        /* \"#utility.yul\":2314:2436   */\n    tag_188:\n        /* \"#utility.yul\":2387:2411   */\n      tag_246\n        /* \"#utility.yul\":2405:2410   */\n      dup2\n        /* \"#utility.yul\":2387:2411   */\n      tag_187\n      jump\t// in\n    tag_246:\n        /* \"#utility.yul\":2380:2385   */\n      dup2\n        /* \"#utility.yul\":2377:2412   */\n      eq\n        /* \"#utility.yul\":2367:2430   */\n      tag_247\n      jumpi\n        /* \"#utility.yul\":2426:2427   */\n      0x00\n        /* \"#utility.yul\":2423:2424   */\n      dup1\n        /* \"#utility.yul\":2416:2428   */\n      revert\n        /* \"#utility.yul\":2367:2430   */\n    tag_247:\n        /* \"#utility.yul\":2314:2436   */\n      pop\n      jump\t// out\n        /* \"#utility.yul\":2442:2581   */\n    tag_189:\n        /* \"#utility.yul\":2488:2493   */\n      0x00\n        /* \"#utility.yul\":2526:2532   */\n      dup2\n        /* \"#utility.yul\":2513:2533   */\n      calldataload\n        /* \"#utility.yul\":2504:2533   */\n      swap1\n      pop\n        /* \"#utility.yul\":2542:2575   */\n      tag_249\n        /* \"#utility.yul\":2569:2574   */\n      dup2\n        /* \"#utility.yul\":2542:2575   */\n      tag_188\n      jump\t// in\n    tag_249:\n        /* \"#utility.yul\":2442:2581   */\n      swap3\n      swap2\n      pop\n      pop\n      jump\t// out\n        /* \"#utility.yul\":2587:3061   */\n    tag_23:\n        /* \"#utility.yul\":2655:2661   */\n      0x00\n        /* \"#utility.yul\":2663:2669   */\n      dup1\n        /* \"#utility.yul\":2712:2714   */\n      0x40\n        /* \"#utility.yul\":2700:2709   */\n      dup4\n        /* \"#utility.yul\":2691:2698   */\n      dup6\n        /* \"#utility.yul\":2687:2710   */\n      sub\n        /* \"#utility.yul\":2683:2715   */\n      slt\n        /* \"#utility.yul\":2680:2799   */\n      iszero\n      tag_251\n      jumpi\n        /* \"#utility.yul\":2718:2797   */\n      tag_252\n      tag_181\n      jump\t// in\n    tag_252:\n        /* \"#utility.yul\":2680:2799   */\n    tag_251:\n        /* \"#utility.yul\":2838:2839   */\n      0x00\n        /* \"#utility.yul\":2863:2916   */\n      tag_253\n        /* \"#utility.yul\":2908:2915   */\n      dup6\n        /* \"#utility.yul\":2899:2905   */\n      dup3\n        /* \"#utility.yul\":2888:2897   */\n      dup7\n        /* \"#utility.yul\":2884:2906   */\n      add\n        /* \"#utility.yul\":2863:2916   */\n      tag_186\n      jump\t// in\n    tag_253:\n        /* \"#utility.yul\":2853:2916   */\n      swap3\n      pop\n        /* \"#utility.yul\":2809:2926   */\n      pop\n        /* \"#utility.yul\":2965:2967   */\n      0x20\n        /* \"#utility.yul\":2991:3044   */\n      tag_254\n        /* \"#utility.yul\":3036:3043   */\n      dup6\n        /* \"#utility.yul\":3027:3033   */\n      dup3\n        /* \"#utility.yul\":3016:3025   */\n      dup7\n        /* \"#utility.yul\":3012:3034   */\n      add\n        /* \"#utility.yul\":2991:3044   */\n      tag_189\n      jump\t// in\n    tag_254:\n        /* \"#utility.yul\":2981:3044   */\n      swap2\n      pop\n        /* \"#utility.yul\":2936:3054   */\n      pop\n        /* \"#utility.yul\":2587:3061   */\n      swap3\n      pop\n      swap3\n      swap1\n      pop\n      jump\t// out\n        /* \"#utility.yul\":3067:3157   */\n    tag_190:\n        /* \"#utility.yul\":3101:3108   */\n      0x00\n        /* \"#utility.yul\":3144:3149   */\n      dup2\n        /* \"#utility.yul\":3137:3150   */\n      iszero\n        /* \"#utility.yul\":3130:3151   */\n      iszero\n        /* \"#utility.yul\":3119:3151   */\n      swap1\n      pop\n        /* \"#utility.yul\":3067:3157   */\n      swap2\n      swap1\n      pop\n      jump\t// out\n        /* \"#utility.yul\":3163:3272   */\n    tag_191:\n        /* \"#utility.yul\":3244:3265   */\n      tag_257\n        /* \"#utility.yul\":3259:3264   */\n      dup2\n        /* \"#utility.yul\":3244:3265   */\n      tag_190\n      jump\t// in\n    tag_257:\n        /* \"#utility.yul\":3239:3242   */\n      dup3\n        /* \"#utility.yul\":3232:3266   */\n      mstore\n        /* \"#utility.yul\":3163:3272   */\n      pop\n      pop\n      jump\t// out\n        /* \"#utility.yul\":3278:3488   */\n    tag_26:\n        /* \"#utility.yul\":3365:3369   */\n      0x00\n        /* \"#utility.yul\":3403:3405   */\n      0x20\n        /* \"#utility.yul\":3392:3401   */\n      dup3\n        /* \"#utility.yul\":3388:3406   */\n      add\n        /* \"#utility.yul\":3380:3406   */\n      swap1\n      pop\n        /* \"#utility.yul\":3416:3481   */\n      tag_259\n        /* \"#utility.yul\":3478:3479   */\n      0x00\n        /* \"#utility.yul\":3467:3476   */\n      dup4\n        /* \"#utility.yul\":3463:3480   */\n      add\n        /* \"#utility.yul\":3454:3460   */\n      dup5\n        /* \"#utility.yul\":3416:3481   */\n      tag_191\n      jump\t// in\n    tag_259:\n        /* \"#utility.yul\":3278:3488   */\n      swap3\n      swap2\n      pop\n      pop\n      jump\t// out\n        /* \"#utility.yul\":3494:3612   */\n    tag_192:\n        /* \"#utility.yul\":3581:3605   */\n      tag_261\n        /* \"#utility.yul\":3599:3604   */\n      dup2\n        /* \"#utility.yul\":3581:3605   */\n      tag_187\n      jump\t// in\n    tag_261:\n        /* \"#utility.yul\":3576:3579   */\n      dup3\n        /* \"#utility.yul\":3569:3606   */\n      mstore\n        /* \"#utility.yul\":3494:3612   */\n      pop\n      pop\n      jump\t// out\n        /* \"#utility.yul\":3618:3840   */\n    tag_31:\n        /* \"#utility.yul\":3711:3715   */\n      0x00\n        /* \"#utility.yul\":3749:3751   */\n      0x20\n        /* \"#utility.yul\":3738:3747   */\n      dup3\n        /* \"#utility.yul\":3734:3752   */\n      add\n        /* \"#utility.yul\":3726:3752   */\n      swap1\n      pop\n        /* \"#utility.yul\":3762:3833   */\n      tag_263\n        /* \"#utility.yul\":3830:3831   */\n      0x00\n        /* \"#utility.yul\":3819:3828   */\n      dup4\n        /* \"#utility.yul\":3815:3832   */\n      add\n        /* \"#utility.yul\":3806:3812   */\n      dup5\n        /* \"#utility.yul\":3762:3833   */\n      tag_192\n      jump\t// in\n    tag_263:\n        /* \"#utility.yul\":3618:3840   */\n      swap3\n      swap2\n      pop\n      pop\n      jump\t// out\n        /* \"#utility.yul\":3846:4465   */\n    tag_35:\n        /* \"#utility.yul\":3923:3929   */\n      0x00\n        /* \"#utility.yul\":3931:3937   */\n      dup1\n        /* \"#utility.yul\":3939:3945   */\n      0x00\n        /* \"#utility.yul\":3988:3990   */\n      0x60\n        /* \"#utility.yul\":3976:3985   */\n      dup5\n        /* \"#utility.yul\":3967:3974   */\n      dup7\n        /* \"#utility.yul\":3963:3986   */\n      sub\n        /* \"#utility.yul\":3959:3991   */\n      slt\n        /* \"#utility.yul\":3956:4075   */\n      iszero\n      tag_265\n      jumpi\n        /* \"#utility.yul\":3994:4073   */\n      tag_266\n      tag_181\n      jump\t// in\n    tag_266:\n        /* \"#utility.yul\":3956:4075   */\n    tag_265:\n        /* \"#utility.yul\":4114:4115   */\n      0x00\n        /* \"#utility.yul\":4139:4192   */\n      tag_267\n        /* \"#utility.yul\":4184:4191   */\n      dup7\n        /* \"#utility.yul\":4175:4181   */\n      dup3\n        /* \"#utility.yul\":4164:4173   */\n      dup8\n        /* \"#utility.yul\":4160:4182   */\n      add\n        /* \"#utility.yul\":4139:4192   */\n      tag_186\n      jump\t// in\n    tag_267:\n        /* \"#utility.yul\":4129:4192   */\n      swap4\n      pop\n        /* \"#utility.yul\":4085:4202   */\n      pop\n        /* \"#utility.yul\":4241:4243   */\n      0x20\n        /* \"#utility.yul\":4267:4320   */\n      tag_268\n        /* \"#utility.yul\":4312:4319   */\n      dup7\n        /* \"#utility.yul\":4303:4309   */\n      dup3\n        /* \"#utility.yul\":4292:4301   */\n      dup8\n        /* \"#utility.yul\":4288:4310   */\n      add\n        /* \"#utility.yul\":4267:4320   */\n      tag_186\n      jump\t// in\n    tag_268:\n        /* \"#utility.yul\":4257:4320   */\n      swap3\n      pop\n        /* \"#utility.yul\":4212:4330   */\n      pop\n        /* \"#utility.yul\":4369:4371   */\n      0x40\n        /* \"#utility.yul\":4395:4448   */\n      tag_269\n        /* \"#utility.yul\":4440:4447   */\n      dup7\n        /* \"#utility.yul\":4431:4437   */\n      dup3\n        /* \"#utility.yul\":4420:4429   */\n      dup8\n        /* \"#utility.yul\":4416:4438   */\n      add\n        /* \"#utility.yul\":4395:4448   */\n      tag_189\n      jump\t// in\n    tag_269:\n        /* \"#utility.yul\":4385:4448   */\n      swap2\n      pop\n        /* \"#utility.yul\":4340:4458   */\n      pop\n        /* \"#utility.yul\":3846:4465   */\n      swap3\n      pop\n      swap3\n      pop\n      swap3\n      jump\t// out\n        /* \"#utility.yul\":4471:4557   */\n    tag_193:\n        /* \"#utility.yul\":4506:4513   */\n      0x00\n        /* \"#utility.yul\":4546:4550   */\n      0xff\n        /* \"#utility.yul\":4539:4544   */\n      dup3\n        /* \"#utility.yul\":4535:4551   */\n      and\n        /* \"#utility.yul\":4524:4551   */\n      swap1\n      pop\n        /* \"#utility.yul\":4471:4557   */\n      swap2\n      swap1\n      pop\n      jump\t// out\n        /* \"#utility.yul\":4563:4675   */\n    tag_194:\n        /* \"#utility.yul\":4646:4668   */\n      tag_272\n        /* \"#utility.yul\":4662:4667   */\n      dup2\n        /* \"#utility.yul\":4646:4668   */\n      tag_193\n      jump\t// in\n    tag_272:\n        /* \"#utility.yul\":4641:4644   */\n      dup3\n        /* \"#utility.yul\":4634:4669   */\n      mstore\n        /* \"#utility.yul\":4563:4675   */\n      pop\n      pop\n      jump\t// out\n        /* \"#utility.yul\":4681:4895   */\n    tag_42:\n        /* \"#utility.yul\":4770:4774   */\n      0x00\n        /* \"#utility.yul\":4808:4810   */\n      0x20\n        /* \"#utility.yul\":4797:4806   */\n      dup3\n        /* \"#utility.yul\":4793:4811   */\n      add\n        /* \"#utility.yul\":4785:4811   */\n      swap1\n      pop\n        /* \"#utility.yul\":4821:4888   */\n      tag_274\n        /* \"#utility.yul\":4885:4886   */\n      0x00\n        /* \"#utility.yul\":4874:4883   */\n      dup4\n        /* \"#utility.yul\":4870:4887   */\n      add\n        /* \"#utility.yul\":4861:4867   */\n      dup5\n        /* \"#utility.yul\":4821:4888   */\n      tag_194\n      jump\t// in\n    tag_274:\n        /* \"#utility.yul\":4681:4895   */\n      swap3\n      swap2\n      pop\n      pop\n      jump\t// out\n        /* \"#utility.yul\":4901:5230   */\n    tag_51:\n        /* \"#utility.yul\":4960:4966   */\n      0x00\n        /* \"#utility.yul\":5009:5011   */\n      0x20\n        /* \"#utility.yul\":4997:5006   */\n      dup3\n        /* \"#utility.yul\":4988:4995   */\n      dup5\n        /* \"#utility.yul\":4984:5007   */\n      sub\n        /* \"#utility.yul\":4980:5012   */\n      slt\n        /* \"#utility.yul\":4977:5096   */\n      iszero\n      tag_276\n      jumpi\n        /* \"#utility.yul\":5015:5094   */\n      tag_277\n      tag_181\n      jump\t// in\n    tag_277:\n        /* \"#utility.yul\":4977:5096   */\n    tag_276:\n        /* \"#utility.yul\":5135:5136   */\n      0x00\n        /* \"#utility.yul\":5160:5213   */\n      tag_278\n        /* \"#utility.yul\":5205:5212   */\n      dup5\n        /* \"#utility.yul\":5196:5202   */\n      dup3\n        /* \"#utility.yul\":5185:5194   */\n      dup6\n        /* \"#utility.yul\":5181:5203   */\n      add\n        /* \"#utility.yul\":5160:5213   */\n      tag_186\n      jump\t// in\n    tag_278:\n        /* \"#utility.yul\":5150:5213   */\n      swap2\n      pop\n        /* \"#utility.yul\":5106:5223   */\n      pop\n        /* \"#utility.yul\":4901:5230   */\n      swap3\n      swap2\n      pop\n      pop\n      jump\t// out\n        /* \"#utility.yul\":5236:5710   */\n    tag_74:\n        /* \"#utility.yul\":5304:5310   */\n      0x00\n        /* \"#utility.yul\":5312:5318   */\n      dup1\n        /* \"#utility.yul\":5361:5363   */\n      0x40\n        /* \"#utility.yul\":5349:5358   */\n      dup4\n        /* \"#utility.yul\":5340:5347   */\n      dup6\n        /* \"#utility.yul\":5336:5359   */\n      sub\n        /* \"#utility.yul\":5332:5364   */\n      slt\n        /* \"#utility.yul\":5329:5448   */\n      iszero\n      tag_280\n      jumpi\n        /* \"#utility.yul\":5367:5446   */\n      tag_281\n      tag_181\n      jump\t// in\n    tag_281:\n        /* \"#utility.yul\":5329:5448   */\n    tag_280:\n        /* \"#utility.yul\":5487:5488   */\n      0x00\n        /* \"#utility.yul\":5512:5565   */\n      tag_282\n        /* \"#utility.yul\":5557:5564   */\n      dup6\n        /* \"#utility.yul\":5548:5554   */\n      dup3\n        /* \"#utility.yul\":5537:5546   */\n      dup7\n        /* \"#utility.yul\":5533:5555   */\n      add\n        /* \"#utility.yul\":5512:5565   */\n      tag_186\n      jump\t// in\n    tag_282:\n        /* \"#utility.yul\":5502:5565   */\n      swap3\n      pop\n        /* \"#utility.yul\":5458:5575   */\n      pop\n        /* \"#utility.yul\":5614:5616   */\n      0x20\n        /* \"#utility.yul\":5640:5693   */\n      tag_283\n        /* \"#utility.yul\":5685:5692   */\n      dup6\n        /* \"#utility.yul\":5676:5682   */\n      dup3\n        /* \"#utility.yul\":5665:5674   */\n      dup7\n        /* \"#utility.yul\":5661:5683   */\n      add\n        /* \"#utility.yul\":5640:5693   */\n      tag_186\n      jump\t// in\n    tag_283:\n        /* \"#utility.yul\":5630:5693   */\n      swap2\n      pop\n        /* \"#utility.yul\":5585:5703   */\n      pop\n        /* \"#utility.yul\":5236:5710   */\n      swap3\n      pop\n      swap3\n      swap1\n      pop\n      jump\t// out\n        /* \"#utility.yul\":5716:5896   */\n    tag_195:\n        /* \"#utility.yul\":5764:5841   */\n      0x4e487b7100000000000000000000000000000000000000000000000000000000\n        /* \"#utility.yul\":5761:5762   */\n      0x00\n        /* \"#utility.yul\":5754:5842   */\n      mstore\n        /* \"#utility.yul\":5861:5865   */\n      0x22\n        /* \"#utility.yul\":5858:5859   */\n      0x04\n        /* \"#utility.yul\":5851:5866   */\n      mstore\n        /* \"#utility.yul\":5885:5889   */\n      0x24\n        /* \"#utility.yul\":5882:5883   */\n      0x00\n        /* \"#utility.yul\":5875:5890   */\n      revert\n        /* \"#utility.yul\":5902:6222   */\n    tag_79:\n        /* \"#utility.yul\":5946:5952   */\n      0x00\n        /* \"#utility.yul\":5983:5984   */\n      0x02\n        /* \"#utility.yul\":5977:5981   */\n      dup3\n        /* \"#utility.yul\":5973:5985   */\n      div\n        /* \"#utility.yul\":5963:5985   */\n      swap1\n      pop\n        /* \"#utility.yul\":6030:6031   */\n      0x01\n        /* \"#utility.yul\":6024:6028   */\n      dup3\n        /* \"#utility.yul\":6020:6032   */\n      and\n        /* \"#utility.yul\":6051:6069   */\n      dup1\n        /* \"#utility.yul\":6041:6122   */\n      tag_286\n      jumpi\n        /* \"#utility.yul\":6107:6111   */\n      0x7f\n        /* \"#utility.yul\":6099:6105   */\n      dup3\n        /* \"#utility.yul\":6095:6112   */\n      and\n        /* \"#utility.yul\":6085:6112   */\n      swap2\n      pop\n        /* \"#utility.yul\":6041:6122   */\n    tag_286:\n        /* \"#utility.yul\":6169:6171   */\n      0x20\n        /* \"#utility.yul\":6161:6167   */\n      dup3\n        /* \"#utility.yul\":6158:6172   */\n      lt\n        /* \"#utility.yul\":6138:6156   */\n      dup2\n        /* \"#utility.yul\":6135:6173   */\n      sub\n        /* \"#utility.yul\":6132:6216   */\n      tag_287\n      jumpi\n        /* \"#utility.yul\":6188:6206   */\n      tag_288\n      tag_195\n      jump\t// in\n    tag_288:\n        /* \"#utility.yul\":6132:6216   */\n    tag_287:\n        /* \"#utility.yul\":5953:6222   */\n      pop\n        /* \"#utility.yul\":5902:6222   */\n      swap2\n      swap1\n      pop\n      jump\t// out\n        /* \"#utility.yul\":6228:6408   */\n    tag_196:\n        /* \"#utility.yul\":6276:6353   */\n      0x4e487b7100000000000000000000000000000000000000000000000000000000\n        /* \"#utility.yul\":6273:6274   */\n      0x00\n        /* \"#utility.yul\":6266:6354   */\n      mstore\n        /* \"#utility.yul\":6373:6377   */\n      0x11\n        /* \"#utility.yul\":6370:6371   */\n      0x04\n        /* \"#utility.yul\":6363:6378   */\n      mstore\n        /* \"#utility.yul\":6397:6401   */\n      0x24\n        /* \"#utility.yul\":6394:6395   */\n      0x00\n        /* \"#utility.yul\":6387:6402   */\n      revert\n        /* \"#utility.yul\":6414:6719   */\n    tag_101:\n        /* \"#utility.yul\":6454:6457   */\n      0x00\n        /* \"#utility.yul\":6473:6493   */\n      tag_291\n        /* \"#utility.yul\":6491:6492   */\n      dup3\n        /* \"#utility.yul\":6473:6493   */\n      tag_187\n      jump\t// in\n    tag_291:\n        /* \"#utility.yul\":6468:6493   */\n      swap2\n      pop\n        /* \"#utility.yul\":6507:6527   */\n      tag_292\n        /* \"#utility.yul\":6525:6526   */\n      dup4\n        /* \"#utility.yul\":6507:6527   */\n      tag_187\n      jump\t// in\n    tag_292:\n        /* \"#utility.yul\":6502:6527   */\n      swap3\n      pop\n        /* \"#utility.yul\":6661:6662   */\n      dup3\n        /* \"#utility.yul\":6593:6659   */\n      0xffffffffffffffffffffffffffffffffffffffffffffffffffffffffffffffff\n        /* \"#utility.yul\":6589:6663   */\n      sub\n        /* \"#utility.yul\":6586:6587   */\n      dup3\n        /* \"#utility.yul\":6583:6664   */\n      gt\n        /* \"#utility.yul\":6580:6687   */\n      iszero\n      tag_293\n      jumpi\n        /* \"#utility.yul\":6667:6685   */\n      tag_294\n      tag_196\n      jump\t// in\n    tag_294:\n        /* \"#utility.yul\":6580:6687   */\n    tag_293:\n        /* \"#utility.yul\":6711:6712   */\n      dup3\n        /* \"#utility.yul\":6708:6709   */\n      dup3\n        /* \"#utility.yul\":6704:6713   */\n      add\n        /* \"#utility.yul\":6697:6713   */\n      swap1\n      pop\n        /* \"#utility.yul\":6414:6719   */\n      swap3\n      swap2\n      pop\n      pop\n      jump\t// out\n        /* \"#utility.yul\":6725:6952   */\n    tag_197:\n        /* \"#utility.yul\":6865:6899   */\n      0x596f75206e656564206d6f7265206d6f6e657920666f72207468697320747261\n        /* \"#utility.yul\":6861:6862   */\n      0x00\n        /* \"#utility.yul\":6853:6859   */\n      dup3\n        /* \"#utility.yul\":6849:6863   */\n      add\n        /* \"#utility.yul\":6842:6900   */\n      mstore\n        /* \"#utility.yul\":6934:6944   */\n      0x6e73616374696f6e000000000000000000000000000000000000000000000000\n        /* \"#utility.yul\":6929:6931   */\n      0x20\n        /* \"#utility.yul\":6921:6927   */\n      dup3\n        /* \"#utility.yul\":6917:6932   */\n      add\n        /* \"#utility.yul\":6910:6945   */\n      mstore\n        /* \"#utility.yul\":6725:6952   */\n      pop\n      jump\t// out\n        /* \"#utility.yul\":6958:7324   */\n    tag_198:\n        /* \"#utility.yul\":7100:7103   */\n      0x00\n        /* \"#utility.yul\":7121:7188   */\n      tag_297\n        /* \"#utility.yul\":7185:7187   */\n      0x28\n        /* \"#utility.yul\":7180:7183   */\n      dup4\n        /* \"#utility.yul\":7121:7188   */\n      tag_176\n      jump\t// in\n    tag_297:\n        /* \"#utility.yul\":7114:7188   */\n      swap2\n      pop\n        /* \"#utility.yul\":7197:7290   */\n      tag_298\n        /* \"#utility.yul\":7286:7289   */\n      dup3\n        /* \"#utility.yul\":7197:7290   */\n      tag_197\n      jump\t// in\n    tag_298:\n        /* \"#utility.yul\":7315:7317   */\n      0x40\n        /* \"#utility.yul\":7310:7313   */\n      dup3\n        /* \"#utility.yul\":7306:7318   */\n      add\n        /* \"#utility.yul\":7299:7318   */\n      swap1\n      pop\n        /* \"#utility.yul\":6958:7324   */\n      swap2\n      swap1\n      pop\n      jump\t// out\n        /* \"#utility.yul\":7330:7749   */\n    tag_106:\n        /* \"#utility.yul\":7496:7500   */\n      0x00\n        /* \"#utility.yul\":7534:7536   */\n      0x20\n        /* \"#utility.yul\":7523:7532   */\n      dup3\n        /* \"#utility.yul\":7519:7537   */\n      add\n        /* \"#utility.yul\":7511:7537   */\n      swap1\n      pop\n        /* \"#utility.yul\":7583:7592   */\n      dup2\n        /* \"#utility.yul\":7577:7581   */\n      dup2\n        /* \"#utility.yul\":7573:7593   */\n      sub\n        /* \"#utility.yul\":7569:7570   */\n      0x00\n        /* \"#utility.yul\":7558:7567   */\n      dup4\n        /* \"#utility.yul\":7554:7571   */\n      add\n        /* \"#utility.yul\":7547:7594   */\n      mstore\n        /* \"#utility.yul\":7611:7742   */\n      tag_300\n        /* \"#utility.yul\":7737:7741   */\n      dup2\n        /* \"#utility.yul\":7611:7742   */\n      tag_198\n      jump\t// in\n    tag_300:\n        /* \"#utility.yul\":7603:7742   */\n      swap1\n      pop\n        /* \"#utility.yul\":7330:7749   */\n      swap2\n      swap1\n      pop\n      jump\t// out\n        /* \"#utility.yul\":7755:8103   */\n    tag_108:\n        /* \"#utility.yul\":7795:7802   */\n      0x00\n        /* \"#utility.yul\":7818:7838   */\n      tag_302\n        /* \"#utility.yul\":7836:7837   */\n      dup3\n        /* \"#utility.yul\":7818:7838   */\n      tag_187\n      jump\t// in\n    tag_302:\n        /* \"#utility.yul\":7813:7838   */\n      swap2\n      pop\n        /* \"#utility.yul\":7852:7872   */\n      tag_303\n        /* \"#utility.yul\":7870:7871   */\n      dup4\n        /* \"#utility.yul\":7852:7872   */\n      tag_187\n      jump\t// in\n    tag_303:\n        /* \"#utility.yul\":7847:7872   */\n      swap3\n      pop\n        /* \"#utility.yul\":8040:8041   */\n      dup2\n        /* \"#utility.yul\":7972:8038   */\n      0xffffffffffffffffffffffffffffffffffffffffffffffffffffffffffffffff\n        /* \"#utility.yul\":7968:8042   */\n      div\n        /* \"#utility.yul\":7965:7966   */\n      dup4\n        /* \"#utility.yul\":7962:8043   */\n      gt\n        /* \"#utility.yul\":7957:7958   */\n      dup3\n        /* \"#utility.yul\":7950:7959   */\n      iszero\n        /* \"#utility.yul\":7943:7960   */\n      iszero\n        /* \"#utility.yul\":7939:8044   */\n      and\n        /* \"#utility.yul\":7936:8067   */\n      iszero\n      tag_304\n      jumpi\n        /* \"#utility.yul\":8047:8065   */\n      tag_305\n      tag_196\n      jump\t// in\n    tag_305:\n        /* \"#utility.yul\":7936:8067   */\n    tag_304:\n        /* \"#utility.yul\":8095:8096   */\n      dup3\n        /* \"#utility.yul\":8092:8093   */\n      dup3\n        /* \"#utility.yul\":8088:8097   */\n      mul\n        /* \"#utility.yul\":8077:8097   */\n      swap1\n      pop\n        /* \"#utility.yul\":7755:8103   */\n      swap3\n      swap2\n      pop\n      pop\n      jump\t// out\n        /* \"#utility.yul\":8109:8285   */\n    tag_199:\n        /* \"#utility.yul\":8249:8277   */\n      0x43616e6e6f742045786365656420466978656420537570706c79000000000000\n        /* \"#utility.yul\":8245:8246   */\n      0x00\n        /* \"#utility.yul\":8237:8243   */\n      dup3\n        /* \"#utility.yul\":8233:8247   */\n      add\n        /* \"#utility.yul\":8226:8278   */\n      mstore\n        /* \"#utility.yul\":8109:8285   */\n      pop\n      jump\t// out\n        /* \"#utility.yul\":8291:8657   */\n    tag_200:\n        /* \"#utility.yul\":8433:8436   */\n      0x00\n        /* \"#utility.yul\":8454:8521   */\n      tag_308\n        /* \"#utility.yul\":8518:8520   */\n      0x1a\n        /* \"#utility.yul\":8513:8516   */\n      dup4\n        /* \"#utility.yul\":8454:8521   */\n      tag_176\n      jump\t// in\n    tag_308:\n        /* \"#utility.yul\":8447:8521   */\n      swap2\n      pop\n        /* \"#utility.yul\":8530:8623   */\n      tag_309\n        /* \"#utility.yul\":8619:8622   */\n      dup3\n        /* \"#utility.yul\":8530:8623   */\n      tag_199\n      jump\t// in\n    tag_309:\n        /* \"#utility.yul\":8648:8650   */\n      0x20\n        /* \"#utility.yul\":8643:8646   */\n      dup3\n        /* \"#utility.yul\":8639:8651   */\n      add\n        /* \"#utility.yul\":8632:8651   */\n      swap1\n      pop\n        /* \"#utility.yul\":8291:8657   */\n      swap2\n      swap1\n      pop\n      jump\t// out\n        /* \"#utility.yul\":8663:9082   */\n    tag_113:\n        /* \"#utility.yul\":8829:8833   */\n      0x00\n        /* \"#utility.yul\":8867:8869   */\n      0x20\n        /* \"#utility.yul\":8856:8865   */\n      dup3\n        /* \"#utility.yul\":8852:8870   */\n      add\n        /* \"#utility.yul\":8844:8870   */\n      swap1\n      pop\n        /* \"#utility.yul\":8916:8925   */\n      dup2\n        /* \"#utility.yul\":8910:8914   */\n      dup2\n        /* \"#utility.yul\":8906:8926   */\n      sub\n        /* \"#utility.yul\":8902:8903   */\n      0x00\n        /* \"#utility.yul\":8891:8900   */\n      dup4\n        /* \"#utility.yul\":8887:8904   */\n      add\n        /* \"#utility.yul\":8880:8927   */\n      mstore\n        /* \"#utility.yul\":8944:9075   */\n      tag_311\n        /* \"#utility.yul\":9070:9074   */\n      dup2\n        /* \"#utility.yul\":8944:9075   */\n      tag_200\n      jump\t// in\n    tag_311:\n        /* \"#utility.yul\":8936:9075   */\n      swap1\n      pop\n        /* \"#utility.yul\":8663:9082   */\n      swap2\n      swap1\n      pop\n      jump\t// out\n        /* \"#utility.yul\":9088:9312   */\n    tag_201:\n        /* \"#utility.yul\":9228:9262   */\n      0x45524332303a2064656372656173656420616c6c6f77616e63652062656c6f77\n        /* \"#utility.yul\":9224:9225   */\n      0x00\n        /* \"#utility.yul\":9216:9222   */\n      dup3\n        /* \"#utility.yul\":9212:9226   */\n      add\n        /* \"#utility.yul\":9205:9263   */\n      mstore\n        /* \"#utility.yul\":9297:9304   */\n      0x207a65726f000000000000000000000000000000000000000000000000000000\n        /* \"#utility.yul\":9292:9294   */\n      0x20\n        /* \"#utility.yul\":9284:9290   */\n      dup3\n        /* \"#utility.yul\":9280:9295   */\n      add\n        /* \"#utility.yul\":9273:9305   */\n      mstore\n        /* \"#utility.yul\":9088:9312   */\n      pop\n      jump\t// out\n        /* \"#utility.yul\":9318:9684   */\n    tag_202:\n        /* \"#utility.yul\":9460:9463   */\n      0x00\n        /* \"#utility.yul\":9481:9548   */\n      tag_314\n        /* \"#utility.yul\":9545:9547   */\n      0x25\n        /* \"#utility.yul\":9540:9543   */\n      dup4\n        /* \"#utility.yul\":9481:9548   */\n      tag_176\n      jump\t// in\n    tag_314:\n        /* \"#utility.yul\":9474:9548   */\n      swap2\n      pop\n        /* \"#utility.yul\":9557:9650   */\n      tag_315\n        /* \"#utility.yul\":9646:9649   */\n      dup3\n        /* \"#utility.yul\":9557:9650   */\n      tag_201\n      jump\t// in\n    tag_315:\n        /* \"#utility.yul\":9675:9677   */\n      0x40\n        /* \"#utility.yul\":9670:9673   */\n      dup3\n        /* \"#utility.yul\":9666:9678   */\n      add\n        /* \"#utility.yul\":9659:9678   */\n      swap1\n      pop\n        /* \"#utility.yul\":9318:9684   */\n      swap2\n      swap1\n      pop\n      jump\t// out\n        /* \"#utility.yul\":9690:10109   */\n    tag_126:\n        /* \"#utility.yul\":9856:9860   */\n      0x00\n        /* \"#utility.yul\":9894:9896   */\n      0x20\n        /* \"#utility.yul\":9883:9892   */\n      dup3\n        /* \"#utility.yul\":9879:9897   */\n      add\n        /* \"#utility.yul\":9871:9897   */\n      swap1\n      pop\n        /* \"#utility.yul\":9943:9952   */\n      dup2\n        /* \"#utility.yul\":9937:9941   */\n      dup2\n        /* \"#utility.yul\":9933:9953   */\n      sub\n        /* \"#utility.yul\":9929:9930   */\n      0x00\n        /* \"#utility.yul\":9918:9927   */\n      dup4\n        /* \"#utility.yul\":9914:9931   */\n      add\n        /* \"#utility.yul\":9907:9954   */\n      mstore\n        /* \"#utility.yul\":9971:10102   */\n      tag_317\n        /* \"#utility.yul\":10097:10101   */\n      dup2\n        /* \"#utility.yul\":9971:10102   */\n      tag_202\n      jump\t// in\n    tag_317:\n        /* \"#utility.yul\":9963:10102   */\n      swap1\n      pop\n        /* \"#utility.yul\":9690:10109   */\n      swap2\n      swap1\n      pop\n      jump\t// out\n        /* \"#utility.yul\":10115:10338   */\n    tag_203:\n        /* \"#utility.yul\":10255:10289   */\n      0x45524332303a20617070726f76652066726f6d20746865207a65726f20616464\n        /* \"#utility.yul\":10251:10252   */\n      0x00\n        /* \"#utility.yul\":10243:10249   */\n      dup3\n        /* \"#utility.yul\":10239:10253   */\n      add\n        /* \"#utility.yul\":10232:10290   */\n      mstore\n        /* \"#utility.yul\":10324:10330   */\n      0x7265737300000000000000000000000000000000000000000000000000000000\n        /* \"#utility.yul\":10319:10321   */\n      0x20\n        /* \"#utility.yul\":10311:10317   */\n      dup3\n        /* \"#utility.yul\":10307:10322   */\n      add\n        /* \"#utility.yul\":10300:10331   */\n      mstore\n        /* \"#utility.yul\":10115:10338   */\n      pop\n      jump\t// out\n        /* \"#utility.yul\":10344:10710   */\n    tag_204:\n        /* \"#utility.yul\":10486:10489   */\n      0x00\n        /* \"#utility.yul\":10507:10574   */\n      tag_320\n        /* \"#utility.yul\":10571:10573   */\n      0x24\n        /* \"#utility.yul\":10566:10569   */\n      dup4\n        /* \"#utility.yul\":10507:10574   */\n      tag_176\n      jump\t// in\n    tag_320:\n        /* \"#utility.yul\":10500:10574   */\n      swap2\n      pop\n        /* \"#utility.yul\":10583:10676   */\n      tag_321\n        /* \"#utility.yul\":10672:10675   */\n      dup3\n        /* \"#utility.yul\":10583:10676   */\n      tag_203\n      jump\t// in\n    tag_321:\n        /* \"#utility.yul\":10701:10703   */\n      0x40\n        /* \"#utility.yul\":10696:10699   */\n      dup3\n        /* \"#utility.yul\":10692:10704   */\n      add\n        /* \"#utility.yul\":10685:10704   */\n      swap1\n      pop\n        /* \"#utility.yul\":10344:10710   */\n      swap2\n      swap1\n      pop\n      jump\t// out\n        /* \"#utility.yul\":10716:11135   */\n    tag_136:\n        /* \"#utility.yul\":10882:10886   */\n      0x00\n        /* \"#utility.yul\":10920:10922   */\n      0x20\n        /* \"#utility.yul\":10909:10918   */\n      dup3\n        /* \"#utility.yul\":10905:10923   */\n      add\n        /* \"#utility.yul\":10897:10923   */\n      swap1\n      pop\n        /* \"#utility.yul\":10969:10978   */\n      dup2\n        /* \"#utility.yul\":10963:10967   */\n      dup2\n        /* \"#utility.yul\":10959:10979   */\n      sub\n        /* \"#utility.yul\":10955:10956   */\n      0x00\n        /* \"#utility.yul\":10944:10953   */\n      dup4\n        /* \"#utility.yul\":10940:10957   */\n      add\n        /* \"#utility.yul\":10933:10980   */\n      mstore\n        /* \"#utility.yul\":10997:11128   */\n      tag_323\n        /* \"#utility.yul\":11123:11127   */\n      dup2\n        /* \"#utility.yul\":10997:11128   */\n      tag_204\n      jump\t// in\n    tag_323:\n        /* \"#utility.yul\":10989:11128   */\n      swap1\n      pop\n        /* \"#utility.yul\":10716:11135   */\n      swap2\n      swap1\n      pop\n      jump\t// out\n        /* \"#utility.yul\":11141:11362   */\n    tag_205:\n        /* \"#utility.yul\":11281:11315   */\n      0x45524332303a20617070726f766520746f20746865207a65726f206164647265\n        /* \"#utility.yul\":11277:11278   */\n      0x00\n        /* \"#utility.yul\":11269:11275   */\n      dup3\n        /* \"#utility.yul\":11265:11279   */\n      add\n        /* \"#utility.yul\":11258:11316   */\n      mstore\n        /* \"#utility.yul\":11350:11354   */\n      0x7373000000000000000000000000000000000000000000000000000000000000\n        /* \"#utility.yul\":11345:11347   */\n      0x20\n        /* \"#utility.yul\":11337:11343   */\n      dup3\n        /* \"#utility.yul\":11333:11348   */\n      add\n        /* \"#utility.yul\":11326:11355   */\n      mstore\n        /* \"#utility.yul\":11141:11362   */\n      pop\n      jump\t// out\n        /* \"#utility.yul\":11368:11734   */\n    tag_206:\n        /* \"#utility.yul\":11510:11513   */\n      0x00\n        /* \"#utility.yul\":11531:11598   */\n      tag_326\n        /* \"#utility.yul\":11595:11597   */\n      0x22\n        /* \"#utility.yul\":11590:11593   */\n      dup4\n        /* \"#utility.yul\":11531:11598   */\n      tag_176\n      jump\t// in\n    tag_326:\n        /* \"#utility.yul\":11524:11598   */\n      swap2\n      pop\n        /* \"#utility.yul\":11607:11700   */\n      tag_327\n        /* \"#utility.yul\":11696:11699   */\n      dup3\n        /* \"#utility.yul\":11607:11700   */\n      tag_205\n      jump\t// in\n    tag_327:\n        /* \"#utility.yul\":11725:11727   */\n      0x40\n        /* \"#utility.yul\":11720:11723   */\n      dup3\n        /* \"#utility.yul\":11716:11728   */\n      add\n        /* \"#utility.yul\":11709:11728   */\n      swap1\n      pop\n        /* \"#utility.yul\":11368:11734   */\n      swap2\n      swap1\n      pop\n      jump\t// out\n        /* \"#utility.yul\":11740:12159   */\n    tag_139:\n        /* \"#utility.yul\":11906:11910   */\n      0x00\n        /* \"#utility.yul\":11944:11946   */\n      0x20\n        /* \"#utility.yul\":11933:11942   */\n      dup3\n        /* \"#utility.yul\":11929:11947   */\n      add\n        /* \"#utility.yul\":11921:11947   */\n      swap1\n      pop\n        /* \"#utility.yul\":11993:12002   */\n      dup2\n        /* \"#utility.yul\":11987:11991   */\n      dup2\n        /* \"#utility.yul\":11983:12003   */\n      sub\n        /* \"#utility.yul\":11979:11980   */\n      0x00\n        /* \"#utility.yul\":11968:11977   */\n      dup4\n        /* \"#utility.yul\":11964:11981   */\n      add\n        /* \"#utility.yul\":11957:12004   */\n      mstore\n        /* \"#utility.yul\":12021:12152   */\n      tag_329\n        /* \"#utility.yul\":12147:12151   */\n      dup2\n        /* \"#utility.yul\":12021:12152   */\n      tag_206\n      jump\t// in\n    tag_329:\n        /* \"#utility.yul\":12013:12152   */\n      swap1\n      pop\n        /* \"#utility.yul\":11740:12159   */\n      swap2\n      swap1\n      pop\n      jump\t// out\n        /* \"#utility.yul\":12165:12344   */\n    tag_207:\n        /* \"#utility.yul\":12305:12336   */\n      0x45524332303a20696e73756666696369656e7420616c6c6f77616e6365000000\n        /* \"#utility.yul\":12301:12302   */\n      0x00\n        /* \"#utility.yul\":12293:12299   */\n      dup3\n        /* \"#utility.yul\":12289:12303   */\n      add\n        /* \"#utility.yul\":12282:12337   */\n      mstore\n        /* \"#utility.yul\":12165:12344   */\n      pop\n      jump\t// out\n        /* \"#utility.yul\":12350:12716   */\n    tag_208:\n        /* \"#utility.yul\":12492:12495   */\n      0x00\n        /* \"#utility.yul\":12513:12580   */\n      tag_332\n        /* \"#utility.yul\":12577:12579   */\n      0x1d\n        /* \"#utility.yul\":12572:12575   */\n      dup4\n        /* \"#utility.yul\":12513:12580   */\n      tag_176\n      jump\t// in\n    tag_332:\n        /* \"#utility.yul\":12506:12580   */\n      swap2\n      pop\n        /* \"#utility.yul\":12589:12682   */\n      tag_333\n        /* \"#utility.yul\":12678:12681   */\n      dup3\n        /* \"#utility.yul\":12589:12682   */\n      tag_207\n      jump\t// in\n    tag_333:\n        /* \"#utility.yul\":12707:12709   */\n      0x20\n        /* \"#utility.yul\":12702:12705   */\n      dup3\n        /* \"#utility.yul\":12698:12710   */\n      add\n        /* \"#utility.yul\":12691:12710   */\n      swap1\n      pop\n        /* \"#utility.yul\":12350:12716   */\n      swap2\n      swap1\n      pop\n      jump\t// out\n        /* \"#utility.yul\":12722:13141   */\n    tag_146:\n        /* \"#utility.yul\":12888:12892   */\n      0x00\n        /* \"#utility.yul\":12926:12928   */\n      0x20\n        /* \"#utility.yul\":12915:12924   */\n      dup3\n        /* \"#utility.yul\":12911:12929   */\n      add\n        /* \"#utility.yul\":12903:12929   */\n      swap1\n      pop\n        /* \"#utility.yul\":12975:12984   */\n      dup2\n        /* \"#utility.yul\":12969:12973   */\n      dup2\n        /* \"#utility.yul\":12965:12985   */\n      sub\n        /* \"#utility.yul\":12961:12962   */\n      0x00\n        /* \"#utility.yul\":12950:12959   */\n      dup4\n        /* \"#utility.yul\":12946:12963   */\n      add\n        /* \"#utility.yul\":12939:12986   */\n      mstore\n        /* \"#utility.yul\":13003:13134   */\n      tag_335\n        /* \"#utility.yul\":13129:13133   */\n      dup2\n        /* \"#utility.yul\":13003:13134   */\n      tag_208\n      jump\t// in\n    tag_335:\n        /* \"#utility.yul\":12995:13134   */\n      swap1\n      pop\n        /* \"#utility.yul\":12722:13141   */\n      swap2\n      swap1\n      pop\n      jump\t// out\n        /* \"#utility.yul\":13147:13371   */\n    tag_209:\n        /* \"#utility.yul\":13287:13321   */\n      0x45524332303a207472616e736665722066726f6d20746865207a65726f206164\n        /* \"#utility.yul\":13283:13284   */\n      0x00\n        /* \"#utility.yul\":13275:13281   */\n      dup3\n        /* \"#utility.yul\":13271:13285   */\n      add\n        /* \"#utility.yul\":13264:13322   */\n      mstore\n        /* \"#utility.yul\":13356:13363   */\n      0x6472657373000000000000000000000000000000000000000000000000000000\n        /* \"#utility.yul\":13351:13353   */\n      0x20\n        /* \"#utility.yul\":13343:13349   */\n      dup3\n        /* \"#utility.yul\":13339:13354   */\n      add\n        /* \"#utility.yul\":13332:13364   */\n      mstore\n        /* \"#utility.yul\":13147:13371   */\n      pop\n      jump\t// out\n        /* \"#utility.yul\":13377:13743   */\n    tag_210:\n        /* \"#utility.yul\":13519:13522   */\n      0x00\n        /* \"#utility.yul\":13540:13607   */\n      tag_338\n        /* \"#utility.yul\":13604:13606   */\n      0x25\n        /* \"#utility.yul\":13599:13602   */\n      dup4\n        /* \"#utility.yul\":13540:13607   */\n      tag_176\n      jump\t// in\n    tag_338:\n        /* \"#utility.yul\":13533:13607   */\n      swap2\n      pop\n        /* \"#utility.yul\":13616:13709   */\n      tag_339\n        /* \"#utility.yul\":13705:13708   */\n      dup3\n        /* \"#utility.yul\":13616:13709   */\n      tag_209\n      jump\t// in\n    tag_339:\n        /* \"#utility.yul\":13734:13736   */\n      0x40\n        /* \"#utility.yul\":13729:13732   */\n      dup3\n        /* \"#utility.yul\":13725:13737   */\n      add\n        /* \"#utility.yul\":13718:13737   */\n      swap1\n      pop\n        /* \"#utility.yul\":13377:13743   */\n      swap2\n      swap1\n      pop\n      jump\t// out\n        /* \"#utility.yul\":13749:14168   */\n    tag_151:\n        /* \"#utility.yul\":13915:13919   */\n      0x00\n        /* \"#utility.yul\":13953:13955   */\n      0x20\n        /* \"#utility.yul\":13942:13951   */\n      dup3\n        /* \"#utility.yul\":13938:13956   */\n      add\n        /* \"#utility.yul\":13930:13956   */\n      swap1\n      pop\n        /* \"#utility.yul\":14002:14011   */\n      dup2\n        /* \"#utility.yul\":13996:14000   */\n      dup2\n        /* \"#utility.yul\":13992:14012   */\n      sub\n        /* \"#utility.yul\":13988:13989   */\n      0x00\n        /* \"#utility.yul\":13977:13986   */\n      dup4\n        /* \"#utility.yul\":13973:13990   */\n      add\n        /* \"#utility.yul\":13966:14013   */\n      mstore\n        /* \"#utility.yul\":14030:14161   */\n      tag_341\n        /* \"#utility.yul\":14156:14160   */\n      dup2\n        /* \"#utility.yul\":14030:14161   */\n      tag_210\n      jump\t// in\n    tag_341:\n        /* \"#utility.yul\":14022:14161   */\n      swap1\n      pop\n        /* \"#utility.yul\":13749:14168   */\n      swap2\n      swap1\n      pop\n      jump\t// out\n        /* \"#utility.yul\":14174:14396   */\n    tag_211:\n        /* \"#utility.yul\":14314:14348   */\n      0x45524332303a207472616e7366657220746f20746865207a65726f2061646472\n        /* \"#utility.yul\":14310:14311   */\n      0x00\n        /* \"#utility.yul\":14302:14308   */\n      dup3\n        /* \"#utility.yul\":14298:14312   */\n      add\n        /* \"#utility.yul\":14291:14349   */\n      mstore\n        /* \"#utility.yul\":14383:14388   */\n      0x6573730000000000000000000000000000000000000000000000000000000000\n        /* \"#utility.yul\":14378:14380   */\n      0x20\n        /* \"#utility.yul\":14370:14376   */\n      dup3\n        /* \"#utility.yul\":14366:14381   */\n      add\n        /* \"#utility.yul\":14359:14389   */\n      mstore\n        /* \"#utility.yul\":14174:14396   */\n      pop\n      jump\t// out\n        /* \"#utility.yul\":14402:14768   */\n    tag_212:\n        /* \"#utility.yul\":14544:14547   */\n      0x00\n        /* \"#utility.yul\":14565:14632   */\n      tag_344\n        /* \"#utility.yul\":14629:14631   */\n      0x23\n        /* \"#utility.yul\":14624:14627   */\n      dup4\n        /* \"#utility.yul\":14565:14632   */\n      tag_176\n      jump\t// in\n    tag_344:\n        /* \"#utility.yul\":14558:14632   */\n      swap2\n      pop\n        /* \"#utility.yul\":14641:14734   */\n      tag_345\n        /* \"#utility.yul\":14730:14733   */\n      dup3\n        /* \"#utility.yul\":14641:14734   */\n      tag_211\n      jump\t// in\n    tag_345:\n        /* \"#utility.yul\":14759:14761   */\n      0x40\n        /* \"#utility.yul\":14754:14757   */\n      dup3\n        /* \"#utility.yul\":14750:14762   */\n      add\n        /* \"#utility.yul\":14743:14762   */\n      swap1\n      pop\n        /* \"#utility.yul\":14402:14768   */\n      swap2\n      swap1\n      pop\n      jump\t// out\n        /* \"#utility.yul\":14774:15193   */\n    tag_154:\n        /* \"#utility.yul\":14940:14944   */\n      0x00\n        /* \"#utility.yul\":14978:14980   */\n      0x20\n        /* \"#utility.yul\":14967:14976   */\n      dup3\n        /* \"#utility.yul\":14963:14981   */\n      add\n        /* \"#utility.yul\":14955:14981   */\n      swap1\n      pop\n        /* \"#utility.yul\":15027:15036   */\n      dup2\n        /* \"#utility.yul\":15021:15025   */\n      dup2\n        /* \"#utility.yul\":15017:15037   */\n      sub\n        /* \"#utility.yul\":15013:15014   */\n      0x00\n        /* \"#utility.yul\":15002:15011   */\n      dup4\n        /* \"#utility.yul\":14998:15015   */\n      add\n        /* \"#utility.yul\":14991:15038   */\n      mstore\n        /* \"#utility.yul\":15055:15186   */\n      tag_347\n        /* \"#utility.yul\":15181:15185   */\n      dup2\n        /* \"#utility.yul\":15055:15186   */\n      tag_212\n      jump\t// in\n    tag_347:\n        /* \"#utility.yul\":15047:15186   */\n      swap1\n      pop\n        /* \"#utility.yul\":14774:15193   */\n      swap2\n      swap1\n      pop\n      jump\t// out\n        /* \"#utility.yul\":15199:15424   */\n    tag_213:\n        /* \"#utility.yul\":15339:15373   */\n      0x45524332303a207472616e7366657220616d6f756e7420657863656564732062\n        /* \"#utility.yul\":15335:15336   */\n      0x00\n        /* \"#utility.yul\":15327:15333   */\n      dup3\n        /* \"#utility.yul\":15323:15337   */\n      add\n        /* \"#utility.yul\":15316:15374   */\n      mstore\n        /* \"#utility.yul\":15408:15416   */\n      0x616c616e63650000000000000000000000000000000000000000000000000000\n        /* \"#utility.yul\":15403:15405   */\n      0x20\n        /* \"#utility.yul\":15395:15401   */\n      dup3\n        /* \"#utility.yul\":15391:15406   */\n      add\n        /* \"#utility.yul\":15384:15417   */\n      mstore\n        /* \"#utility.yul\":15199:15424   */\n      pop\n      jump\t// out\n        /* \"#utility.yul\":15430:15796   */\n    tag_214:\n        /* \"#utility.yul\":15572:15575   */\n      0x00\n        /* \"#utility.yul\":15593:15660   */\n      tag_350\n        /* \"#utility.yul\":15657:15659   */\n      0x26\n        /* \"#utility.yul\":15652:15655   */\n      dup4\n        /* \"#utility.yul\":15593:15660   */\n      tag_176\n      jump\t// in\n    tag_350:\n        /* \"#utility.yul\":15586:15660   */\n      swap2\n      pop\n        /* \"#utility.yul\":15669:15762   */\n      tag_351\n        /* \"#utility.yul\":15758:15761   */\n      dup3\n        /* \"#utility.yul\":15669:15762   */\n      tag_213\n      jump\t// in\n    tag_351:\n        /* \"#utility.yul\":15787:15789   */\n      0x40\n        /* \"#utility.yul\":15782:15785   */\n      dup3\n        /* \"#utility.yul\":15778:15790   */\n      add\n        /* \"#utility.yul\":15771:15790   */\n      swap1\n      pop\n        /* \"#utility.yul\":15430:15796   */\n      swap2\n      swap1\n      pop\n      jump\t// out\n        /* \"#utility.yul\":15802:16221   */\n    tag_159:\n        /* \"#utility.yul\":15968:15972   */\n      0x00\n        /* \"#utility.yul\":16006:16008   */\n      0x20\n        /* \"#utility.yul\":15995:16004   */\n      dup3\n        /* \"#utility.yul\":15991:16009   */\n      add\n        /* \"#utility.yul\":15983:16009   */\n      swap1\n      pop\n        /* \"#utility.yul\":16055:16064   */\n      dup2\n        /* \"#utility.yul\":16049:16053   */\n      dup2\n        /* \"#utility.yul\":16045:16065   */\n      sub\n        /* \"#utility.yul\":16041:16042   */\n      0x00\n        /* \"#utility.yul\":16030:16039   */\n      dup4\n        /* \"#utility.yul\":16026:16043   */\n      add\n        /* \"#utility.yul\":16019:16066   */\n      mstore\n        /* \"#utility.yul\":16083:16214   */\n      tag_353\n        /* \"#utility.yul\":16209:16213   */\n      dup2\n        /* \"#utility.yul\":16083:16214   */\n      tag_214\n      jump\t// in\n    tag_353:\n        /* \"#utility.yul\":16075:16214   */\n      swap1\n      pop\n        /* \"#utility.yul\":15802:16221   */\n      swap2\n      swap1\n      pop\n      jump\t// out\n        /* \"#utility.yul\":16227:16408   */\n    tag_215:\n        /* \"#utility.yul\":16367:16400   */\n      0x45524332303a206d696e7420746f20746865207a65726f206164647265737300\n        /* \"#utility.yul\":16363:16364   */\n      0x00\n        /* \"#utility.yul\":16355:16361   */\n      dup3\n        /* \"#utility.yul\":16351:16365   */\n      add\n        /* \"#utility.yul\":16344:16401   */\n      mstore\n        /* \"#utility.yul\":16227:16408   */\n      pop\n      jump\t// out\n        /* \"#utility.yul\":16414:16780   */\n    tag_216:\n        /* \"#utility.yul\":16556:16559   */\n      0x00\n        /* \"#utility.yul\":16577:16644   */\n      tag_356\n        /* \"#utility.yul\":16641:16643   */\n      0x1f\n        /* \"#utility.yul\":16636:16639   */\n      dup4\n        /* \"#utility.yul\":16577:16644   */\n      tag_176\n      jump\t// in\n    tag_356:\n        /* \"#utility.yul\":16570:16644   */\n      swap2\n      pop\n        /* \"#utility.yul\":16653:16746   */\n      tag_357\n        /* \"#utility.yul\":16742:16745   */\n      dup3\n        /* \"#utility.yul\":16653:16746   */\n      tag_215\n      jump\t// in\n    tag_357:\n        /* \"#utility.yul\":16771:16773   */\n      0x20\n        /* \"#utility.yul\":16766:16769   */\n      dup3\n        /* \"#utility.yul\":16762:16774   */\n      add\n        /* \"#utility.yul\":16755:16774   */\n      swap1\n      pop\n        /* \"#utility.yul\":16414:16780   */\n      swap2\n      swap1\n      pop\n      jump\t// out\n        /* \"#utility.yul\":16786:17205   */\n    tag_167:\n        /* \"#utility.yul\":16952:16956   */\n      0x00\n        /* \"#utility.yul\":16990:16992   */\n      0x20\n        /* \"#utility.yul\":16979:16988   */\n      dup3\n        /* \"#utility.yul\":16975:16993   */\n      add\n        /* \"#utility.yul\":16967:16993   */\n      swap1\n      pop\n        /* \"#utility.yul\":17039:17048   */\n      dup2\n        /* \"#utility.yul\":17033:17037   */\n      dup2\n        /* \"#utility.yul\":17029:17049   */\n      sub\n        /* \"#utility.yul\":17025:17026   */\n      0x00\n        /* \"#utility.yul\":17014:17023   */\n      dup4\n        /* \"#utility.yul\":17010:17027   */\n      add\n        /* \"#utility.yul\":17003:17050   */\n      mstore\n        /* \"#utility.yul\":17067:17198   */\n      tag_359\n        /* \"#utility.yul\":17193:17197   */\n      dup2\n        /* \"#utility.yul\":17067:17198   */\n      tag_216\n      jump\t// in\n    tag_359:\n        /* \"#utility.yul\":17059:17198   */\n      swap1\n      pop\n        /* \"#utility.yul\":16786:17205   */\n      swap2\n      swap1\n      pop\n      jump\t// out\n\n    auxdata: 0xa2646970667358221220abc1988dc203f5930dc12c6f7f14f301270fb3aeaa26a9c67ad32d5b85d55ffb64736f6c634300080d0033\n}\n",
				"bytecode": {
					"linkReferences": {},
					"object": "60806040523480156200001157600080fd5b506040518060400160405280600b81526020017f5061756c796e746f6b656e0000000000000000000000000000000000000000008152506040518060400160405280600381526020017f504e54000000000000000000000000000000000000000000000000000000000081525081600390805190602001906200009692919062000270565b508060049080519060200190620000af92919062000270565b5050506103e860058190555069d3c21bcecceda1000000600681905550620000e83369010f0cf064dd59200000620000ee60201b60201c565b620004cb565b600073ffffffffffffffffffffffffffffffffffffffff168273ffffffffffffffffffffffffffffffffffffffff160362000160576040517f08c379a0000000000000000000000000000000000000000000000000000000008152600401620001579062000381565b60405180910390fd5b62000174600083836200026660201b60201c565b8060026000828254620001889190620003dc565b92505081905550806000808473ffffffffffffffffffffffffffffffffffffffff1673ffffffffffffffffffffffffffffffffffffffff1681526020019081526020016000206000828254620001df9190620003dc565b925050819055508173ffffffffffffffffffffffffffffffffffffffff16600073ffffffffffffffffffffffffffffffffffffffff167fddf252ad1be2c89b69c2b068fc378daa952ba7f163c4a11628f55a4df523b3ef836040516200024691906200044a565b60405180910390a362000262600083836200026b60201b60201c565b5050565b505050565b505050565b8280546200027e9062000496565b90600052602060002090601f016020900481019282620002a25760008555620002ee565b82601f10620002bd57805160ff1916838001178555620002ee565b82800160010185558215620002ee579182015b82811115620002ed578251825591602001919060010190620002d0565b5b509050620002fd919062000301565b5090565b5b808211156200031c57600081600090555060010162000302565b5090565b600082825260208201905092915050565b7f45524332303a206d696e7420746f20746865207a65726f206164647265737300600082015250565b600062000369601f8362000320565b9150620003768262000331565b602082019050919050565b600060208201905081810360008301526200039c816200035a565b9050919050565b6000819050919050565b7f4e487b7100000000000000000000000000000000000000000000000000000000600052601160045260246000fd5b6000620003e982620003a3565b9150620003f683620003a3565b9250827fffffffffffffffffffffffffffffffffffffffffffffffffffffffffffffffff038211156200042e576200042d620003ad565b5b828201905092915050565b6200044481620003a3565b82525050565b600060208201905062000461600083018462000439565b92915050565b7f4e487b7100000000000000000000000000000000000000000000000000000000600052602260045260246000fd5b60006002820490506001821680620004af57607f821691505b602082108103620004c557620004c462000467565b5b50919050565b6117cf80620004db6000396000f3fe6080604052600436106100a75760003560e01c806370a082311161006457806370a08231146101e45780637e72fb521461022157806395d89b411461023d578063a457c2d714610268578063a9059cbb146102a5578063dd62ed3e146102e2576100a7565b806306fdde03146100ac578063095ea7b3146100d757806318160ddd1461011457806323b872dd1461013f578063313ce5671461017c57806339509351146101a7575b600080fd5b3480156100b857600080fd5b506100c161031f565b6040516100ce9190610ec6565b60405180910390f35b3480156100e357600080fd5b506100fe60048036038101906100f99190610f81565b6103b1565b60405161010b9190610fdc565b60405180910390f35b34801561012057600080fd5b506101296103d4565b6040516101369190611006565b60405180910390f35b34801561014b57600080fd5b5061016660048036038101906101619190611021565b6103de565b6040516101739190610fdc565b60405180910390f35b34801561018857600080fd5b5061019161040d565b60405161019e9190611090565b60405180910390f35b3480156101b357600080fd5b506101ce60048036038101906101c99190610f81565b610416565b6040516101db9190610fdc565b60405180910390f35b3480156101f057600080fd5b5061020b600480360381019061020691906110ab565b6104c0565b6040516102189190611006565b60405180910390f35b61023b600480360381019061023691906110ab565b610508565b005b34801561024957600080fd5b506102526105c2565b60405161025f9190610ec6565b60405180910390f35b34801561027457600080fd5b5061028f600480360381019061028a9190610f81565b610654565b60405161029c9190610fdc565b60405180910390f35b3480156102b157600080fd5b506102cc60048036038101906102c79190610f81565b61073e565b6040516102d99190610fdc565b60405180910390f35b3480156102ee57600080fd5b50610309600480360381019061030491906110d8565b610761565b6040516103169190611006565b60405180910390f35b60606003805461032e90611147565b80601f016020809104026020016040519081016040528092919081815260200182805461035a90611147565b80156103a75780601f1061037c576101008083540402835291602001916103a7565b820191906000526020600020905b81548152906001019060200180831161038a57829003601f168201915b5050505050905090565b6000806103bc6107e8565b90506103c98185856107f0565b600191505092915050565b6000600254905090565b6000806103e96107e8565b90506103f68582856109b9565b610401858585610a45565b60019150509392505050565b60006012905090565b6000806104216107e8565b90506104b5818585600160008673ffffffffffffffffffffffffffffffffffffffff1673ffffffffffffffffffffffffffffffffffffffff16815260200190815260200160002060008973ffffffffffffffffffffffffffffffffffffffff1673ffffffffffffffffffffffffffffffffffffffff168152602001908152602001600020546104b091906111a7565b6107f0565b600191505092915050565b60008060008373ffffffffffffffffffffffffffffffffffffffff1673ffffffffffffffffffffffffffffffffffffffff168152602001908152602001600020549050919050565b6000341161054b576040517f08c379a00000000000000000000000000000000000000000000000000000000081526004016105429061126f565b60405180910390fd5b60006005543461055b919061128f565b9050806105666103d4565b61057091906111a7565b60065410156105b4576040517f08c379a00000000000000000000000000000000000000000000000000000000081526004016105ab90611335565b60405180910390fd5b6105be8282610cc4565b5050565b6060600480546105d190611147565b80601f01602080910402602001604051908101604052809291908181526020018280546105fd90611147565b801561064a5780601f1061061f5761010080835404028352916020019161064a565b820191906000526020600020905b81548152906001019060200180831161062d57829003601f168201915b5050505050905090565b60008061065f6107e8565b90506000600160008373ffffffffffffffffffffffffffffffffffffffff1673ffffffffffffffffffffffffffffffffffffffff16815260200190815260200160002060008673ffffffffffffffffffffffffffffffffffffffff1673ffffffffffffffffffffffffffffffffffffffff16815260200190815260200160002054905083811015610725576040517f08c379a000000000000000000000000000000000000000000000000000000000815260040161071c906113c7565b60405180910390fd5b61073282868684036107f0565b60019250505092915050565b6000806107496107e8565b9050610756818585610a45565b600191505092915050565b6000600160008473ffffffffffffffffffffffffffffffffffffffff1673ffffffffffffffffffffffffffffffffffffffff16815260200190815260200160002060008373ffffffffffffffffffffffffffffffffffffffff1673ffffffffffffffffffffffffffffffffffffffff16815260200190815260200160002054905092915050565b600033905090565b600073ffffffffffffffffffffffffffffffffffffffff168373ffffffffffffffffffffffffffffffffffffffff160361085f576040517f08c379a000000000000000000000000000000000000000000000000000000000815260040161085690611459565b60405180910390fd5b600073ffffffffffffffffffffffffffffffffffffffff168273ffffffffffffffffffffffffffffffffffffffff16036108ce576040517f08c379a00000000000000000000000000000000000000000000000000000000081526004016108c5906114eb565b60405180910390fd5b80600160008573ffffffffffffffffffffffffffffffffffffffff1673ffffffffffffffffffffffffffffffffffffffff16815260200190815260200160002060008473ffffffffffffffffffffffffffffffffffffffff1673ffffffffffffffffffffffffffffffffffffffff168152602001908152602001600020819055508173ffffffffffffffffffffffffffffffffffffffff168373ffffffffffffffffffffffffffffffffffffffff167f8c5be1e5ebec7d5bd14f71427d1e84f3dd0314c0f7b2291e5b200ac8c7c3b925836040516109ac9190611006565b60405180910390a3505050565b60006109c58484610761565b90507fffffffffffffffffffffffffffffffffffffffffffffffffffffffffffffffff8114610a3f5781811015610a31576040517f08c379a0000000000000000000000000000000000000000000000000000000008152600401610a2890611557565b60405180910390fd5b610a3e84848484036107f0565b5b50505050565b600073ffffffffffffffffffffffffffffffffffffffff168373ffffffffffffffffffffffffffffffffffffffff1603610ab4576040517f08c379a0000000000000000000000000000000000000000000000000000000008152600401610aab906115e9565b60405180910390fd5b600073ffffffffffffffffffffffffffffffffffffffff168273ffffffffffffffffffffffffffffffffffffffff1603610b23576040517f08c379a0000000000000000000000000000000000000000000000000000000008152600401610b1a9061167b565b60405180910390fd5b610b2e838383610e23565b60008060008573ffffffffffffffffffffffffffffffffffffffff1673ffffffffffffffffffffffffffffffffffffffff16815260200190815260200160002054905081811015610bb4576040517f08c379a0000000000000000000000000000000000000000000000000000000008152600401610bab9061170d565b60405180910390fd5b8181036000808673ffffffffffffffffffffffffffffffffffffffff1673ffffffffffffffffffffffffffffffffffffffff16815260200190815260200160002081905550816000808573ffffffffffffffffffffffffffffffffffffffff1673ffffffffffffffffffffffffffffffffffffffff1681526020019081526020016000206000828254610c4791906111a7565b925050819055508273ffffffffffffffffffffffffffffffffffffffff168473ffffffffffffffffffffffffffffffffffffffff167fddf252ad1be2c89b69c2b068fc378daa952ba7f163c4a11628f55a4df523b3ef84604051610cab9190611006565b60405180910390a3610cbe848484610e28565b50505050565b600073ffffffffffffffffffffffffffffffffffffffff168273ffffffffffffffffffffffffffffffffffffffff1603610d33576040517f08c379a0000000000000000000000000000000000000000000000000000000008152600401610d2a90611779565b60405180910390fd5b610d3f60008383610e23565b8060026000828254610d5191906111a7565b92505081905550806000808473ffffffffffffffffffffffffffffffffffffffff1673ffffffffffffffffffffffffffffffffffffffff1681526020019081526020016000206000828254610da691906111a7565b925050819055508173ffffffffffffffffffffffffffffffffffffffff16600073ffffffffffffffffffffffffffffffffffffffff167fddf252ad1be2c89b69c2b068fc378daa952ba7f163c4a11628f55a4df523b3ef83604051610e0b9190611006565b60405180910390a3610e1f60008383610e28565b5050565b505050565b505050565b600081519050919050565b600082825260208201905092915050565b60005b83811015610e67578082015181840152602081019050610e4c565b83811115610e76576000848401525b50505050565b6000601f19601f8301169050919050565b6000610e9882610e2d565b610ea28185610e38565b9350610eb2818560208601610e49565b610ebb81610e7c565b840191505092915050565b60006020820190508181036000830152610ee08184610e8d565b905092915050565b600080fd5b600073ffffffffffffffffffffffffffffffffffffffff82169050919050565b6000610f1882610eed565b9050919050565b610f2881610f0d565b8114610f3357600080fd5b50565b600081359050610f4581610f1f565b92915050565b6000819050919050565b610f5e81610f4b565b8114610f6957600080fd5b50565b600081359050610f7b81610f55565b92915050565b60008060408385031215610f9857610f97610ee8565b5b6000610fa685828601610f36565b9250506020610fb785828601610f6c565b9150509250929050565b60008115159050919050565b610fd681610fc1565b82525050565b6000602082019050610ff16000830184610fcd565b92915050565b61100081610f4b565b82525050565b600060208201905061101b6000830184610ff7565b92915050565b60008060006060848603121561103a57611039610ee8565b5b600061104886828701610f36565b935050602061105986828701610f36565b925050604061106a86828701610f6c565b9150509250925092565b600060ff82169050919050565b61108a81611074565b82525050565b60006020820190506110a56000830184611081565b92915050565b6000602082840312156110c1576110c0610ee8565b5b60006110cf84828501610f36565b91505092915050565b600080604083850312156110ef576110ee610ee8565b5b60006110fd85828601610f36565b925050602061110e85828601610f36565b9150509250929050565b7f4e487b7100000000000000000000000000000000000000000000000000000000600052602260045260246000fd5b6000600282049050600182168061115f57607f821691505b60208210810361117257611171611118565b5b50919050565b7f4e487b7100000000000000000000000000000000000000000000000000000000600052601160045260246000fd5b60006111b282610f4b565b91506111bd83610f4b565b9250827fffffffffffffffffffffffffffffffffffffffffffffffffffffffffffffffff038211156111f2576111f1611178565b5b828201905092915050565b7f596f75206e656564206d6f7265206d6f6e657920666f7220746869732074726160008201527f6e73616374696f6e000000000000000000000000000000000000000000000000602082015250565b6000611259602883610e38565b9150611264826111fd565b604082019050919050565b600060208201905081810360008301526112888161124c565b9050919050565b600061129a82610f4b565b91506112a583610f4b565b9250817fffffffffffffffffffffffffffffffffffffffffffffffffffffffffffffffff04831182151516156112de576112dd611178565b5b828202905092915050565b7f43616e6e6f742045786365656420466978656420537570706c79000000000000600082015250565b600061131f601a83610e38565b915061132a826112e9565b602082019050919050565b6000602082019050818103600083015261134e81611312565b9050919050565b7f45524332303a2064656372656173656420616c6c6f77616e63652062656c6f7760008201527f207a65726f000000000000000000000000000000000000000000000000000000602082015250565b60006113b1602583610e38565b91506113bc82611355565b604082019050919050565b600060208201905081810360008301526113e0816113a4565b9050919050565b7f45524332303a20617070726f76652066726f6d20746865207a65726f2061646460008201527f7265737300000000000000000000000000000000000000000000000000000000602082015250565b6000611443602483610e38565b915061144e826113e7565b604082019050919050565b6000602082019050818103600083015261147281611436565b9050919050565b7f45524332303a20617070726f766520746f20746865207a65726f20616464726560008201527f7373000000000000000000000000000000000000000000000000000000000000602082015250565b60006114d5602283610e38565b91506114e082611479565b604082019050919050565b60006020820190508181036000830152611504816114c8565b9050919050565b7f45524332303a20696e73756666696369656e7420616c6c6f77616e6365000000600082015250565b6000611541601d83610e38565b915061154c8261150b565b602082019050919050565b6000602082019050818103600083015261157081611534565b9050919050565b7f45524332303a207472616e736665722066726f6d20746865207a65726f20616460008201527f6472657373000000000000000000000000000000000000000000000000000000602082015250565b60006115d3602583610e38565b91506115de82611577565b604082019050919050565b60006020820190508181036000830152611602816115c6565b9050919050565b7f45524332303a207472616e7366657220746f20746865207a65726f206164647260008201527f6573730000000000000000000000000000000000000000000000000000000000602082015250565b6000611665602383610e38565b915061167082611609565b604082019050919050565b6000602082019050818103600083015261169481611658565b9050919050565b7f45524332303a207472616e7366657220616d6f756e742065786365656473206260008201527f616c616e63650000000000000000000000000000000000000000000000000000602082015250565b60006116f7602683610e38565b91506117028261169b565b604082019050919050565b60006020820190508181036000830152611726816116ea565b9050919050565b7f45524332303a206d696e7420746f20746865207a65726f206164647265737300600082015250565b6000611763601f83610e38565b915061176e8261172d565b602082019050919050565b6000602082019050818103600083015261179281611756565b905091905056fea2646970667358221220abc1988dc203f5930dc12c6f7f14f301270fb3aeaa26a9c67ad32d5b85d55ffb64736f6c634300080d0033",
					"opcodes": "PUSH1 0x80 PUSH1 0x40 MSTORE CALLVALUE DUP1 ISZERO PUSH3 0x11 JUMPI PUSH1 0x0 DUP1 REVERT JUMPDEST POP PUSH1 0x40 MLOAD DUP1 PUSH1 0x40 ADD PUSH1 0x40 MSTORE DUP1 PUSH1 0xB DUP2 MSTORE PUSH1 0x20 ADD PUSH32 0x5061756C796E746F6B656E000000000000000000000000000000000000000000 DUP2 MSTORE POP PUSH1 0x40 MLOAD DUP1 PUSH1 0x40 ADD PUSH1 0x40 MSTORE DUP1 PUSH1 0x3 DUP2 MSTORE PUSH1 0x20 ADD PUSH32 0x504E540000000000000000000000000000000000000000000000000000000000 DUP2 MSTORE POP DUP2 PUSH1 0x3 SWAP1 DUP1 MLOAD SWAP1 PUSH1 0x20 ADD SWAP1 PUSH3 0x96 SWAP3 SWAP2 SWAP1 PUSH3 0x270 JUMP JUMPDEST POP DUP1 PUSH1 0x4 SWAP1 DUP1 MLOAD SWAP1 PUSH1 0x20 ADD SWAP1 PUSH3 0xAF SWAP3 SWAP2 SWAP1 PUSH3 0x270 JUMP JUMPDEST POP POP POP PUSH2 0x3E8 PUSH1 0x5 DUP2 SWAP1 SSTORE POP PUSH10 0xD3C21BCECCEDA1000000 PUSH1 0x6 DUP2 SWAP1 SSTORE POP PUSH3 0xE8 CALLER PUSH10 0x10F0CF064DD59200000 PUSH3 0xEE PUSH1 0x20 SHL PUSH1 0x20 SHR JUMP JUMPDEST PUSH3 0x4CB JUMP JUMPDEST PUSH1 0x0 PUSH20 0xFFFFFFFFFFFFFFFFFFFFFFFFFFFFFFFFFFFFFFFF AND DUP3 PUSH20 0xFFFFFFFFFFFFFFFFFFFFFFFFFFFFFFFFFFFFFFFF AND SUB PUSH3 0x160 JUMPI PUSH1 0x40 MLOAD PUSH32 0x8C379A000000000000000000000000000000000000000000000000000000000 DUP2 MSTORE PUSH1 0x4 ADD PUSH3 0x157 SWAP1 PUSH3 0x381 JUMP JUMPDEST PUSH1 0x40 MLOAD DUP1 SWAP2 SUB SWAP1 REVERT JUMPDEST PUSH3 0x174 PUSH1 0x0 DUP4 DUP4 PUSH3 0x266 PUSH1 0x20 SHL PUSH1 0x20 SHR JUMP JUMPDEST DUP1 PUSH1 0x2 PUSH1 0x0 DUP3 DUP3 SLOAD PUSH3 0x188 SWAP2 SWAP1 PUSH3 0x3DC JUMP JUMPDEST SWAP3 POP POP DUP2 SWAP1 SSTORE POP DUP1 PUSH1 0x0 DUP1 DUP5 PUSH20 0xFFFFFFFFFFFFFFFFFFFFFFFFFFFFFFFFFFFFFFFF AND PUSH20 0xFFFFFFFFFFFFFFFFFFFFFFFFFFFFFFFFFFFFFFFF AND DUP2 MSTORE PUSH1 0x20 ADD SWAP1 DUP2 MSTORE PUSH1 0x20 ADD PUSH1 0x0 KECCAK256 PUSH1 0x0 DUP3 DUP3 SLOAD PUSH3 0x1DF SWAP2 SWAP1 PUSH3 0x3DC JUMP JUMPDEST SWAP3 POP POP DUP2 SWAP1 SSTORE POP DUP2 PUSH20 0xFFFFFFFFFFFFFFFFFFFFFFFFFFFFFFFFFFFFFFFF AND PUSH1 0x0 PUSH20 0xFFFFFFFFFFFFFFFFFFFFFFFFFFFFFFFFFFFFFFFF AND PUSH32 0xDDF252AD1BE2C89B69C2B068FC378DAA952BA7F163C4A11628F55A4DF523B3EF DUP4 PUSH1 0x40 MLOAD PUSH3 0x246 SWAP2 SWAP1 PUSH3 0x44A JUMP JUMPDEST PUSH1 0x40 MLOAD DUP1 SWAP2 SUB SWAP1 LOG3 PUSH3 0x262 PUSH1 0x0 DUP4 DUP4 PUSH3 0x26B PUSH1 0x20 SHL PUSH1 0x20 SHR JUMP JUMPDEST POP POP JUMP JUMPDEST POP POP POP JUMP JUMPDEST POP POP POP JUMP JUMPDEST DUP3 DUP1 SLOAD PUSH3 0x27E SWAP1 PUSH3 0x496 JUMP JUMPDEST SWAP1 PUSH1 0x0 MSTORE PUSH1 0x20 PUSH1 0x0 KECCAK256 SWAP1 PUSH1 0x1F ADD PUSH1 0x20 SWAP1 DIV DUP2 ADD SWAP3 DUP3 PUSH3 0x2A2 JUMPI PUSH1 0x0 DUP6 SSTORE PUSH3 0x2EE JUMP JUMPDEST DUP3 PUSH1 0x1F LT PUSH3 0x2BD JUMPI DUP1 MLOAD PUSH1 0xFF NOT AND DUP4 DUP1 ADD OR DUP6 SSTORE PUSH3 0x2EE JUMP JUMPDEST DUP3 DUP1 ADD PUSH1 0x1 ADD DUP6 SSTORE DUP3 ISZERO PUSH3 0x2EE JUMPI SWAP2 DUP3 ADD JUMPDEST DUP3 DUP2 GT ISZERO PUSH3 0x2ED JUMPI DUP3 MLOAD DUP3 SSTORE SWAP2 PUSH1 0x20 ADD SWAP2 SWAP1 PUSH1 0x1 ADD SWAP1 PUSH3 0x2D0 JUMP JUMPDEST JUMPDEST POP SWAP1 POP PUSH3 0x2FD SWAP2 SWAP1 PUSH3 0x301 JUMP JUMPDEST POP SWAP1 JUMP JUMPDEST JUMPDEST DUP1 DUP3 GT ISZERO PUSH3 0x31C JUMPI PUSH1 0x0 DUP2 PUSH1 0x0 SWAP1 SSTORE POP PUSH1 0x1 ADD PUSH3 0x302 JUMP JUMPDEST POP SWAP1 JUMP JUMPDEST PUSH1 0x0 DUP3 DUP3 MSTORE PUSH1 0x20 DUP3 ADD SWAP1 POP SWAP3 SWAP2 POP POP JUMP JUMPDEST PUSH32 0x45524332303A206D696E7420746F20746865207A65726F206164647265737300 PUSH1 0x0 DUP3 ADD MSTORE POP JUMP JUMPDEST PUSH1 0x0 PUSH3 0x369 PUSH1 0x1F DUP4 PUSH3 0x320 JUMP JUMPDEST SWAP2 POP PUSH3 0x376 DUP3 PUSH3 0x331 JUMP JUMPDEST PUSH1 0x20 DUP3 ADD SWAP1 POP SWAP2 SWAP1 POP JUMP JUMPDEST PUSH1 0x0 PUSH1 0x20 DUP3 ADD SWAP1 POP DUP2 DUP2 SUB PUSH1 0x0 DUP4 ADD MSTORE PUSH3 0x39C DUP2 PUSH3 0x35A JUMP JUMPDEST SWAP1 POP SWAP2 SWAP1 POP JUMP JUMPDEST PUSH1 0x0 DUP2 SWAP1 POP SWAP2 SWAP1 POP JUMP JUMPDEST PUSH32 0x4E487B7100000000000000000000000000000000000000000000000000000000 PUSH1 0x0 MSTORE PUSH1 0x11 PUSH1 0x4 MSTORE PUSH1 0x24 PUSH1 0x0 REVERT JUMPDEST PUSH1 0x0 PUSH3 0x3E9 DUP3 PUSH3 0x3A3 JUMP JUMPDEST SWAP2 POP PUSH3 0x3F6 DUP4 PUSH3 0x3A3 JUMP JUMPDEST SWAP3 POP DUP3 PUSH32 0xFFFFFFFFFFFFFFFFFFFFFFFFFFFFFFFFFFFFFFFFFFFFFFFFFFFFFFFFFFFFFFFF SUB DUP3 GT ISZERO PUSH3 0x42E JUMPI PUSH3 0x42D PUSH3 0x3AD JUMP JUMPDEST JUMPDEST DUP3 DUP3 ADD SWAP1 POP SWAP3 SWAP2 POP POP JUMP JUMPDEST PUSH3 0x444 DUP2 PUSH3 0x3A3 JUMP JUMPDEST DUP3 MSTORE POP POP JUMP JUMPDEST PUSH1 0x0 PUSH1 0x20 DUP3 ADD SWAP1 POP PUSH3 0x461 PUSH1 0x0 DUP4 ADD DUP5 PUSH3 0x439 JUMP JUMPDEST SWAP3 SWAP2 POP POP JUMP JUMPDEST PUSH32 0x4E487B7100000000000000000000000000000000000000000000000000000000 PUSH1 0x0 MSTORE PUSH1 0x22 PUSH1 0x4 MSTORE PUSH1 0x24 PUSH1 0x0 REVERT JUMPDEST PUSH1 0x0 PUSH1 0x2 DUP3 DIV SWAP1 POP PUSH1 0x1 DUP3 AND DUP1 PUSH3 0x4AF JUMPI PUSH1 0x7F DUP3 AND SWAP2 POP JUMPDEST PUSH1 0x20 DUP3 LT DUP2 SUB PUSH3 0x4C5 JUMPI PUSH3 0x4C4 PUSH3 0x467 JUMP JUMPDEST JUMPDEST POP SWAP2 SWAP1 POP JUMP JUMPDEST PUSH2 0x17CF DUP1 PUSH3 0x4DB PUSH1 0x0 CODECOPY PUSH1 0x0 RETURN INVALID PUSH1 0x80 PUSH1 0x40 MSTORE PUSH1 0x4 CALLDATASIZE LT PUSH2 0xA7 JUMPI PUSH1 0x0 CALLDATALOAD PUSH1 0xE0 SHR DUP1 PUSH4 0x70A08231 GT PUSH2 0x64 JUMPI DUP1 PUSH4 0x70A08231 EQ PUSH2 0x1E4 JUMPI DUP1 PUSH4 0x7E72FB52 EQ PUSH2 0x221 JUMPI DUP1 PUSH4 0x95D89B41 EQ PUSH2 0x23D JUMPI DUP1 PUSH4 0xA457C2D7 EQ PUSH2 0x268 JUMPI DUP1 PUSH4 0xA9059CBB EQ PUSH2 0x2A5 JUMPI DUP1 PUSH4 0xDD62ED3E EQ PUSH2 0x2E2 JUMPI PUSH2 0xA7 JUMP JUMPDEST DUP1 PUSH4 0x6FDDE03 EQ PUSH2 0xAC JUMPI DUP1 PUSH4 0x95EA7B3 EQ PUSH2 0xD7 JUMPI DUP1 PUSH4 0x18160DDD EQ PUSH2 0x114 JUMPI DUP1 PUSH4 0x23B872DD EQ PUSH2 0x13F JUMPI DUP1 PUSH4 0x313CE567 EQ PUSH2 0x17C JUMPI DUP1 PUSH4 0x39509351 EQ PUSH2 0x1A7 JUMPI JUMPDEST PUSH1 0x0 DUP1 REVERT JUMPDEST CALLVALUE DUP1 ISZERO PUSH2 0xB8 JUMPI PUSH1 0x0 DUP1 REVERT JUMPDEST POP PUSH2 0xC1 PUSH2 0x31F JUMP JUMPDEST PUSH1 0x40 MLOAD PUSH2 0xCE SWAP2 SWAP1 PUSH2 0xEC6 JUMP JUMPDEST PUSH1 0x40 MLOAD DUP1 SWAP2 SUB SWAP1 RETURN JUMPDEST CALLVALUE DUP1 ISZERO PUSH2 0xE3 JUMPI PUSH1 0x0 DUP1 REVERT JUMPDEST POP PUSH2 0xFE PUSH1 0x4 DUP1 CALLDATASIZE SUB DUP2 ADD SWAP1 PUSH2 0xF9 SWAP2 SWAP1 PUSH2 0xF81 JUMP JUMPDEST PUSH2 0x3B1 JUMP JUMPDEST PUSH1 0x40 MLOAD PUSH2 0x10B SWAP2 SWAP1 PUSH2 0xFDC JUMP JUMPDEST PUSH1 0x40 MLOAD DUP1 SWAP2 SUB SWAP1 RETURN JUMPDEST CALLVALUE DUP1 ISZERO PUSH2 0x120 JUMPI PUSH1 0x0 DUP1 REVERT JUMPDEST POP PUSH2 0x129 PUSH2 0x3D4 JUMP JUMPDEST PUSH1 0x40 MLOAD PUSH2 0x136 SWAP2 SWAP1 PUSH2 0x1006 JUMP JUMPDEST PUSH1 0x40 MLOAD DUP1 SWAP2 SUB SWAP1 RETURN JUMPDEST CALLVALUE DUP1 ISZERO PUSH2 0x14B JUMPI PUSH1 0x0 DUP1 REVERT JUMPDEST POP PUSH2 0x166 PUSH1 0x4 DUP1 CALLDATASIZE SUB DUP2 ADD SWAP1 PUSH2 0x161 SWAP2 SWAP1 PUSH2 0x1021 JUMP JUMPDEST PUSH2 0x3DE JUMP JUMPDEST PUSH1 0x40 MLOAD PUSH2 0x173 SWAP2 SWAP1 PUSH2 0xFDC JUMP JUMPDEST PUSH1 0x40 MLOAD DUP1 SWAP2 SUB SWAP1 RETURN JUMPDEST CALLVALUE DUP1 ISZERO PUSH2 0x188 JUMPI PUSH1 0x0 DUP1 REVERT JUMPDEST POP PUSH2 0x191 PUSH2 0x40D JUMP JUMPDEST PUSH1 0x40 MLOAD PUSH2 0x19E SWAP2 SWAP1 PUSH2 0x1090 JUMP JUMPDEST PUSH1 0x40 MLOAD DUP1 SWAP2 SUB SWAP1 RETURN JUMPDEST CALLVALUE DUP1 ISZERO PUSH2 0x1B3 JUMPI PUSH1 0x0 DUP1 REVERT JUMPDEST POP PUSH2 0x1CE PUSH1 0x4 DUP1 CALLDATASIZE SUB DUP2 ADD SWAP1 PUSH2 0x1C9 SWAP2 SWAP1 PUSH2 0xF81 JUMP JUMPDEST PUSH2 0x416 JUMP JUMPDEST PUSH1 0x40 MLOAD PUSH2 0x1DB SWAP2 SWAP1 PUSH2 0xFDC JUMP JUMPDEST PUSH1 0x40 MLOAD DUP1 SWAP2 SUB SWAP1 RETURN JUMPDEST CALLVALUE DUP1 ISZERO PUSH2 0x1F0 JUMPI PUSH1 0x0 DUP1 REVERT JUMPDEST POP PUSH2 0x20B PUSH1 0x4 DUP1 CALLDATASIZE SUB DUP2 ADD SWAP1 PUSH2 0x206 SWAP2 SWAP1 PUSH2 0x10AB JUMP JUMPDEST PUSH2 0x4C0 JUMP JUMPDEST PUSH1 0x40 MLOAD PUSH2 0x218 SWAP2 SWAP1 PUSH2 0x1006 JUMP JUMPDEST PUSH1 0x40 MLOAD DUP1 SWAP2 SUB SWAP1 RETURN JUMPDEST PUSH2 0x23B PUSH1 0x4 DUP1 CALLDATASIZE SUB DUP2 ADD SWAP1 PUSH2 0x236 SWAP2 SWAP1 PUSH2 0x10AB JUMP JUMPDEST PUSH2 0x508 JUMP JUMPDEST STOP JUMPDEST CALLVALUE DUP1 ISZERO PUSH2 0x249 JUMPI PUSH1 0x0 DUP1 REVERT JUMPDEST POP PUSH2 0x252 PUSH2 0x5C2 JUMP JUMPDEST PUSH1 0x40 MLOAD PUSH2 0x25F SWAP2 SWAP1 PUSH2 0xEC6 JUMP JUMPDEST PUSH1 0x40 MLOAD DUP1 SWAP2 SUB SWAP1 RETURN JUMPDEST CALLVALUE DUP1 ISZERO PUSH2 0x274 JUMPI PUSH1 0x0 DUP1 REVERT JUMPDEST POP PUSH2 0x28F PUSH1 0x4 DUP1 CALLDATASIZE SUB DUP2 ADD SWAP1 PUSH2 0x28A SWAP2 SWAP1 PUSH2 0xF81 JUMP JUMPDEST PUSH2 0x654 JUMP JUMPDEST PUSH1 0x40 MLOAD PUSH2 0x29C SWAP2 SWAP1 PUSH2 0xFDC JUMP JUMPDEST PUSH1 0x40 MLOAD DUP1 SWAP2 SUB SWAP1 RETURN JUMPDEST CALLVALUE DUP1 ISZERO PUSH2 0x2B1 JUMPI PUSH1 0x0 DUP1 REVERT JUMPDEST POP PUSH2 0x2CC PUSH1 0x4 DUP1 CALLDATASIZE SUB DUP2 ADD SWAP1 PUSH2 0x2C7 SWAP2 SWAP1 PUSH2 0xF81 JUMP JUMPDEST PUSH2 0x73E JUMP JUMPDEST PUSH1 0x40 MLOAD PUSH2 0x2D9 SWAP2 SWAP1 PUSH2 0xFDC JUMP JUMPDEST PUSH1 0x40 MLOAD DUP1 SWAP2 SUB SWAP1 RETURN JUMPDEST CALLVALUE DUP1 ISZERO PUSH2 0x2EE JUMPI PUSH1 0x0 DUP1 REVERT JUMPDEST POP PUSH2 0x309 PUSH1 0x4 DUP1 CALLDATASIZE SUB DUP2 ADD SWAP1 PUSH2 0x304 SWAP2 SWAP1 PUSH2 0x10D8 JUMP JUMPDEST PUSH2 0x761 JUMP JUMPDEST PUSH1 0x40 MLOAD PUSH2 0x316 SWAP2 SWAP1 PUSH2 0x1006 JUMP JUMPDEST PUSH1 0x40 MLOAD DUP1 SWAP2 SUB SWAP1 RETURN JUMPDEST PUSH1 0x60 PUSH1 0x3 DUP1 SLOAD PUSH2 0x32E SWAP1 PUSH2 0x1147 JUMP JUMPDEST DUP1 PUSH1 0x1F ADD PUSH1 0x20 DUP1 SWAP2 DIV MUL PUSH1 0x20 ADD PUSH1 0x40 MLOAD SWAP1 DUP2 ADD PUSH1 0x40 MSTORE DUP1 SWAP3 SWAP2 SWAP1 DUP2 DUP2 MSTORE PUSH1 0x20 ADD DUP3 DUP1 SLOAD PUSH2 0x35A SWAP1 PUSH2 0x1147 JUMP JUMPDEST DUP1 ISZERO PUSH2 0x3A7 JUMPI DUP1 PUSH1 0x1F LT PUSH2 0x37C JUMPI PUSH2 0x100 DUP1 DUP4 SLOAD DIV MUL DUP4 MSTORE SWAP2 PUSH1 0x20 ADD SWAP2 PUSH2 0x3A7 JUMP JUMPDEST DUP3 ADD SWAP2 SWAP1 PUSH1 0x0 MSTORE PUSH1 0x20 PUSH1 0x0 KECCAK256 SWAP1 JUMPDEST DUP2 SLOAD DUP2 MSTORE SWAP1 PUSH1 0x1 ADD SWAP1 PUSH1 0x20 ADD DUP1 DUP4 GT PUSH2 0x38A JUMPI DUP3 SWAP1 SUB PUSH1 0x1F AND DUP3 ADD SWAP2 JUMPDEST POP POP POP POP POP SWAP1 POP SWAP1 JUMP JUMPDEST PUSH1 0x0 DUP1 PUSH2 0x3BC PUSH2 0x7E8 JUMP JUMPDEST SWAP1 POP PUSH2 0x3C9 DUP2 DUP6 DUP6 PUSH2 0x7F0 JUMP JUMPDEST PUSH1 0x1 SWAP2 POP POP SWAP3 SWAP2 POP POP JUMP JUMPDEST PUSH1 0x0 PUSH1 0x2 SLOAD SWAP1 POP SWAP1 JUMP JUMPDEST PUSH1 0x0 DUP1 PUSH2 0x3E9 PUSH2 0x7E8 JUMP JUMPDEST SWAP1 POP PUSH2 0x3F6 DUP6 DUP3 DUP6 PUSH2 0x9B9 JUMP JUMPDEST PUSH2 0x401 DUP6 DUP6 DUP6 PUSH2 0xA45 JUMP JUMPDEST PUSH1 0x1 SWAP2 POP POP SWAP4 SWAP3 POP POP POP JUMP JUMPDEST PUSH1 0x0 PUSH1 0x12 SWAP1 POP SWAP1 JUMP JUMPDEST PUSH1 0x0 DUP1 PUSH2 0x421 PUSH2 0x7E8 JUMP JUMPDEST SWAP1 POP PUSH2 0x4B5 DUP2 DUP6 DUP6 PUSH1 0x1 PUSH1 0x0 DUP7 PUSH20 0xFFFFFFFFFFFFFFFFFFFFFFFFFFFFFFFFFFFFFFFF AND PUSH20 0xFFFFFFFFFFFFFFFFFFFFFFFFFFFFFFFFFFFFFFFF AND DUP2 MSTORE PUSH1 0x20 ADD SWAP1 DUP2 MSTORE PUSH1 0x20 ADD PUSH1 0x0 KECCAK256 PUSH1 0x0 DUP10 PUSH20 0xFFFFFFFFFFFFFFFFFFFFFFFFFFFFFFFFFFFFFFFF AND PUSH20 0xFFFFFFFFFFFFFFFFFFFFFFFFFFFFFFFFFFFFFFFF AND DUP2 MSTORE PUSH1 0x20 ADD SWAP1 DUP2 MSTORE PUSH1 0x20 ADD PUSH1 0x0 KECCAK256 SLOAD PUSH2 0x4B0 SWAP2 SWAP1 PUSH2 0x11A7 JUMP JUMPDEST PUSH2 0x7F0 JUMP JUMPDEST PUSH1 0x1 SWAP2 POP POP SWAP3 SWAP2 POP POP JUMP JUMPDEST PUSH1 0x0 DUP1 PUSH1 0x0 DUP4 PUSH20 0xFFFFFFFFFFFFFFFFFFFFFFFFFFFFFFFFFFFFFFFF AND PUSH20 0xFFFFFFFFFFFFFFFFFFFFFFFFFFFFFFFFFFFFFFFF AND DUP2 MSTORE PUSH1 0x20 ADD SWAP1 DUP2 MSTORE PUSH1 0x20 ADD PUSH1 0x0 KECCAK256 SLOAD SWAP1 POP SWAP2 SWAP1 POP JUMP JUMPDEST PUSH1 0x0 CALLVALUE GT PUSH2 0x54B JUMPI PUSH1 0x40 MLOAD PUSH32 0x8C379A000000000000000000000000000000000000000000000000000000000 DUP2 MSTORE PUSH1 0x4 ADD PUSH2 0x542 SWAP1 PUSH2 0x126F JUMP JUMPDEST PUSH1 0x40 MLOAD DUP1 SWAP2 SUB SWAP1 REVERT JUMPDEST PUSH1 0x0 PUSH1 0x5 SLOAD CALLVALUE PUSH2 0x55B SWAP2 SWAP1 PUSH2 0x128F JUMP JUMPDEST SWAP1 POP DUP1 PUSH2 0x566 PUSH2 0x3D4 JUMP JUMPDEST PUSH2 0x570 SWAP2 SWAP1 PUSH2 0x11A7 JUMP JUMPDEST PUSH1 0x6 SLOAD LT ISZERO PUSH2 0x5B4 JUMPI PUSH1 0x40 MLOAD PUSH32 0x8C379A000000000000000000000000000000000000000000000000000000000 DUP2 MSTORE PUSH1 0x4 ADD PUSH2 0x5AB SWAP1 PUSH2 0x1335 JUMP JUMPDEST PUSH1 0x40 MLOAD DUP1 SWAP2 SUB SWAP1 REVERT JUMPDEST PUSH2 0x5BE DUP3 DUP3 PUSH2 0xCC4 JUMP JUMPDEST POP POP JUMP JUMPDEST PUSH1 0x60 PUSH1 0x4 DUP1 SLOAD PUSH2 0x5D1 SWAP1 PUSH2 0x1147 JUMP JUMPDEST DUP1 PUSH1 0x1F ADD PUSH1 0x20 DUP1 SWAP2 DIV MUL PUSH1 0x20 ADD PUSH1 0x40 MLOAD SWAP1 DUP2 ADD PUSH1 0x40 MSTORE DUP1 SWAP3 SWAP2 SWAP1 DUP2 DUP2 MSTORE PUSH1 0x20 ADD DUP3 DUP1 SLOAD PUSH2 0x5FD SWAP1 PUSH2 0x1147 JUMP JUMPDEST DUP1 ISZERO PUSH2 0x64A JUMPI DUP1 PUSH1 0x1F LT PUSH2 0x61F JUMPI PUSH2 0x100 DUP1 DUP4 SLOAD DIV MUL DUP4 MSTORE SWAP2 PUSH1 0x20 ADD SWAP2 PUSH2 0x64A JUMP JUMPDEST DUP3 ADD SWAP2 SWAP1 PUSH1 0x0 MSTORE PUSH1 0x20 PUSH1 0x0 KECCAK256 SWAP1 JUMPDEST DUP2 SLOAD DUP2 MSTORE SWAP1 PUSH1 0x1 ADD SWAP1 PUSH1 0x20 ADD DUP1 DUP4 GT PUSH2 0x62D JUMPI DUP3 SWAP1 SUB PUSH1 0x1F AND DUP3 ADD SWAP2 JUMPDEST POP POP POP POP POP SWAP1 POP SWAP1 JUMP JUMPDEST PUSH1 0x0 DUP1 PUSH2 0x65F PUSH2 0x7E8 JUMP JUMPDEST SWAP1 POP PUSH1 0x0 PUSH1 0x1 PUSH1 0x0 DUP4 PUSH20 0xFFFFFFFFFFFFFFFFFFFFFFFFFFFFFFFFFFFFFFFF AND PUSH20 0xFFFFFFFFFFFFFFFFFFFFFFFFFFFFFFFFFFFFFFFF AND DUP2 MSTORE PUSH1 0x20 ADD SWAP1 DUP2 MSTORE PUSH1 0x20 ADD PUSH1 0x0 KECCAK256 PUSH1 0x0 DUP7 PUSH20 0xFFFFFFFFFFFFFFFFFFFFFFFFFFFFFFFFFFFFFFFF AND PUSH20 0xFFFFFFFFFFFFFFFFFFFFFFFFFFFFFFFFFFFFFFFF AND DUP2 MSTORE PUSH1 0x20 ADD SWAP1 DUP2 MSTORE PUSH1 0x20 ADD PUSH1 0x0 KECCAK256 SLOAD SWAP1 POP DUP4 DUP2 LT ISZERO PUSH2 0x725 JUMPI PUSH1 0x40 MLOAD PUSH32 0x8C379A000000000000000000000000000000000000000000000000000000000 DUP2 MSTORE PUSH1 0x4 ADD PUSH2 0x71C SWAP1 PUSH2 0x13C7 JUMP JUMPDEST PUSH1 0x40 MLOAD DUP1 SWAP2 SUB SWAP1 REVERT JUMPDEST PUSH2 0x732 DUP3 DUP7 DUP7 DUP5 SUB PUSH2 0x7F0 JUMP JUMPDEST PUSH1 0x1 SWAP3 POP POP POP SWAP3 SWAP2 POP POP JUMP JUMPDEST PUSH1 0x0 DUP1 PUSH2 0x749 PUSH2 0x7E8 JUMP JUMPDEST SWAP1 POP PUSH2 0x756 DUP2 DUP6 DUP6 PUSH2 0xA45 JUMP JUMPDEST PUSH1 0x1 SWAP2 POP POP SWAP3 SWAP2 POP POP JUMP JUMPDEST PUSH1 0x0 PUSH1 0x1 PUSH1 0x0 DUP5 PUSH20 0xFFFFFFFFFFFFFFFFFFFFFFFFFFFFFFFFFFFFFFFF AND PUSH20 0xFFFFFFFFFFFFFFFFFFFFFFFFFFFFFFFFFFFFFFFF AND DUP2 MSTORE PUSH1 0x20 ADD SWAP1 DUP2 MSTORE PUSH1 0x20 ADD PUSH1 0x0 KECCAK256 PUSH1 0x0 DUP4 PUSH20 0xFFFFFFFFFFFFFFFFFFFFFFFFFFFFFFFFFFFFFFFF AND PUSH20 0xFFFFFFFFFFFFFFFFFFFFFFFFFFFFFFFFFFFFFFFF AND DUP2 MSTORE PUSH1 0x20 ADD SWAP1 DUP2 MSTORE PUSH1 0x20 ADD PUSH1 0x0 KECCAK256 SLOAD SWAP1 POP SWAP3 SWAP2 POP POP JUMP JUMPDEST PUSH1 0x0 CALLER SWAP1 POP SWAP1 JUMP JUMPDEST PUSH1 0x0 PUSH20 0xFFFFFFFFFFFFFFFFFFFFFFFFFFFFFFFFFFFFFFFF AND DUP4 PUSH20 0xFFFFFFFFFFFFFFFFFFFFFFFFFFFFFFFFFFFFFFFF AND SUB PUSH2 0x85F JUMPI PUSH1 0x40 MLOAD PUSH32 0x8C379A000000000000000000000000000000000000000000000000000000000 DUP2 MSTORE PUSH1 0x4 ADD PUSH2 0x856 SWAP1 PUSH2 0x1459 JUMP JUMPDEST PUSH1 0x40 MLOAD DUP1 SWAP2 SUB SWAP1 REVERT JUMPDEST PUSH1 0x0 PUSH20 0xFFFFFFFFFFFFFFFFFFFFFFFFFFFFFFFFFFFFFFFF AND DUP3 PUSH20 0xFFFFFFFFFFFFFFFFFFFFFFFFFFFFFFFFFFFFFFFF AND SUB PUSH2 0x8CE JUMPI PUSH1 0x40 MLOAD PUSH32 0x8C379A000000000000000000000000000000000000000000000000000000000 DUP2 MSTORE PUSH1 0x4 ADD PUSH2 0x8C5 SWAP1 PUSH2 0x14EB JUMP JUMPDEST PUSH1 0x40 MLOAD DUP1 SWAP2 SUB SWAP1 REVERT JUMPDEST DUP1 PUSH1 0x1 PUSH1 0x0 DUP6 PUSH20 0xFFFFFFFFFFFFFFFFFFFFFFFFFFFFFFFFFFFFFFFF AND PUSH20 0xFFFFFFFFFFFFFFFFFFFFFFFFFFFFFFFFFFFFFFFF AND DUP2 MSTORE PUSH1 0x20 ADD SWAP1 DUP2 MSTORE PUSH1 0x20 ADD PUSH1 0x0 KECCAK256 PUSH1 0x0 DUP5 PUSH20 0xFFFFFFFFFFFFFFFFFFFFFFFFFFFFFFFFFFFFFFFF AND PUSH20 0xFFFFFFFFFFFFFFFFFFFFFFFFFFFFFFFFFFFFFFFF AND DUP2 MSTORE PUSH1 0x20 ADD SWAP1 DUP2 MSTORE PUSH1 0x20 ADD PUSH1 0x0 KECCAK256 DUP2 SWAP1 SSTORE POP DUP2 PUSH20 0xFFFFFFFFFFFFFFFFFFFFFFFFFFFFFFFFFFFFFFFF AND DUP4 PUSH20 0xFFFFFFFFFFFFFFFFFFFFFFFFFFFFFFFFFFFFFFFF AND PUSH32 0x8C5BE1E5EBEC7D5BD14F71427D1E84F3DD0314C0F7B2291E5B200AC8C7C3B925 DUP4 PUSH1 0x40 MLOAD PUSH2 0x9AC SWAP2 SWAP1 PUSH2 0x1006 JUMP JUMPDEST PUSH1 0x40 MLOAD DUP1 SWAP2 SUB SWAP1 LOG3 POP POP POP JUMP JUMPDEST PUSH1 0x0 PUSH2 0x9C5 DUP5 DUP5 PUSH2 0x761 JUMP JUMPDEST SWAP1 POP PUSH32 0xFFFFFFFFFFFFFFFFFFFFFFFFFFFFFFFFFFFFFFFFFFFFFFFFFFFFFFFFFFFFFFFF DUP2 EQ PUSH2 0xA3F JUMPI DUP2 DUP2 LT ISZERO PUSH2 0xA31 JUMPI PUSH1 0x40 MLOAD PUSH32 0x8C379A000000000000000000000000000000000000000000000000000000000 DUP2 MSTORE PUSH1 0x4 ADD PUSH2 0xA28 SWAP1 PUSH2 0x1557 JUMP JUMPDEST PUSH1 0x40 MLOAD DUP1 SWAP2 SUB SWAP1 REVERT JUMPDEST PUSH2 0xA3E DUP5 DUP5 DUP5 DUP5 SUB PUSH2 0x7F0 JUMP JUMPDEST JUMPDEST POP POP POP POP JUMP JUMPDEST PUSH1 0x0 PUSH20 0xFFFFFFFFFFFFFFFFFFFFFFFFFFFFFFFFFFFFFFFF AND DUP4 PUSH20 0xFFFFFFFFFFFFFFFFFFFFFFFFFFFFFFFFFFFFFFFF AND SUB PUSH2 0xAB4 JUMPI PUSH1 0x40 MLOAD PUSH32 0x8C379A000000000000000000000000000000000000000000000000000000000 DUP2 MSTORE PUSH1 0x4 ADD PUSH2 0xAAB SWAP1 PUSH2 0x15E9 JUMP JUMPDEST PUSH1 0x40 MLOAD DUP1 SWAP2 SUB SWAP1 REVERT JUMPDEST PUSH1 0x0 PUSH20 0xFFFFFFFFFFFFFFFFFFFFFFFFFFFFFFFFFFFFFFFF AND DUP3 PUSH20 0xFFFFFFFFFFFFFFFFFFFFFFFFFFFFFFFFFFFFFFFF AND SUB PUSH2 0xB23 JUMPI PUSH1 0x40 MLOAD PUSH32 0x8C379A000000000000000000000000000000000000000000000000000000000 DUP2 MSTORE PUSH1 0x4 ADD PUSH2 0xB1A SWAP1 PUSH2 0x167B JUMP JUMPDEST PUSH1 0x40 MLOAD DUP1 SWAP2 SUB SWAP1 REVERT JUMPDEST PUSH2 0xB2E DUP4 DUP4 DUP4 PUSH2 0xE23 JUMP JUMPDEST PUSH1 0x0 DUP1 PUSH1 0x0 DUP6 PUSH20 0xFFFFFFFFFFFFFFFFFFFFFFFFFFFFFFFFFFFFFFFF AND PUSH20 0xFFFFFFFFFFFFFFFFFFFFFFFFFFFFFFFFFFFFFFFF AND DUP2 MSTORE PUSH1 0x20 ADD SWAP1 DUP2 MSTORE PUSH1 0x20 ADD PUSH1 0x0 KECCAK256 SLOAD SWAP1 POP DUP2 DUP2 LT ISZERO PUSH2 0xBB4 JUMPI PUSH1 0x40 MLOAD PUSH32 0x8C379A000000000000000000000000000000000000000000000000000000000 DUP2 MSTORE PUSH1 0x4 ADD PUSH2 0xBAB SWAP1 PUSH2 0x170D JUMP JUMPDEST PUSH1 0x40 MLOAD DUP1 SWAP2 SUB SWAP1 REVERT JUMPDEST DUP2 DUP2 SUB PUSH1 0x0 DUP1 DUP7 PUSH20 0xFFFFFFFFFFFFFFFFFFFFFFFFFFFFFFFFFFFFFFFF AND PUSH20 0xFFFFFFFFFFFFFFFFFFFFFFFFFFFFFFFFFFFFFFFF AND DUP2 MSTORE PUSH1 0x20 ADD SWAP1 DUP2 MSTORE PUSH1 0x20 ADD PUSH1 0x0 KECCAK256 DUP2 SWAP1 SSTORE POP DUP2 PUSH1 0x0 DUP1 DUP6 PUSH20 0xFFFFFFFFFFFFFFFFFFFFFFFFFFFFFFFFFFFFFFFF AND PUSH20 0xFFFFFFFFFFFFFFFFFFFFFFFFFFFFFFFFFFFFFFFF AND DUP2 MSTORE PUSH1 0x20 ADD SWAP1 DUP2 MSTORE PUSH1 0x20 ADD PUSH1 0x0 KECCAK256 PUSH1 0x0 DUP3 DUP3 SLOAD PUSH2 0xC47 SWAP2 SWAP1 PUSH2 0x11A7 JUMP JUMPDEST SWAP3 POP POP DUP2 SWAP1 SSTORE POP DUP3 PUSH20 0xFFFFFFFFFFFFFFFFFFFFFFFFFFFFFFFFFFFFFFFF AND DUP5 PUSH20 0xFFFFFFFFFFFFFFFFFFFFFFFFFFFFFFFFFFFFFFFF AND PUSH32 0xDDF252AD1BE2C89B69C2B068FC378DAA952BA7F163C4A11628F55A4DF523B3EF DUP5 PUSH1 0x40 MLOAD PUSH2 0xCAB SWAP2 SWAP1 PUSH2 0x1006 JUMP JUMPDEST PUSH1 0x40 MLOAD DUP1 SWAP2 SUB SWAP1 LOG3 PUSH2 0xCBE DUP5 DUP5 DUP5 PUSH2 0xE28 JUMP JUMPDEST POP POP POP POP JUMP JUMPDEST PUSH1 0x0 PUSH20 0xFFFFFFFFFFFFFFFFFFFFFFFFFFFFFFFFFFFFFFFF AND DUP3 PUSH20 0xFFFFFFFFFFFFFFFFFFFFFFFFFFFFFFFFFFFFFFFF AND SUB PUSH2 0xD33 JUMPI PUSH1 0x40 MLOAD PUSH32 0x8C379A000000000000000000000000000000000000000000000000000000000 DUP2 MSTORE PUSH1 0x4 ADD PUSH2 0xD2A SWAP1 PUSH2 0x1779 JUMP JUMPDEST PUSH1 0x40 MLOAD DUP1 SWAP2 SUB SWAP1 REVERT JUMPDEST PUSH2 0xD3F PUSH1 0x0 DUP4 DUP4 PUSH2 0xE23 JUMP JUMPDEST DUP1 PUSH1 0x2 PUSH1 0x0 DUP3 DUP3 SLOAD PUSH2 0xD51 SWAP2 SWAP1 PUSH2 0x11A7 JUMP JUMPDEST SWAP3 POP POP DUP2 SWAP1 SSTORE POP DUP1 PUSH1 0x0 DUP1 DUP5 PUSH20 0xFFFFFFFFFFFFFFFFFFFFFFFFFFFFFFFFFFFFFFFF AND PUSH20 0xFFFFFFFFFFFFFFFFFFFFFFFFFFFFFFFFFFFFFFFF AND DUP2 MSTORE PUSH1 0x20 ADD SWAP1 DUP2 MSTORE PUSH1 0x20 ADD PUSH1 0x0 KECCAK256 PUSH1 0x0 DUP3 DUP3 SLOAD PUSH2 0xDA6 SWAP2 SWAP1 PUSH2 0x11A7 JUMP JUMPDEST SWAP3 POP POP DUP2 SWAP1 SSTORE POP DUP2 PUSH20 0xFFFFFFFFFFFFFFFFFFFFFFFFFFFFFFFFFFFFFFFF AND PUSH1 0x0 PUSH20 0xFFFFFFFFFFFFFFFFFFFFFFFFFFFFFFFFFFFFFFFF AND PUSH32 0xDDF252AD1BE2C89B69C2B068FC378DAA952BA7F163C4A11628F55A4DF523B3EF DUP4 PUSH1 0x40 MLOAD PUSH2 0xE0B SWAP2 SWAP1 PUSH2 0x1006 JUMP JUMPDEST PUSH1 0x40 MLOAD DUP1 SWAP2 SUB SWAP1 LOG3 PUSH2 0xE1F PUSH1 0x0 DUP4 DUP4 PUSH2 0xE28 JUMP JUMPDEST POP POP JUMP JUMPDEST POP POP POP JUMP JUMPDEST POP POP POP JUMP JUMPDEST PUSH1 0x0 DUP2 MLOAD SWAP1 POP SWAP2 SWAP1 POP JUMP JUMPDEST PUSH1 0x0 DUP3 DUP3 MSTORE PUSH1 0x20 DUP3 ADD SWAP1 POP SWAP3 SWAP2 POP POP JUMP JUMPDEST PUSH1 0x0 JUMPDEST DUP4 DUP2 LT ISZERO PUSH2 0xE67 JUMPI DUP1 DUP3 ADD MLOAD DUP2 DUP5 ADD MSTORE PUSH1 0x20 DUP2 ADD SWAP1 POP PUSH2 0xE4C JUMP JUMPDEST DUP4 DUP2 GT ISZERO PUSH2 0xE76 JUMPI PUSH1 0x0 DUP5 DUP5 ADD MSTORE JUMPDEST POP POP POP POP JUMP JUMPDEST PUSH1 0x0 PUSH1 0x1F NOT PUSH1 0x1F DUP4 ADD AND SWAP1 POP SWAP2 SWAP1 POP JUMP JUMPDEST PUSH1 0x0 PUSH2 0xE98 DUP3 PUSH2 0xE2D JUMP JUMPDEST PUSH2 0xEA2 DUP2 DUP6 PUSH2 0xE38 JUMP JUMPDEST SWAP4 POP PUSH2 0xEB2 DUP2 DUP6 PUSH1 0x20 DUP7 ADD PUSH2 0xE49 JUMP JUMPDEST PUSH2 0xEBB DUP2 PUSH2 0xE7C JUMP JUMPDEST DUP5 ADD SWAP2 POP POP SWAP3 SWAP2 POP POP JUMP JUMPDEST PUSH1 0x0 PUSH1 0x20 DUP3 ADD SWAP1 POP DUP2 DUP2 SUB PUSH1 0x0 DUP4 ADD MSTORE PUSH2 0xEE0 DUP2 DUP5 PUSH2 0xE8D JUMP JUMPDEST SWAP1 POP SWAP3 SWAP2 POP POP JUMP JUMPDEST PUSH1 0x0 DUP1 REVERT JUMPDEST PUSH1 0x0 PUSH20 0xFFFFFFFFFFFFFFFFFFFFFFFFFFFFFFFFFFFFFFFF DUP3 AND SWAP1 POP SWAP2 SWAP1 POP JUMP JUMPDEST PUSH1 0x0 PUSH2 0xF18 DUP3 PUSH2 0xEED JUMP JUMPDEST SWAP1 POP SWAP2 SWAP1 POP JUMP JUMPDEST PUSH2 0xF28 DUP2 PUSH2 0xF0D JUMP JUMPDEST DUP2 EQ PUSH2 0xF33 JUMPI PUSH1 0x0 DUP1 REVERT JUMPDEST POP JUMP JUMPDEST PUSH1 0x0 DUP2 CALLDATALOAD SWAP1 POP PUSH2 0xF45 DUP2 PUSH2 0xF1F JUMP JUMPDEST SWAP3 SWAP2 POP POP JUMP JUMPDEST PUSH1 0x0 DUP2 SWAP1 POP SWAP2 SWAP1 POP JUMP JUMPDEST PUSH2 0xF5E DUP2 PUSH2 0xF4B JUMP JUMPDEST DUP2 EQ PUSH2 0xF69 JUMPI PUSH1 0x0 DUP1 REVERT JUMPDEST POP JUMP JUMPDEST PUSH1 0x0 DUP2 CALLDATALOAD SWAP1 POP PUSH2 0xF7B DUP2 PUSH2 0xF55 JUMP JUMPDEST SWAP3 SWAP2 POP POP JUMP JUMPDEST PUSH1 0x0 DUP1 PUSH1 0x40 DUP4 DUP6 SUB SLT ISZERO PUSH2 0xF98 JUMPI PUSH2 0xF97 PUSH2 0xEE8 JUMP JUMPDEST JUMPDEST PUSH1 0x0 PUSH2 0xFA6 DUP6 DUP3 DUP7 ADD PUSH2 0xF36 JUMP JUMPDEST SWAP3 POP POP PUSH1 0x20 PUSH2 0xFB7 DUP6 DUP3 DUP7 ADD PUSH2 0xF6C JUMP JUMPDEST SWAP2 POP POP SWAP3 POP SWAP3 SWAP1 POP JUMP JUMPDEST PUSH1 0x0 DUP2 ISZERO ISZERO SWAP1 POP SWAP2 SWAP1 POP JUMP JUMPDEST PUSH2 0xFD6 DUP2 PUSH2 0xFC1 JUMP JUMPDEST DUP3 MSTORE POP POP JUMP JUMPDEST PUSH1 0x0 PUSH1 0x20 DUP3 ADD SWAP1 POP PUSH2 0xFF1 PUSH1 0x0 DUP4 ADD DUP5 PUSH2 0xFCD JUMP JUMPDEST SWAP3 SWAP2 POP POP JUMP JUMPDEST PUSH2 0x1000 DUP2 PUSH2 0xF4B JUMP JUMPDEST DUP3 MSTORE POP POP JUMP JUMPDEST PUSH1 0x0 PUSH1 0x20 DUP3 ADD SWAP1 POP PUSH2 0x101B PUSH1 0x0 DUP4 ADD DUP5 PUSH2 0xFF7 JUMP JUMPDEST SWAP3 SWAP2 POP POP JUMP JUMPDEST PUSH1 0x0 DUP1 PUSH1 0x0 PUSH1 0x60 DUP5 DUP7 SUB SLT ISZERO PUSH2 0x103A JUMPI PUSH2 0x1039 PUSH2 0xEE8 JUMP JUMPDEST JUMPDEST PUSH1 0x0 PUSH2 0x1048 DUP7 DUP3 DUP8 ADD PUSH2 0xF36 JUMP JUMPDEST SWAP4 POP POP PUSH1 0x20 PUSH2 0x1059 DUP7 DUP3 DUP8 ADD PUSH2 0xF36 JUMP JUMPDEST SWAP3 POP POP PUSH1 0x40 PUSH2 0x106A DUP7 DUP3 DUP8 ADD PUSH2 0xF6C JUMP JUMPDEST SWAP2 POP POP SWAP3 POP SWAP3 POP SWAP3 JUMP JUMPDEST PUSH1 0x0 PUSH1 0xFF DUP3 AND SWAP1 POP SWAP2 SWAP1 POP JUMP JUMPDEST PUSH2 0x108A DUP2 PUSH2 0x1074 JUMP JUMPDEST DUP3 MSTORE POP POP JUMP JUMPDEST PUSH1 0x0 PUSH1 0x20 DUP3 ADD SWAP1 POP PUSH2 0x10A5 PUSH1 0x0 DUP4 ADD DUP5 PUSH2 0x1081 JUMP JUMPDEST SWAP3 SWAP2 POP POP JUMP JUMPDEST PUSH1 0x0 PUSH1 0x20 DUP3 DUP5 SUB SLT ISZERO PUSH2 0x10C1 JUMPI PUSH2 0x10C0 PUSH2 0xEE8 JUMP JUMPDEST JUMPDEST PUSH1 0x0 PUSH2 0x10CF DUP5 DUP3 DUP6 ADD PUSH2 0xF36 JUMP JUMPDEST SWAP2 POP POP SWAP3 SWAP2 POP POP JUMP JUMPDEST PUSH1 0x0 DUP1 PUSH1 0x40 DUP4 DUP6 SUB SLT ISZERO PUSH2 0x10EF JUMPI PUSH2 0x10EE PUSH2 0xEE8 JUMP JUMPDEST JUMPDEST PUSH1 0x0 PUSH2 0x10FD DUP6 DUP3 DUP7 ADD PUSH2 0xF36 JUMP JUMPDEST SWAP3 POP POP PUSH1 0x20 PUSH2 0x110E DUP6 DUP3 DUP7 ADD PUSH2 0xF36 JUMP JUMPDEST SWAP2 POP POP SWAP3 POP SWAP3 SWAP1 POP JUMP JUMPDEST PUSH32 0x4E487B7100000000000000000000000000000000000000000000000000000000 PUSH1 0x0 MSTORE PUSH1 0x22 PUSH1 0x4 MSTORE PUSH1 0x24 PUSH1 0x0 REVERT JUMPDEST PUSH1 0x0 PUSH1 0x2 DUP3 DIV SWAP1 POP PUSH1 0x1 DUP3 AND DUP1 PUSH2 0x115F JUMPI PUSH1 0x7F DUP3 AND SWAP2 POP JUMPDEST PUSH1 0x20 DUP3 LT DUP2 SUB PUSH2 0x1172 JUMPI PUSH2 0x1171 PUSH2 0x1118 JUMP JUMPDEST JUMPDEST POP SWAP2 SWAP1 POP JUMP JUMPDEST PUSH32 0x4E487B7100000000000000000000000000000000000000000000000000000000 PUSH1 0x0 MSTORE PUSH1 0x11 PUSH1 0x4 MSTORE PUSH1 0x24 PUSH1 0x0 REVERT JUMPDEST PUSH1 0x0 PUSH2 0x11B2 DUP3 PUSH2 0xF4B JUMP JUMPDEST SWAP2 POP PUSH2 0x11BD DUP4 PUSH2 0xF4B JUMP JUMPDEST SWAP3 POP DUP3 PUSH32 0xFFFFFFFFFFFFFFFFFFFFFFFFFFFFFFFFFFFFFFFFFFFFFFFFFFFFFFFFFFFFFFFF SUB DUP3 GT ISZERO PUSH2 0x11F2 JUMPI PUSH2 0x11F1 PUSH2 0x1178 JUMP JUMPDEST JUMPDEST DUP3 DUP3 ADD SWAP1 POP SWAP3 SWAP2 POP POP JUMP JUMPDEST PUSH32 0x596F75206E656564206D6F7265206D6F6E657920666F72207468697320747261 PUSH1 0x0 DUP3 ADD MSTORE PUSH32 0x6E73616374696F6E000000000000000000000000000000000000000000000000 PUSH1 0x20 DUP3 ADD MSTORE POP JUMP JUMPDEST PUSH1 0x0 PUSH2 0x1259 PUSH1 0x28 DUP4 PUSH2 0xE38 JUMP JUMPDEST SWAP2 POP PUSH2 0x1264 DUP3 PUSH2 0x11FD JUMP JUMPDEST PUSH1 0x40 DUP3 ADD SWAP1 POP SWAP2 SWAP1 POP JUMP JUMPDEST PUSH1 0x0 PUSH1 0x20 DUP3 ADD SWAP1 POP DUP2 DUP2 SUB PUSH1 0x0 DUP4 ADD MSTORE PUSH2 0x1288 DUP2 PUSH2 0x124C JUMP JUMPDEST SWAP1 POP SWAP2 SWAP1 POP JUMP JUMPDEST PUSH1 0x0 PUSH2 0x129A DUP3 PUSH2 0xF4B JUMP JUMPDEST SWAP2 POP PUSH2 0x12A5 DUP4 PUSH2 0xF4B JUMP JUMPDEST SWAP3 POP DUP2 PUSH32 0xFFFFFFFFFFFFFFFFFFFFFFFFFFFFFFFFFFFFFFFFFFFFFFFFFFFFFFFFFFFFFFFF DIV DUP4 GT DUP3 ISZERO ISZERO AND ISZERO PUSH2 0x12DE JUMPI PUSH2 0x12DD PUSH2 0x1178 JUMP JUMPDEST JUMPDEST DUP3 DUP3 MUL SWAP1 POP SWAP3 SWAP2 POP POP JUMP JUMPDEST PUSH32 0x43616E6E6F742045786365656420466978656420537570706C79000000000000 PUSH1 0x0 DUP3 ADD MSTORE POP JUMP JUMPDEST PUSH1 0x0 PUSH2 0x131F PUSH1 0x1A DUP4 PUSH2 0xE38 JUMP JUMPDEST SWAP2 POP PUSH2 0x132A DUP3 PUSH2 0x12E9 JUMP JUMPDEST PUSH1 0x20 DUP3 ADD SWAP1 POP SWAP2 SWAP1 POP JUMP JUMPDEST PUSH1 0x0 PUSH1 0x20 DUP3 ADD SWAP1 POP DUP2 DUP2 SUB PUSH1 0x0 DUP4 ADD MSTORE PUSH2 0x134E DUP2 PUSH2 0x1312 JUMP JUMPDEST SWAP1 POP SWAP2 SWAP1 POP JUMP JUMPDEST PUSH32 0x45524332303A2064656372656173656420616C6C6F77616E63652062656C6F77 PUSH1 0x0 DUP3 ADD MSTORE PUSH32 0x207A65726F000000000000000000000000000000000000000000000000000000 PUSH1 0x20 DUP3 ADD MSTORE POP JUMP JUMPDEST PUSH1 0x0 PUSH2 0x13B1 PUSH1 0x25 DUP4 PUSH2 0xE38 JUMP JUMPDEST SWAP2 POP PUSH2 0x13BC DUP3 PUSH2 0x1355 JUMP JUMPDEST PUSH1 0x40 DUP3 ADD SWAP1 POP SWAP2 SWAP1 POP JUMP JUMPDEST PUSH1 0x0 PUSH1 0x20 DUP3 ADD SWAP1 POP DUP2 DUP2 SUB PUSH1 0x0 DUP4 ADD MSTORE PUSH2 0x13E0 DUP2 PUSH2 0x13A4 JUMP JUMPDEST SWAP1 POP SWAP2 SWAP1 POP JUMP JUMPDEST PUSH32 0x45524332303A20617070726F76652066726F6D20746865207A65726F20616464 PUSH1 0x0 DUP3 ADD MSTORE PUSH32 0x7265737300000000000000000000000000000000000000000000000000000000 PUSH1 0x20 DUP3 ADD MSTORE POP JUMP JUMPDEST PUSH1 0x0 PUSH2 0x1443 PUSH1 0x24 DUP4 PUSH2 0xE38 JUMP JUMPDEST SWAP2 POP PUSH2 0x144E DUP3 PUSH2 0x13E7 JUMP JUMPDEST PUSH1 0x40 DUP3 ADD SWAP1 POP SWAP2 SWAP1 POP JUMP JUMPDEST PUSH1 0x0 PUSH1 0x20 DUP3 ADD SWAP1 POP DUP2 DUP2 SUB PUSH1 0x0 DUP4 ADD MSTORE PUSH2 0x1472 DUP2 PUSH2 0x1436 JUMP JUMPDEST SWAP1 POP SWAP2 SWAP1 POP JUMP JUMPDEST PUSH32 0x45524332303A20617070726F766520746F20746865207A65726F206164647265 PUSH1 0x0 DUP3 ADD MSTORE PUSH32 0x7373000000000000000000000000000000000000000000000000000000000000 PUSH1 0x20 DUP3 ADD MSTORE POP JUMP JUMPDEST PUSH1 0x0 PUSH2 0x14D5 PUSH1 0x22 DUP4 PUSH2 0xE38 JUMP JUMPDEST SWAP2 POP PUSH2 0x14E0 DUP3 PUSH2 0x1479 JUMP JUMPDEST PUSH1 0x40 DUP3 ADD SWAP1 POP SWAP2 SWAP1 POP JUMP JUMPDEST PUSH1 0x0 PUSH1 0x20 DUP3 ADD SWAP1 POP DUP2 DUP2 SUB PUSH1 0x0 DUP4 ADD MSTORE PUSH2 0x1504 DUP2 PUSH2 0x14C8 JUMP JUMPDEST SWAP1 POP SWAP2 SWAP1 POP JUMP JUMPDEST PUSH32 0x45524332303A20696E73756666696369656E7420616C6C6F77616E6365000000 PUSH1 0x0 DUP3 ADD MSTORE POP JUMP JUMPDEST PUSH1 0x0 PUSH2 0x1541 PUSH1 0x1D DUP4 PUSH2 0xE38 JUMP JUMPDEST SWAP2 POP PUSH2 0x154C DUP3 PUSH2 0x150B JUMP JUMPDEST PUSH1 0x20 DUP3 ADD SWAP1 POP SWAP2 SWAP1 POP JUMP JUMPDEST PUSH1 0x0 PUSH1 0x20 DUP3 ADD SWAP1 POP DUP2 DUP2 SUB PUSH1 0x0 DUP4 ADD MSTORE PUSH2 0x1570 DUP2 PUSH2 0x1534 JUMP JUMPDEST SWAP1 POP SWAP2 SWAP1 POP JUMP JUMPDEST PUSH32 0x45524332303A207472616E736665722066726F6D20746865207A65726F206164 PUSH1 0x0 DUP3 ADD MSTORE PUSH32 0x6472657373000000000000000000000000000000000000000000000000000000 PUSH1 0x20 DUP3 ADD MSTORE POP JUMP JUMPDEST PUSH1 0x0 PUSH2 0x15D3 PUSH1 0x25 DUP4 PUSH2 0xE38 JUMP JUMPDEST SWAP2 POP PUSH2 0x15DE DUP3 PUSH2 0x1577 JUMP JUMPDEST PUSH1 0x40 DUP3 ADD SWAP1 POP SWAP2 SWAP1 POP JUMP JUMPDEST PUSH1 0x0 PUSH1 0x20 DUP3 ADD SWAP1 POP DUP2 DUP2 SUB PUSH1 0x0 DUP4 ADD MSTORE PUSH2 0x1602 DUP2 PUSH2 0x15C6 JUMP JUMPDEST SWAP1 POP SWAP2 SWAP1 POP JUMP JUMPDEST PUSH32 0x45524332303A207472616E7366657220746F20746865207A65726F2061646472 PUSH1 0x0 DUP3 ADD MSTORE PUSH32 0x6573730000000000000000000000000000000000000000000000000000000000 PUSH1 0x20 DUP3 ADD MSTORE POP JUMP JUMPDEST PUSH1 0x0 PUSH2 0x1665 PUSH1 0x23 DUP4 PUSH2 0xE38 JUMP JUMPDEST SWAP2 POP PUSH2 0x1670 DUP3 PUSH2 0x1609 JUMP JUMPDEST PUSH1 0x40 DUP3 ADD SWAP1 POP SWAP2 SWAP1 POP JUMP JUMPDEST PUSH1 0x0 PUSH1 0x20 DUP3 ADD SWAP1 POP DUP2 DUP2 SUB PUSH1 0x0 DUP4 ADD MSTORE PUSH2 0x1694 DUP2 PUSH2 0x1658 JUMP JUMPDEST SWAP1 POP SWAP2 SWAP1 POP JUMP JUMPDEST PUSH32 0x45524332303A207472616E7366657220616D6F756E7420657863656564732062 PUSH1 0x0 DUP3 ADD MSTORE PUSH32 0x616C616E63650000000000000000000000000000000000000000000000000000 PUSH1 0x20 DUP3 ADD MSTORE POP JUMP JUMPDEST PUSH1 0x0 PUSH2 0x16F7 PUSH1 0x26 DUP4 PUSH2 0xE38 JUMP JUMPDEST SWAP2 POP PUSH2 0x1702 DUP3 PUSH2 0x169B JUMP JUMPDEST PUSH1 0x40 DUP3 ADD SWAP1 POP SWAP2 SWAP1 POP JUMP JUMPDEST PUSH1 0x0 PUSH1 0x20 DUP3 ADD SWAP1 POP DUP2 DUP2 SUB PUSH1 0x0 DUP4 ADD MSTORE PUSH2 0x1726 DUP2 PUSH2 0x16EA JUMP JUMPDEST SWAP1 POP SWAP2 SWAP1 POP JUMP JUMPDEST PUSH32 0x45524332303A206D696E7420746F20746865207A65726F206164647265737300 PUSH1 0x0 DUP3 ADD MSTORE POP JUMP JUMPDEST PUSH1 0x0 PUSH2 0x1763 PUSH1 0x1F DUP4 PUSH2 0xE38 JUMP JUMPDEST SWAP2 POP PUSH2 0x176E DUP3 PUSH2 0x172D JUMP JUMPDEST PUSH1 0x20 DUP3 ADD SWAP1 POP SWAP2 SWAP1 POP JUMP JUMPDEST PUSH1 0x0 PUSH1 0x20 DUP3 ADD SWAP1 POP DUP2 DUP2 SUB PUSH1 0x0 DUP4 ADD MSTORE PUSH2 0x1792 DUP2 PUSH2 0x1756 JUMP JUMPDEST SWAP1 POP SWAP2 SWAP1 POP JUMP INVALID LOG2 PUSH5 0x6970667358 0x22 SLT KECCAK256 0xAB 0xC1 SWAP9 DUP14 0xC2 SUB CREATE2 SWAP4 0xD 0xC1 0x2C PUSH16 0x7F14F301270FB3AEAA26A9C67AD32D5B DUP6 0xD5 0x5F 0xFB PUSH5 0x736F6C6343 STOP ADDMOD 0xD STOP CALLER "
				},
				"gasEstimates": {
					"creation": {
						"codeDepositCost": "1219000",
						"executionCost": "infinite",
						"totalCost": "infinite"
					},
					"external": {
						"allowance(address,address)": "infinite",
						"approve(address,uint256)": "infinite",
						"balanceOf(address)": "2841",
						"buyToken(address)": "infinite",
						"decimals()": "432",
						"decreaseAllowance(address,uint256)": "infinite",
						"increaseAllowance(address,uint256)": "infinite",
						"name()": "infinite",
						"symbol()": "infinite",
						"totalSupply()": "2482",
						"transfer(address,uint256)": "infinite",
						"transferFrom(address,address,uint256)": "infinite"
					}
				},
				"methodIdentifiers": {
					"allowance(address,address)": "dd62ed3e",
					"approve(address,uint256)": "095ea7b3",
					"balanceOf(address)": "70a08231",
					"buyToken(address)": "7e72fb52",
					"decimals()": "313ce567",
					"decreaseAllowance(address,uint256)": "a457c2d7",
					"increaseAllowance(address,uint256)": "39509351",
					"name()": "06fdde03",
					"symbol()": "95d89b41",
					"totalSupply()": "18160ddd",
					"transfer(address,uint256)": "a9059cbb",
					"transferFrom(address,address,uint256)": "23b872dd"
				}
			},
			"userdoc": {
				"kind": "user",
				"methods": {},
				"version": 1
			}
		}
	}
}